{
  "transactions": [
    {
      "hash": "0x0578c38922bac2edbad3646df643621f769fbbcf6f475edc30d6a3e0f7238b7b",
      "transactionType": "CREATE",
      "contractName": "BridgeOutbox",
      "contractAddress": "0x7bb65ed3928fd2143dc16475d1292833ed01a679",
      "function": null,
      "arguments": [
        "0x2ABd0D224775Fb9140c04f12c3838Af95847A97c",
        "33554438"
      ],
      "transaction": {
        "from": "0x2abd0d224775fb9140c04f12c3838af95847a97c",
        "gas": "0x23514c",
        "value": "0x0",
        "input": "0x60a060405234801562000010575f80fd5b5060405162001fa738038062001fa78339810160408190526200003391620000f1565b816001600160a01b0381166200006257604051631e4fbdf760e01b81525f600482015260240160405180910390fd5b6200006d81620000a2565b5060017f9b779b17422d0df92223018b32b4d1fa46e071723d6817e2486d003becc55f005563ffffffff16608052506200013f565b5f80546001600160a01b038381166001600160a01b0319831681178455604051919092169283917f8be0079c531659141344cd1fd0a4f28419497f9722a3daafe3b4186f6b6457e09190a35050565b5f806040838503121562000103575f80fd5b82516001600160a01b03811681146200011a575f80fd5b602084015190925063ffffffff8116811462000134575f80fd5b809150509250929050565b608051611e486200015f5f395f818161038a0152610a3f0152611e485ff3fe608060405234801561000f575f80fd5b50600436106101a1575f3560e01c806380b06c64116100f3578063b7033a0311610093578063de4c41ca1161006e578063de4c41ca1461047b578063eee31fb2146104a3578063f2fde38b146104b6578063fcff0473146104c9575f80fd5b8063b7033a0314610419578063d44fa33e1461042c578063db23809d1461044e575f80fd5b80638da5cb5b116100ce5780638da5cb5b146103c15780638f7a25fe146103d15780639e0bbd9f146103e4578063a0aa434c146103f7575f80fd5b806380b06c641461035f578063891bad80146103725780638d3638f414610385575f80fd5b806359e9ab1a1161015e5780636ee21cac116101395780636ee21cac146102f1578063715018a61461031c57806376cad83414610324578063775db9d314610337575f80fd5b806359e9ab1a1461029757806361a552dc146102aa57806363574ed0146102be575f80fd5b80630f678e36146101a55780631458561d146101ba57806329d1c26b146101ff5780632e6d05a8146102125780633e8a727c1461024457806344ca0ebe14610284575b5f80fd5b6101b86101b33660046118fc565b6104dc565b005b6101e26101c8366004611941565b60086020525f90815260409020546001600160401b031681565b6040516001600160401b0390911681526020015b60405180910390f35b6101b861020d36600461195a565b61052d565b610234610220366004611941565b60026020525f908152604090205460ff1681565b60405190151581526020016101f6565b61026c61025236600461195a565b60056020525f90815260409020546001600160801b031681565b6040516001600160801b0390911681526020016101f6565b6101b8610292366004611987565b610577565b6101b86102a53660046119c0565b6105e3565b60015461023490600160a01b900460ff1681565b61026c6102cc366004611a00565b600a60209081525f92835260408084209091529082529020546001600160801b031681565b600154610304906001600160a01b031681565b6040516001600160a01b0390911681526020016101f6565b6101b8610654565b6101b8610332366004611a20565b610667565b61026c61034536600461195a565b60066020525f90815260409020546001600160801b031681565b6101b861036d366004611a39565b6106c7565b6101b8610380366004611987565b61072f565b6103ac7f000000000000000000000000000000000000000000000000000000000000000081565b60405163ffffffff90911681526020016101f6565b5f546001600160a01b0316610304565b6101b86103df366004611941565b610793565b6101b86103f2366004611941565b6107e3565b61023461040536600461195a565b60096020525f908152604090205460ff1681565b6101b8610427366004611987565b610830565b61023461043a36600461195a565b60046020525f908152604090205460ff1681565b61023461045c366004611a50565b600360209081525f928352604080842090915290825290205460ff1681565b61026c61048936600461195a565b60076020525f90815260409020546001600160801b031681565b6101b86104b1366004611a39565b610894565b6101b86104c43660046118fc565b6108de565b6101b86104d736600461195a565b61091d565b6104e4610964565b600180546001600160a01b0319166001600160a01b0383169081179091556040517fb0e654271fc859786c72d1f913e734dc379739097197d970fc103639af311c7a905f90a250565b610535610964565b5f81815260046020526040808220805460ff191660011790555182917fe7019739d91346eb9e4a6525783e16c9659c2d355c6e504e85c56d1576a42a3f91a250565b61057f610964565b5f8281526006602090815260409182902080546001600160801b0319166001600160801b038516908117909155915191825283917fbf00e2077595566a521b8e3599a0682bc8700c6362401b1ce63b6f9c5bd5d1e791015b60405180910390a25050565b6105eb610964565b63ffffffff8381165f81815260036020908152604080832094871680845294825291829020805460ff191686151590811790915591519182527ff33911f66d1f2feb3597feeb9deebd5187733ffcc2b855300462a01c8d391bb4910160405180910390a3505050565b61065c610964565b6106655f610990565b565b61066f610964565b60018054821515600160a01b0260ff60a01b199091161790556040517f256bf8e8b40cbfb88946b4d95d17bf45cb52d93ba9d2f767df67c6c15f0253f7906106bc90831515815260200190565b60405180910390a150565b6106cf6109df565b6001546001600160a01b031633146106fa5760405163c66ff4cd60e01b815260040160405180910390fd5b61070381610a0d565b61072c60017f9b779b17422d0df92223018b32b4d1fa46e071723d6817e2486d003becc55f0055565b50565b610737610964565b5f8281526007602090815260409182902080546001600160801b0319166001600160801b038516908117909155915191825283917fadca0b8792a4724d673614590b704b591e207730ea48fcd3eed067bd9bfa3be891016105d7565b61079b610964565b63ffffffff81165f81815260026020526040808220805460ff19166001179055517fe318049ad851e4adc0e72a31d8092de055c31ff255db0375642a8d9cd4ee6ace9190a250565b6107eb610964565b63ffffffff81165f81815260026020526040808220805460ff19169055517fc60cf0bdf6c913c2d080d151c29909503abb49cdd09b459a7a10a16a466d02da9190a250565b610838610964565b5f8281526005602090815260409182902080546001600160801b0319166001600160801b038516908117909155915191825283917f50bdeb701af64503086964d663578aca632ba21bb2fdd9e35b9f92c97301431891016105d7565b61089c6109df565b5f546001600160a01b031633148015906108c157506001546001600160a01b03163314155b156106fa576040516282b42960e81b815260040160405180910390fd5b6108e6610964565b6001600160a01b03811661091457604051631e4fbdf760e01b81525f60048201526024015b60405180910390fd5b61072c81610990565b610925610964565b5f81815260046020526040808220805460ff191690555182917f0f0d13a46c2eec76f3c5a974f20aea6ef7128eae40258bb2adfaf76de73116e391a250565b5f546001600160a01b031633146106655760405163118cdaa760e01b815233600482015260240161090b565b5f80546001600160a01b038381166001600160a01b0319831681178455604051919092169283917f8be0079c531659141344cd1fd0a4f28419497f9722a3daafe3b4186f6b6457e09190a35050565b6109e7610f75565b60027f9b779b17422d0df92223018b32b4d1fa46e071723d6817e2486d003becc55f0055565b600154600160a01b900460ff1615610a3857604051638bee704f60e01b815260040160405180910390fd5b63ffffffff7f000000000000000000000000000000000000000000000000000000000000000016610a6f6060830160408401611941565b63ffffffff1614610a9357604051631b91204960e01b815260040160405180910390fd5b610aa36060820160408301611941565b63ffffffff16610ab96080830160608401611941565b63ffffffff1603610add5760405163aa68646360e01b815260040160405180910390fd5b60025f610af06080840160608501611941565b63ffffffff16815260208101919091526040015f205460ff16610b3f57610b1d6080820160608301611941565b60405163150bc7fb60e31b815263ffffffff909116600482015260240161090b565b60035f610b526060840160408501611941565b63ffffffff16815260208101919091526040015f90812090610b7a6080840160608501611941565b63ffffffff16815260208101919091526040015f205460ff1615610bb15760405163cc293e6760e01b815260040160405180910390fd5b60c08101355f9081526004602052604090205460ff16610be45760405163981a2a2b60e01b815260040160405180910390fd5b610bf661014082016101208301611a78565b6001600160801b03165f03610c1e576040516365e52d5160e11b815260040160405180910390fd5b42610c3161026083016102408401611aa7565b6001600160401b03161015610c5957604051631da7447960e21b815260040160405180910390fd5b5f610c71610c6c36849003840184611b16565b610fb7565b5f8181526009602052604090205490915060ff1615610ca35760405163081da57f60e11b815260040160405180910390fd5b5f818152600960205260408120805460ff19166001179055600881610cce6080860160608701611941565b63ffffffff16815260208101919091526040015f2054610cf8906001600160401b03166001611ca2565b90506001600160401b038116610d1661024085016102208601611aa7565b6001600160401b031614610d3d5760405163e112ed9160e01b815260040160405180910390fd5b8060085f610d516080870160608801611941565b63ffffffff16815260208082019290925260409081015f908120805467ffffffffffffffff19166001600160401b03959095169490941790935560c0860135835260079091529020546001600160801b03168015801590610dd457506001600160801b038116610dc961014086016101208701611a78565b6001600160801b0316115b15610df257604051633e67939b60e11b815260040160405180910390fd5b60c08401355f908152600560205260409020546001600160801b03168015610eda575f610e226201518042611cc2565b90505f610e3761014088016101208901611a78565b60c08801355f908152600a60209081526040808320868452909152902054610e6891906001600160801b0316611ce1565b9050826001600160801b0316816001600160801b03161115610e9d576040516319a6616560e31b815260040160405180910390fd5b60c08701355f908152600a602090815260408083209483529390529190912080546001600160801b0319166001600160801b039092169190911790555b5f610ef2610eed36889003880188611b16565b61102a565b905060c0860135610f096080880160608901611941565b63ffffffff16867f4606f3bc65fa208233667f645c8b4a701a40b64c42192b85d741b8ed4c3bb862610f436101408b016101208c01611a78565b610f556102408c016102208d01611aa7565b86604051610f6593929190611d23565b60405180910390a4505050505050565b7f9b779b17422d0df92223018b32b4d1fa46e071723d6817e2486d003becc55f005460020361066557604051633ee5aeb560e01b815260040160405180910390fd5b5f80610fc28361102a565b90506040518060400160405280601f81526020017f57484954455f505249564154455f4252494447455f4d4553534147455f5631008152508160405160200161100c929190611d75565b60405160208183030381529060405280519060200120915050919050565b60606110358261159b565b604080516101c380825261020082019092525f916020820181803683370190505083519091505f9060f01b6001600160f81b031916828261107581611da3565b93508151811061108757611087611dbb565b60200101906001600160f81b03191690815f1a905350835160f81b82826110ad81611da3565b9350815181106110bf576110bf611dbb565b60200101906001600160f81b03191690815f1a905350602084015160f81b82826110e881611da3565b9350815181106110fa576110fa611dbb565b60200101906001600160f81b03191690815f1a905350604084015160e01b6001600160f81b031916828261112d81611da3565b93508151811061113f5761113f611dbb565b60200101906001600160f81b03191690815f1a905350604084015160e81b6001600160f81b031916828261117281611da3565b93508151811061118457611184611dbb565b60200101906001600160f81b03191690815f1a905350604084015160f01b6001600160f81b03191682826111b781611da3565b9350815181106111c9576111c9611dbb565b60200101906001600160f81b03191690815f1a905350604084015160f81b82826111f281611da3565b93508151811061120457611204611dbb565b60200101906001600160f81b03191690815f1a905350606084015160e01b6001600160f81b031916828261123781611da3565b93508151811061124957611249611dbb565b60200101906001600160f81b03191690815f1a905350606084015160e81b6001600160f81b031916828261127c81611da3565b93508151811061128e5761128e611dbb565b60200101906001600160f81b03191690815f1a905350606084015160f01b6001600160f81b03191682826112c181611da3565b9350815181106112d3576112d3611dbb565b60200101906001600160f81b03191690815f1a905350606084015160f81b82826112fc81611da3565b93508151811061130e5761130e611dbb565b60200101906001600160f81b03191690815f1a90535061133382828660800151611810565b61133e600882611dcf565b905061134f82828660a00151611810565b61135a600882611dcf565b60c0850151602084830101529050611373602082611dcf565b60e085015160208483010152905061138c602082611dcf565b6101008501516020848301015290506113a6602082611dcf565b90506113b88282866101200151611889565b6113c3601082611dcf565b6101408501516020848301015290506113dd602082611dcf565b6101608501516020848301015290506113f7602082611dcf565b610180850151602084830101529050611411602082611dcf565b90506114238282866101a00151611810565b61142e600882611dcf565b6101c0850151602084830101529050611448602082611dcf565b905061145a8282866101e00151611810565b611465600882611dcf565b90506114778282866102000151611810565b611482600882611dcf565b90506114948282866102200151611810565b61149f600882611dcf565b90506114b18282866102400151611810565b6114bc600882611dcf565b90506114ce8282866102600151611889565b6114d9601082611dcf565b6102808501516020848301015290506114f3602082611dcf565b6102a085015160208483010152905061150d602082611dcf565b6102c0850151602084830101529050611527602082611dcf565b6102e0850151602084830101529050611541602082611dcf565b90506101c381146115945760405162461bcd60e51b815260206004820152601860248201527f456e636f64696e67206c656e677468206d69736d617463680000000000000000604482015260640161090b565b5092915050565b805161ffff166001146115d157805160405163d566816360e01b815261ffff90911660048201526001602482015260440161090b565b602081015160ff166001148015906115f15750602081015160ff16600214155b1561161a5760208101516040516305bf7a5960e51b815260ff909116600482015260240161090b565b806040015163ffffffff165f036116635760405163160a1aff60e01b815260206004820152600c60248201526b39b7bab931b2a237b6b0b4b760a11b604482015260640161090b565b806060015163ffffffff165f036116b15760405163160a1aff60e01b81526020600482015260116024820152703232b9ba34b730ba34b7b72237b6b0b4b760791b604482015260640161090b565b806060015163ffffffff16816040015163ffffffff16036116e55760405163aa68646360e01b815260040160405180910390fd5b8061012001516001600160801b03165f0361171357604051631f2a200560e01b815260040160405180910390fd5b8061024001516001600160401b03165f036117415760405163f728a30560e01b815260040160405180910390fd5b60c081015161176357604051632483b04760e11b815260040160405180910390fd5b602081015160ff16600114801561177d5750610160810151155b1561179b576040516308546ec960e11b815260040160405180910390fd5b602081015160ff1660011480156117b55750610140810151155b156117d3576040516307f5903160e41b815260040160405180910390fd5b806101e001516001600160401b03168161020001516001600160401b0316101561072c57604051631ef2c12360e11b815260040160405180910390fd5b5f5b600881101561188357611826816008611de8565b611831906038611dff565b6001600160401b038316901c60f81b8461184b8386611dcf565b8151811061185b5761185b611dbb565b60200101906001600160f81b03191690815f1a9053508061187b81611da3565b915050611812565b50505050565b5f5b60108110156118835761189f816008611de8565b6118aa906078611dff565b6001600160801b038316901c60f81b846118c48386611dcf565b815181106118d4576118d4611dbb565b60200101906001600160f81b03191690815f1a905350806118f481611da3565b91505061188b565b5f6020828403121561190c575f80fd5b81356001600160a01b0381168114611922575f80fd5b9392505050565b803563ffffffff8116811461193c575f80fd5b919050565b5f60208284031215611951575f80fd5b61192282611929565b5f6020828403121561196a575f80fd5b5035919050565b80356001600160801b038116811461193c575f80fd5b5f8060408385031215611998575f80fd5b823591506119a860208401611971565b90509250929050565b8035801515811461193c575f80fd5b5f805f606084860312156119d2575f80fd5b6119db84611929565b92506119e960208501611929565b91506119f7604085016119b1565b90509250925092565b5f8060408385031215611a11575f80fd5b50508035926020909101359150565b5f60208284031215611a30575f80fd5b611922826119b1565b5f6103008284031215611a4a575f80fd5b50919050565b5f8060408385031215611a61575f80fd5b611a6a83611929565b91506119a860208401611929565b5f60208284031215611a88575f80fd5b61192282611971565b80356001600160401b038116811461193c575f80fd5b5f60208284031215611ab7575f80fd5b61192282611a91565b60405161030081016001600160401b0381118282101715611aef57634e487b7160e01b5f52604160045260245ffd5b60405290565b803561ffff8116811461193c575f80fd5b803560ff8116811461193c575f80fd5b5f6103008284031215611b27575f80fd5b611b2f611ac0565b611b3883611af5565b8152611b4660208401611b06565b6020820152611b5760408401611929565b6040820152611b6860608401611929565b6060820152611b7960808401611a91565b6080820152611b8a60a08401611a91565b60a082015260c083013560c082015260e083013560e0820152610100808401358183015250610120611bbd818501611971565b908201526101408381013590820152610160808401359082015261018080840135908201526101a0611bf0818501611a91565b908201526101c083810135908201526101e0611c0d818501611a91565b90820152610200611c1f848201611a91565b90820152610220611c31848201611a91565b90820152610240611c43848201611a91565b90820152610260611c55848201611971565b9082015261028083810135908201526102a080840135908201526102c080840135908201526102e0928301359281019290925250919050565b634e487b7160e01b5f52601160045260245ffd5b6001600160401b0381811683821601908082111561159457611594611c8e565b5f82611cdc57634e487b7160e01b5f52601260045260245ffd5b500490565b6001600160801b0381811683821601908082111561159457611594611c8e565b5f5b83811015611d1b578181015183820152602001611d03565b50505f910152565b6001600160801b03841681526001600160401b0383166020820152606060408201525f8251806060840152611d5f816080850160208701611d01565b601f01601f191691909101608001949350505050565b5f8351611d86818460208801611d01565b835190830190611d9a818360208801611d01565b01949350505050565b5f60018201611db457611db4611c8e565b5060010190565b634e487b7160e01b5f52603260045260245ffd5b80820180821115611de257611de2611c8e565b92915050565b8082028115828204841417611de257611de2611c8e565b81810381811115611de257611de2611c8e56fea2646970667358221220aa58e6ed7d1180f4adf1208872d1b08b5b28686ccdfbc973b25c11408ff5162164736f6c634300081400330000000000000000000000002abd0d224775fb9140c04f12c3838af95847a97c0000000000000000000000000000000000000000000000000000000002000006",
        "nonce": "0x13",
        "chainId": "0x61"
      },
      "additionalContracts": [],
      "isFixedGasLimit": false
    },
    {
      "hash": "0xafc861e155c79bc8488b6deda02fb8b12996fd1a05b490771cd3d8f3631799e5",
      "transactionType": "CREATE",
      "contractName": "BridgeInbox",
      "contractAddress": "0xa25649a0f7dd8285975e2ee99078bb8570713ae0",
      "function": null,
      "arguments": [
        "0x2ABd0D224775Fb9140c04f12c3838Af95847A97c",
        "33554438"
      ],
      "transaction": {
        "from": "0x2abd0d224775fb9140c04f12c3838af95847a97c",
        "gas": "0x30bbb9",
        "value": "0x0",
        "input": "0x60a060405234801562000010575f80fd5b5060405162002bde38038062002bde8339810160408190526200003391620000f1565b816001600160a01b0381166200006257604051631e4fbdf760e01b81525f600482015260240160405180910390fd5b6200006d81620000a2565b5060017f9b779b17422d0df92223018b32b4d1fa46e071723d6817e2486d003becc55f005563ffffffff16608052506200013f565b5f80546001600160a01b038381166001600160a01b0319831681178455604051919092169283917f8be0079c531659141344cd1fd0a4f28419497f9722a3daafe3b4186f6b6457e09190a35050565b5f806040838503121562000103575f80fd5b82516001600160a01b03811681146200011a575f80fd5b602084015190925063ffffffff8116811462000134575f80fd5b809150509250929050565b608051612a7f6200015f5f395f81816104360152610c140152612a7f5ff3fe608060405234801561000f575f80fd5b5060043610610234575f3560e01c80638da5cb5b11610135578063cfb24bf8116100b4578063de4c41ca11610079578063de4c41ca14610611578063df03917014610639578063f2fde38b14610661578063fcff047314610674578063fed0a26f14610687575f80fd5b8063cfb24bf81461056b578063d297029c1461058d578063d44fa33e146105af578063d59c96b7146105d1578063db23809d146105e4575f80fd5b8063ad72c52c116100fa578063ad72c52c146104f3578063b299804a14610506578063b751251414610519578063bfe291df1461052c578063ce8e8c5814610543575f80fd5b80638da5cb5b1461046d5780638f7a25fe1461047d5780639bb3a5dd146104905780639e0bbd9f146104b8578063a9657757146104cb575f80fd5b806359e9ab1a116101c157806376cad8341161018657806376cad834146103ba57806378c86daf146103cd578063891bad80146103e0578063897d6713146103f35780638d3638f414610431575f80fd5b806359e9ab1a1461034e57806361a552dc146103615780636ee21cac14610374578063715018a61461039f578063734ea8bc146103a7575f80fd5b806329d1c26b1161020757806329d1c26b146102d15780632e6d05a8146102e4578063307addfe146103065780633c625b6614610319578063470feb871461032c575f80fd5b806301f5e1fb1461023857806308aa67971461026f5780630f678e361461029157806325a13b49146102a6575b5f80fd5b61025a61024636600461239f565b600a6020525f908152604090205460ff1681565b60405190151581526020015b60405180910390f35b61025a61027d36600461239f565b600b6020525f908152604090205460ff1681565b6102a461029f3660046123d1565b6106ba565b005b6001546102b9906001600160801b031681565b6040516001600160801b039091168152602001610266565b6102a46102df36600461239f565b6106e4565b61025a6102f23660046123fd565b60046020525f908152604090205460ff1681565b6102a461031436600461242c565b61072e565b6102a461032736600461248c565b61078c565b61025a61033a36600461239f565b5f908152600a602052604090205460ff1690565b6102a461035c3660046124e2565b61084c565b5f5461025a90600160a01b900460ff1681565b600c54610387906001600160a01b031681565b6040516001600160a01b039091168152602001610266565b6102a46108bd565b6102a46103b536600461239f565b6108d0565b6102a46103c8366004612522565b61091a565b6102a46103db36600461253b565b610979565b6102a46103ee366004612565565b6109c3565b61041c61040136600461239f565b600260208190525f9182526040909120600181015491015482565b60408051928352602083019190915201610266565b6104587f000000000000000000000000000000000000000000000000000000000000000081565b60405163ffffffff9091168152602001610266565b5f546001600160a01b0316610387565b6102a461048b3660046123fd565b610a2f565b6102b961049e36600461239f565b60106020525f90815260409020546001600160801b031681565b6102a46104c63660046123fd565b610a7f565b6103876104d936600461239f565b600d6020525f90815260409020546001600160a01b031681565b6102a4610501366004612565565b610acc565b6102a4610514366004612565565b610b30565b6102a461052736600461239f565b610b94565b61053560035481565b604051908152602001610266565b6102b961055136600461239f565b60076020525f90815260409020546001600160801b031681565b61025a61057936600461239f565b5f908152600b602052604090205460ff1690565b61025a61059b36600461239f565b600e6020525f908152604090205460ff1681565b61025a6105bd36600461239f565b60066020525f908152604090205460ff1681565b6102a46105df366004612586565b610bdb565b61025a6105f23660046125e5565b600560209081525f928352604080842090915290825290205460ff1681565b6102b961061f36600461239f565b60096020525f90815260409020546001600160801b031681565b6102b961064736600461239f565b60086020525f90815260409020546001600160801b031681565b6102a461066f3660046123d1565b611317565b6102a461068236600461239f565b611354565b6102b961069536600461260d565b600f60209081525f92835260408084209091529082529020546001600160801b031681565b6106c261139b565b600c80546001600160a01b0319166001600160a01b0392909216919091179055565b6106ec61139b565b5f81815260066020526040808220805460ff191660011790555182917fe7019739d91346eb9e4a6525783e16c9659c2d355c6e504e85c56d1576a42a3f91a250565b61073661139b565b600180546001600160801b0319166001600160801b0383169081179091556040519081525f907f5dbe605896cb1ee1389b209a0364bdf95efff4a597c3a34b05b3f7be8c16ef519060200160405180910390a250565b61079461139b565b6107d18383808060200260200160405190810160405280939291908181526020018383602002808284375f920191909152508592506113c7915050565b5f60035460016107e19190612641565b60038190555f81815260026020526040902090915061080181868661232a565b50600181018390556002810182905560405183815282907f88a37b7f98ed76ab52b5cad554c460e484bf2fe62d8cbc9610d1ef83b62c3e4b9060200160405180910390a25050505050565b61085461139b565b63ffffffff8381165f81815260056020908152604080832094871680845294825291829020805460ff191686151590811790915591519182527fc2cc693957e0dedee1b9c1fb5cc5e3dd8686fbe8cc87514deafba93836d88434910160405180910390a3505050565b6108c561139b565b6108ce5f611526565b565b6108d861139b565b5f818152600b6020526040808220805460ff191660011790555182917f3a7e2f377f2cf35efb71990c4ffd73e2f4d6ded782b697446d65a60b106aa0c391a250565b61092261139b565b5f8054821515600160a01b0260ff60a01b199091161790556040517f256bf8e8b40cbfb88946b4d95d17bf45cb52d93ba9d2f767df67c6c15f0253f79061096e90831515815260200190565b60405180910390a150565b61098161139b565b5f918252600d6020908152604080842080546001600160a01b0319166001600160a01b039490941693909317909255600e90529020805460ff19166001179055565b6109cb61139b565b5f8281526009602090815260409182902080546001600160801b0319166001600160801b038516908117909155915191825283917fadca0b8792a4724d673614590b704b591e207730ea48fcd3eed067bd9bfa3be891015b60405180910390a25050565b610a3761139b565b63ffffffff81165f81815260046020526040808220805460ff19166001179055517f5bf2630de04acf68404978bfc90d2e25430c41148cc9d06f7547926cc41114e39190a250565b610a8761139b565b63ffffffff81165f81815260046020526040808220805460ff19169055517f52be441fc39e7e2726b04c1106a4ac631582b01be870630dba8c23cd8fbf8fa19190a250565b610ad461139b565b5f8281526008602090815260409182902080546001600160801b0319166001600160801b038516908117909155915191825283917f5dbe605896cb1ee1389b209a0364bdf95efff4a597c3a34b05b3f7be8c16ef519101610a23565b610b3861139b565b5f8281526007602090815260409182902080546001600160801b0319166001600160801b038516908117909155915191825283917f331ce957b83ed02d6afee380cba159ab824a8280ca085d71dec9b50e38e130569101610a23565b610b9c61139b565b5f818152600b6020526040808220805460ff191690555182917f9d1221a39d80151ff5784e76d45efbbcaa9f2c1dda1b57ffbaee926b5583954591a250565b610be3611575565b5f54600160a01b900460ff1615610c0d57604051638bee704f60e01b815260040160405180910390fd5b63ffffffff7f000000000000000000000000000000000000000000000000000000000000000016610c4460808601606087016123fd565b63ffffffff1614610c6857604051632cebb6b160e21b815260040160405180910390fd5b610c7860808501606086016123fd565b63ffffffff16610c8e60608601604087016123fd565b63ffffffff1603610cb25760405163aa68646360e01b815260040160405180910390fd5b60045f610cc560608701604088016123fd565b63ffffffff16815260208101919091526040015f205460ff16610d1957610cf260608501604086016123fd565b60405163150bc7fb60e31b815263ffffffff90911660048201526024015b60405180910390fd5b60055f610d2c60608701604088016123fd565b63ffffffff16815260208101919091526040015f90812090610d5460808701606088016123fd565b63ffffffff16815260208101919091526040015f205460ff1615610d8b5760405163cc293e6760e01b815260040160405180910390fd5b60c08401355f9081526006602052604090205460ff16610dbe5760405163981a2a2b60e01b815260040160405180910390fd5b610dd06101408501610120860161242c565b6001600160801b03165f03610df8576040516365e52d5160e11b815260040160405180910390fd5b42610e0b6102608601610240870161266a565b6001600160401b03161015610e3357604051631ab7da6b60e01b815260040160405180910390fd5b5f610e4b610e4636879003870187612711565b6115a3565b5f818152600a602052604090205490915060ff1615610e7d57604051631a74436f60e11b815260040160405180910390fd5b5f818152600b602052604090205460ff1615610eac57604051633ca341e560e01b815260040160405180910390fd5b6003548214610ece57604051630bab494760e41b815260040160405180910390fd5b5f828152600260205260409020610f6782610ee98688612889565b60408051855460806020820283018101909352606082018181529192879284929091849190840182828015610f4557602002820191905f5260205f20905b81546001600160a01b03168152600190910190602001808311610f27575b5050505050815260200160018201548152602001600282015481525050611616565b5060c08601355f908152600960205260409020546001600160801b03168015801590610fb557506001600160801b038116610faa61014089016101208a0161242c565b6001600160801b0316115b15610fd357604051633e67939b60e11b815260040160405180910390fd5b5f610fe16201518042612957565b60c08901355f908152600860205260409020549091506001600160801b031680156110bb575f6110196101408b016101208c0161242c565b60c08b01355f908152600f6020908152604080832087845290915290205461104a91906001600160801b0316612976565b9050816001600160801b0316816001600160801b0316111561107f5760405163055f9e4d60e41b815260040160405180910390fd5b60c08a01355f908152600f60209081526040808320868452909152902080546001600160801b0319166001600160801b03929092169190911790555b6001546001600160801b03161561115f575f6110df6101408b016101208c0161242c565b5f8481526010602052604090205461110091906001600160801b0316612976565b6001549091506001600160801b03908116908216111561113357604051634812fb7160e11b815260040160405180910390fd5b5f83815260106020526040902080546001600160801b0319166001600160801b03929092169190911790555b60c08901355f908152600e602052604090205460ff16611192576040516335cd0e1f60e01b815260040160405180910390fd5b60c08901355f908152600d6020526040902054600c546001600160a01b03918216911663f661e631826111cd6101408e016101208f0161242c565b6040516001600160e01b031960e085901b1681526001600160a01b0390921660048301526001600160801b031660248201526101608d013560448201526064015f604051808303815f87803b158015611224575f80fd5b505af1158015611236573d5f803e3d5ffd5b505050506001600a5f8881526020019081526020015f205f6101000a81548160ff0219169083151502179055508960c001358a6101600135877f662336832bc4c001ee756bff920a193cd7905cd97fae42597c27d94e42b67fde8d6101200160208101906112a4919061242c565b8e6102200160208101906112b8919061266a565b604080516001600160801b0390931683526001600160401b0390911660208301520160405180910390a450505050505061131160017f9b779b17422d0df92223018b32b4d1fa46e071723d6817e2486d003becc55f0055565b50505050565b61131f61139b565b6001600160a01b03811661134857604051631e4fbdf760e01b81525f6004820152602401610d10565b61135181611526565b50565b61135c61139b565b5f81815260066020526040808220805460ff191690555182917f0f0d13a46c2eec76f3c5a974f20aea6ef7128eae40258bb2adfaf76de73116e391a250565b5f546001600160a01b031633146108ce5760405163118cdaa760e01b8152336004820152602401610d10565b81515f036113e8576040516365607ec160e11b815260040160405180910390fd5b805f036114085760405163aabd5a0960e01b815260040160405180910390fd5b815181111561142a5760405163aabd5a0960e01b815260040160405180910390fd5b5f5b8251811015611521575f6001600160a01b031683828151811061145157611451612996565b60200260200101516001600160a01b0316036114805760405163e5c48ac560e01b815260040160405180910390fd5b5f61148c826001612641565b90505b835181101561150e578381815181106114aa576114aa612996565b60200260200101516001600160a01b03168483815181106114cd576114cd612996565b60200260200101516001600160a01b0316036114fc57604051638044bb3360e01b815260040160405180910390fd5b80611506816129aa565b91505061148f565b5080611519816129aa565b91505061142c565b505050565b5f80546001600160a01b038381166001600160a01b0319831681178455604051919092169283917f8be0079c531659141344cd1fd0a4f28419497f9722a3daafe3b4186f6b6457e09190a35050565b61157d6117c2565b60027f9b779b17422d0df92223018b32b4d1fa46e071723d6817e2486d003becc55f0055565b5f806115ae83611804565b90506040518060400160405280601f81526020017f57484954455f505249564154455f4252494447455f4d4553534147455f563100815250816040516020016115f89291906129ef565b60405160208183030381529060405280519060200120915050919050565b8051515f90810361163a576040516365607ec160e11b815260040160405180910390fd5b81602001515f0361165e5760405163aabd5a0960e01b815260040160405180910390fd5b815151602083015111156116855760405163aabd5a0960e01b815260040160405180910390fd5b8160200151835110156116ab576040516359fa4a9360e01b815260040160405180910390fd5b505f80805b84518110156117a1575f6116e68683815181106116cf576116cf612996565b602002602001015188611d7590919063ffffffff16565b90506001600160a01b03811661170f57604051638baa579f60e01b815260040160405180910390fd5b826001600160a01b0316816001600160a01b031611611741576040516301eba55160e01b815260040160405180910390fd5b61174e81865f0151611d9f565b61176b57604051632057875960e21b815260040160405180910390fd5b91508183611778816129aa565b9450508460200151841061178e575050506117bb565b5080611799816129aa565b9150506116b0565b506040516359fa4a9360e01b815260040160405180910390fd5b9392505050565b7f9b779b17422d0df92223018b32b4d1fa46e071723d6817e2486d003becc55f00546002036108ce57604051633ee5aeb560e01b815260040160405180910390fd5b606061180f82611e02565b604080516101c380825261020082019092525f916020820181803683370190505083519091505f9060f01b6001600160f81b031916828261184f816129aa565b93508151811061186157611861612996565b60200101906001600160f81b03191690815f1a905350835160f81b8282611887816129aa565b93508151811061189957611899612996565b60200101906001600160f81b03191690815f1a905350602084015160f81b82826118c2816129aa565b9350815181106118d4576118d4612996565b60200101906001600160f81b03191690815f1a905350604084015160e01b6001600160f81b0319168282611907816129aa565b93508151811061191957611919612996565b60200101906001600160f81b03191690815f1a905350604084015160e81b6001600160f81b031916828261194c816129aa565b93508151811061195e5761195e612996565b60200101906001600160f81b03191690815f1a905350604084015160f01b6001600160f81b0319168282611991816129aa565b9350815181106119a3576119a3612996565b60200101906001600160f81b03191690815f1a905350604084015160f81b82826119cc816129aa565b9350815181106119de576119de612996565b60200101906001600160f81b03191690815f1a905350606084015160e01b6001600160f81b0319168282611a11816129aa565b935081518110611a2357611a23612996565b60200101906001600160f81b03191690815f1a905350606084015160e81b6001600160f81b0319168282611a56816129aa565b935081518110611a6857611a68612996565b60200101906001600160f81b03191690815f1a905350606084015160f01b6001600160f81b0319168282611a9b816129aa565b935081518110611aad57611aad612996565b60200101906001600160f81b03191690815f1a905350606084015160f81b8282611ad6816129aa565b935081518110611ae857611ae8612996565b60200101906001600160f81b03191690815f1a905350611b0d82828660800151612077565b611b18600882612641565b9050611b2982828660a00151612077565b611b34600882612641565b60c0850151602084830101529050611b4d602082612641565b60e0850151602084830101529050611b66602082612641565b610100850151602084830101529050611b80602082612641565b9050611b9282828661012001516120ea565b611b9d601082612641565b610140850151602084830101529050611bb7602082612641565b610160850151602084830101529050611bd1602082612641565b610180850151602084830101529050611beb602082612641565b9050611bfd8282866101a00151612077565b611c08600882612641565b6101c0850151602084830101529050611c22602082612641565b9050611c348282866101e00151612077565b611c3f600882612641565b9050611c518282866102000151612077565b611c5c600882612641565b9050611c6e8282866102200151612077565b611c79600882612641565b9050611c8b8282866102400151612077565b611c96600882612641565b9050611ca882828661026001516120ea565b611cb3601082612641565b610280850151602084830101529050611ccd602082612641565b6102a0850151602084830101529050611ce7602082612641565b6102c0850151602084830101529050611d01602082612641565b6102e0850151602084830101529050611d1b602082612641565b90506101c38114611d6e5760405162461bcd60e51b815260206004820152601860248201527f456e636f64696e67206c656e677468206d69736d6174636800000000000000006044820152606401610d10565b5092915050565b5f805f80611d83868661215d565b925092509250611d9382826121a6565b50909150505b92915050565b5f805b8251811015611df957836001600160a01b0316838281518110611dc757611dc7612996565b60200260200101516001600160a01b031603611de7576001915050611d99565b80611df1816129aa565b915050611da2565b505f9392505050565b805161ffff16600114611e3857805160405163d566816360e01b815261ffff909116600482015260016024820152604401610d10565b602081015160ff16600114801590611e585750602081015160ff16600214155b15611e815760208101516040516305bf7a5960e51b815260ff9091166004820152602401610d10565b806040015163ffffffff165f03611eca5760405163160a1aff60e01b815260206004820152600c60248201526b39b7bab931b2a237b6b0b4b760a11b6044820152606401610d10565b806060015163ffffffff165f03611f185760405163160a1aff60e01b81526020600482015260116024820152703232b9ba34b730ba34b7b72237b6b0b4b760791b6044820152606401610d10565b806060015163ffffffff16816040015163ffffffff1603611f4c5760405163aa68646360e01b815260040160405180910390fd5b8061012001516001600160801b03165f03611f7a57604051631f2a200560e01b815260040160405180910390fd5b8061024001516001600160401b03165f03611fa85760405163f728a30560e01b815260040160405180910390fd5b60c0810151611fca57604051632483b04760e11b815260040160405180910390fd5b602081015160ff166001148015611fe45750610160810151155b15612002576040516308546ec960e11b815260040160405180910390fd5b602081015160ff16600114801561201c5750610140810151155b1561203a576040516307f5903160e41b815260040160405180910390fd5b806101e001516001600160401b03168161020001516001600160401b0316101561135157604051631ef2c12360e11b815260040160405180910390fd5b5f5b60088110156113115761208d816008612a0b565b612098906038612a22565b6001600160401b038316901c60f81b846120b28386612641565b815181106120c2576120c2612996565b60200101906001600160f81b03191690815f1a905350806120e2816129aa565b915050612079565b5f5b601081101561131157612100816008612a0b565b61210b906078612a22565b6001600160801b038316901c60f81b846121258386612641565b8151811061213557612135612996565b60200101906001600160f81b03191690815f1a90535080612155816129aa565b9150506120ec565b5f805f8351604103612194576020840151604085015160608601515f1a61218688828585612262565b95509550955050505061219f565b505081515f91506002905b9250925092565b5f8260038111156121b9576121b9612a35565b036121c2575050565b60018260038111156121d6576121d6612a35565b036121f45760405163f645eedf60e01b815260040160405180910390fd5b600282600381111561220857612208612a35565b036122295760405163fce698f760e01b815260048101829052602401610d10565b600382600381111561223d5761223d612a35565b0361225e576040516335e2f38360e21b815260048101829052602401610d10565b5050565b5f80807f7fffffffffffffffffffffffffffffff5d576e7357a4501ddfe92f46681b20a084111561229b57505f91506003905082612320565b604080515f808252602082018084528a905260ff891692820192909252606081018790526080810186905260019060a0016020604051602081039080840390855afa1580156122ec573d5f803e3d5ffd5b5050604051601f1901519150506001600160a01b03811661231757505f925060019150829050612320565b92505f91508190505b9450945094915050565b828054828255905f5260205f2090810192821561237b579160200282015b8281111561237b5781546001600160a01b0319166001600160a01b03843516178255602090920191600190910190612348565b5061238792915061238b565b5090565b5b80821115612387575f815560010161238c565b5f602082840312156123af575f80fd5b5035919050565b80356001600160a01b03811681146123cc575f80fd5b919050565b5f602082840312156123e1575f80fd5b6117bb826123b6565b803563ffffffff811681146123cc575f80fd5b5f6020828403121561240d575f80fd5b6117bb826123ea565b80356001600160801b03811681146123cc575f80fd5b5f6020828403121561243c575f80fd5b6117bb82612416565b5f8083601f840112612455575f80fd5b5081356001600160401b0381111561246b575f80fd5b6020830191508360208260051b8501011115612485575f80fd5b9250929050565b5f805f6040848603121561249e575f80fd5b83356001600160401b038111156124b3575f80fd5b6124bf86828701612445565b909790965060209590950135949350505050565b803580151581146123cc575f80fd5b5f805f606084860312156124f4575f80fd5b6124fd846123ea565b925061250b602085016123ea565b9150612519604085016124d3565b90509250925092565b5f60208284031215612532575f80fd5b6117bb826124d3565b5f806040838503121561254c575f80fd5b8235915061255c602084016123b6565b90509250929050565b5f8060408385031215612576575f80fd5b8235915061255c60208401612416565b5f805f8084860361034081121561259b575f80fd5b610300808212156125aa575f80fd5b86955085013590506001600160401b038111156125c5575f80fd5b6125d187828801612445565b959890975094956103200135949350505050565b5f80604083850312156125f6575f80fd5b6125ff836123ea565b915061255c602084016123ea565b5f806040838503121561261e575f80fd5b50508035926020909101359150565b634e487b7160e01b5f52601160045260245ffd5b80820180821115611d9957611d9961262d565b80356001600160401b03811681146123cc575f80fd5b5f6020828403121561267a575f80fd5b6117bb82612654565b634e487b7160e01b5f52604160045260245ffd5b60405161030081016001600160401b03811182821017156126ba576126ba612683565b60405290565b604051601f8201601f191681016001600160401b03811182821017156126e8576126e8612683565b604052919050565b803561ffff811681146123cc575f80fd5b803560ff811681146123cc575f80fd5b5f6103008284031215612722575f80fd5b61272a612697565b612733836126f0565b815261274160208401612701565b6020820152612752604084016123ea565b6040820152612763606084016123ea565b606082015261277460808401612654565b608082015261278560a08401612654565b60a082015260c083013560c082015260e083013560e08201526101008084013581830152506101206127b8818501612416565b908201526101408381013590820152610160808401359082015261018080840135908201526101a06127eb818501612654565b908201526101c083810135908201526101e0612808818501612654565b9082015261020061281a848201612654565b9082015261022061282c848201612654565b9082015261024061283e848201612654565b90820152610260612850848201612416565b9082015261028083810135908201526102a080840135908201526102c080840135908201526102e0928301359281019290925250919050565b5f6001600160401b03808411156128a2576128a2612683565b8360051b60206128b38183016126c0565b8681529185019181810190368411156128ca575f80fd5b865b8481101561294b578035868111156128e3575f8081fd5b8801601f36818301126128f5575f8081fd5b81358881111561290757612907612683565b612918818301601f191688016126c0565b9150808252368782850101111561292e575f8081fd5b80878401888401375f9082018701528452509183019183016128cc565b50979650505050505050565b5f8261297157634e487b7160e01b5f52601260045260245ffd5b500490565b6001600160801b03818116838216019080821115611d6e57611d6e61262d565b634e487b7160e01b5f52603260045260245ffd5b5f600182016129bb576129bb61262d565b5060010190565b5f81515f5b818110156129e157602081850181015186830152016129c7565b505f93019283525090919050565b5f612a036129fd83866129c2565b846129c2565b949350505050565b8082028115828204841417611d9957611d9961262d565b81810381811115611d9957611d9961262d565b634e487b7160e01b5f52602160045260245ffdfea2646970667358221220af66daa93ef35ae34c6a2aeec6038810c99f0bec8b07dcce7dc828110ce0f69c64736f6c634300081400330000000000000000000000002abd0d224775fb9140c04f12c3838af95847a97c0000000000000000000000000000000000000000000000000000000002000006",
        "nonce": "0x14",
        "chainId": "0x61"
      },
      "additionalContracts": [],
      "isFixedGasLimit": false
    },
    {
      "hash": "0x50dd31305e4d3a882f4a5d64b06fb63833be2154ff86559d4290cb3bc3561012",
      "transactionType": "CALL",
      "contractName": "BridgeOutbox",
      "contractAddress": "0x7bb65ed3928fd2143dc16475d1292833ed01a679",
      "function": "enableRoute(uint32)",
      "arguments": [
        "33554434"
      ],
      "transaction": {
        "from": "0x2abd0d224775fb9140c04f12c3838af95847a97c",
        "to": "0x7bb65ed3928fd2143dc16475d1292833ed01a679",
        "gas": "0x10ced",
        "value": "0x0",
        "input": "0x8f7a25fe0000000000000000000000000000000000000000000000000000000002000002",
        "nonce": "0x15",
        "chainId": "0x61"
      },
      "additionalContracts": [],
      "isFixedGasLimit": false
    },
    {
      "hash": "0x58afb539ad43aa8dfd74e29d8d16aee0ca48d582ce8e0c397c6316e993b516fc",
      "transactionType": "CALL",
      "contractName": "BridgeOutbox",
      "contractAddress": "0x7bb65ed3928fd2143dc16475d1292833ed01a679",
      "function": "enableRoute(uint32)",
      "arguments": [
        "33554435"
      ],
      "transaction": {
        "from": "0x2abd0d224775fb9140c04f12c3838af95847a97c",
        "to": "0x7bb65ed3928fd2143dc16475d1292833ed01a679",
        "gas": "0x10ced",
        "value": "0x0",
        "input": "0x8f7a25fe0000000000000000000000000000000000000000000000000000000002000003",
        "nonce": "0x16",
        "chainId": "0x61"
      },
      "additionalContracts": [],
      "isFixedGasLimit": false
    },
    {
      "hash": "0x57c520b2c223ad5297ebf305f5da8b5acdd1797a92b9d7d14d4fd2b79b1c11c9",
      "transactionType": "CALL",
      "contractName": "BridgeOutbox",
      "contractAddress": "0x7bb65ed3928fd2143dc16475d1292833ed01a679",
      "function": "enableRoute(uint32)",
      "arguments": [
        "33554436"
      ],
      "transaction": {
        "from": "0x2abd0d224775fb9140c04f12c3838af95847a97c",
        "to": "0x7bb65ed3928fd2143dc16475d1292833ed01a679",
        "gas": "0x10ced",
        "value": "0x0",
        "input": "0x8f7a25fe0000000000000000000000000000000000000000000000000000000002000004",
        "nonce": "0x17",
        "chainId": "0x61"
      },
      "additionalContracts": [],
      "isFixedGasLimit": false
    },
    {
      "hash": "0x9dcd62add9bb1eee736e9a67298362c337a1d2623980e10910be7efa4cf10157",
      "transactionType": "CALL",
      "contractName": "BridgeOutbox",
      "contractAddress": "0x7bb65ed3928fd2143dc16475d1292833ed01a679",
      "function": "supportAsset(bytes32)",
      "arguments": [
        "0x003c47f9788b071eb07d4801002c61a12dd3cc24d49b37b912483377b9a0d9cf"
      ],
      "transaction": {
        "from": "0x2abd0d224775fb9140c04f12c3838af95847a97c",
        "to": "0x7bb65ed3928fd2143dc16475d1292833ed01a679",
        "gas": "0xff66",
        "value": "0x0",
        "input": "0x29d1c26b003c47f9788b071eb07d4801002c61a12dd3cc24d49b37b912483377b9a0d9cf",
        "nonce": "0x18",
        "chainId": "0x61"
      },
      "additionalContracts": [],
      "isFixedGasLimit": false
    },
    {
      "hash": "0x5fef16606c1ce29de2a188f5e23dd9904c62ce02e3778add8509c6f4a19677fb",
      "transactionType": "CALL",
      "contractName": "BridgeOutbox",
      "contractAddress": "0x7bb65ed3928fd2143dc16475d1292833ed01a679",
      "function": "setMaxMessageAmount(bytes32,uint128)",
      "arguments": [
        "0x003c47f9788b071eb07d4801002c61a12dd3cc24d49b37b912483377b9a0d9cf",
        "10000000000000000000"
      ],
      "transaction": {
        "from": "0x2abd0d224775fb9140c04f12c3838af95847a97c",
        "to": "0x7bb65ed3928fd2143dc16475d1292833ed01a679",
        "gas": "0x102fc",
        "value": "0x0",
        "input": "0x891bad80003c47f9788b071eb07d4801002c61a12dd3cc24d49b37b912483377b9a0d9cf0000000000000000000000000000000000000000000000008ac7230489e80000",
        "nonce": "0x19",
        "chainId": "0x61"
      },
      "additionalContracts": [],
      "isFixedGasLimit": false
    },
    {
      "hash": "0x26f3a2fbfd021bd91a4e4ab6295f280dc144492bd1bb3c91d8b569738d659908",
      "transactionType": "CALL",
      "contractName": "BridgeOutbox",
      "contractAddress": "0x7bb65ed3928fd2143dc16475d1292833ed01a679",
      "function": "setOutflowCap(bytes32,uint128)",
      "arguments": [
        "0x003c47f9788b071eb07d4801002c61a12dd3cc24d49b37b912483377b9a0d9cf",
        "1000000000000000000000"
      ],
      "transaction": {
        "from": "0x2abd0d224775fb9140c04f12c3838af95847a97c",
        "to": "0x7bb65ed3928fd2143dc16475d1292833ed01a679",
        "gas": "0x102ec",
        "value": "0x0",
        "input": "0xb7033a03003c47f9788b071eb07d4801002c61a12dd3cc24d49b37b912483377b9a0d9cf00000000000000000000000000000000000000000000003635c9adc5dea00000",
        "nonce": "0x1a",
        "chainId": "0x61"
      },
      "additionalContracts": [],
      "isFixedGasLimit": false
    },
    {
      "hash": "0x5e199e1ecaa8795e1eb9f85fb1b4f2945cd1023f19b5165fcdacba8806f0aba3",
      "transactionType": "CALL",
      "contractName": "BridgeOutbox",
      "contractAddress": "0x7bb65ed3928fd2143dc16475d1292833ed01a679",
      "function": "setDailyOutflowCap(bytes32,uint128)",
      "arguments": [
        "0x003c47f9788b071eb07d4801002c61a12dd3cc24d49b37b912483377b9a0d9cf",
        "1000000000000000000000"
      ],
      "transaction": {
        "from": "0x2abd0d224775fb9140c04f12c3838af95847a97c",
        "to": "0x7bb65ed3928fd2143dc16475d1292833ed01a679",
        "gas": "0x11299",
        "value": "0x0",
        "input": "0x44ca0ebe003c47f9788b071eb07d4801002c61a12dd3cc24d49b37b912483377b9a0d9cf00000000000000000000000000000000000000000000003635c9adc5dea00000",
        "nonce": "0x1b",
        "chainId": "0x61"
      },
      "additionalContracts": [],
      "isFixedGasLimit": false
    },
    {
      "hash": "0xa8956650d10d75c18efae4bfeff1c7de37e0e6b6a2dcc26ffcaf3c1eb3163910",
      "transactionType": "CALL",
      "contractName": "BridgeInbox",
      "contractAddress": "0xa25649a0f7dd8285975e2ee99078bb8570713ae0",
      "function": "setWhiteProtocol(address)",
      "arguments": [
        "0xE8efDE51cA7B4b0dAD84e5a7296Baac87A09029B"
      ],
      "transaction": {
        "from": "0x2abd0d224775fb9140c04f12c3838af95847a97c",
        "to": "0xa25649a0f7dd8285975e2ee99078bb8570713ae0",
        "gas": "0x107ad",
        "value": "0x0",
        "input": "0x0f678e36000000000000000000000000e8efde51ca7b4b0dad84e5a7296baac87a09029b",
        "nonce": "0x1c",
        "chainId": "0x61"
      },
      "additionalContracts": [],
      "isFixedGasLimit": false
    },
    {
      "hash": "0x03c91340e023ea30d5bf0096167749bd45e075e2fdf9c3a55293a6490ace2cb4",
      "transactionType": "CALL",
      "contractName": "BridgeInbox",
      "contractAddress": "0xa25649a0f7dd8285975e2ee99078bb8570713ae0",
      "function": "enableRoute(uint32)",
      "arguments": [
        "33554434"
      ],
      "transaction": {
        "from": "0x2abd0d224775fb9140c04f12c3838af95847a97c",
        "to": "0xa25649a0f7dd8285975e2ee99078bb8570713ae0",
        "gas": "0x10cee",
        "value": "0x0",
        "input": "0x8f7a25fe0000000000000000000000000000000000000000000000000000000002000002",
        "nonce": "0x1d",
        "chainId": "0x61"
      },
      "additionalContracts": [],
      "isFixedGasLimit": false
    },
    {
      "hash": "0xdcc22122e76f563f3fcf544a1dadddd6f016ba2ef915aed39dbbda5e68311b70",
      "transactionType": "CALL",
      "contractName": "BridgeInbox",
      "contractAddress": "0xa25649a0f7dd8285975e2ee99078bb8570713ae0",
      "function": "enableRoute(uint32)",
      "arguments": [
        "33554435"
      ],
      "transaction": {
        "from": "0x2abd0d224775fb9140c04f12c3838af95847a97c",
        "to": "0xa25649a0f7dd8285975e2ee99078bb8570713ae0",
        "gas": "0x10cee",
        "value": "0x0",
        "input": "0x8f7a25fe0000000000000000000000000000000000000000000000000000000002000003",
        "nonce": "0x1e",
        "chainId": "0x61"
      },
      "additionalContracts": [],
      "isFixedGasLimit": false
    },
    {
      "hash": "0xeef575d1baefb74e47e12d5d57cb96e5e331cc3f1f2ee637df52015f5b6e2b13",
      "transactionType": "CALL",
      "contractName": "BridgeInbox",
      "contractAddress": "0xa25649a0f7dd8285975e2ee99078bb8570713ae0",
      "function": "enableRoute(uint32)",
      "arguments": [
        "33554436"
      ],
      "transaction": {
        "from": "0x2abd0d224775fb9140c04f12c3838af95847a97c",
        "to": "0xa25649a0f7dd8285975e2ee99078bb8570713ae0",
        "gas": "0x10cee",
        "value": "0x0",
        "input": "0x8f7a25fe0000000000000000000000000000000000000000000000000000000002000004",
        "nonce": "0x1f",
        "chainId": "0x61"
      },
      "additionalContracts": [],
      "isFixedGasLimit": false
    },
    {
      "hash": "0x55fbd29dc018cba0948cb903137506cc3297631456514eb9032f88852eae3c3c",
      "transactionType": "CALL",
      "contractName": "BridgeInbox",
      "contractAddress": "0xa25649a0f7dd8285975e2ee99078bb8570713ae0",
      "function": "supportAsset(bytes32)",
      "arguments": [
        "0x003c47f9788b071eb07d4801002c61a12dd3cc24d49b37b912483377b9a0d9cf"
      ],
      "transaction": {
        "from": "0x2abd0d224775fb9140c04f12c3838af95847a97c",
        "to": "0xa25649a0f7dd8285975e2ee99078bb8570713ae0",
        "gas": "0x10e4c",
        "value": "0x0",
        "input": "0x29d1c26b003c47f9788b071eb07d4801002c61a12dd3cc24d49b37b912483377b9a0d9cf",
        "nonce": "0x20",
        "chainId": "0x61"
      },
      "additionalContracts": [],
      "isFixedGasLimit": false
    },
    {
      "hash": "0xea65ceb691c16971eeae2d5a0564ad4b8c00ef0ee6f4cf77ee7d7aac56eda4ec",
      "transactionType": "CALL",
      "contractName": "BridgeInbox",
      "contractAddress": "0xa25649a0f7dd8285975e2ee99078bb8570713ae0",
      "function": "setLocalAsset(bytes32,address)",
      "arguments": [
        "0x003c47f9788b071eb07d4801002c61a12dd3cc24d49b37b912483377b9a0d9cf",
        "0x0000000000000000000000000000000000000000"
      ],
      "transaction": {
        "from": "0x2abd0d224775fb9140c04f12c3838af95847a97c",
        "to": "0xa25649a0f7dd8285975e2ee99078bb8570713ae0",
        "gas": "0x10711",
        "value": "0x0",
        "input": "0x78c86daf003c47f9788b071eb07d4801002c61a12dd3cc24d49b37b912483377b9a0d9cf0000000000000000000000000000000000000000000000000000000000000000",
        "nonce": "0x21",
        "chainId": "0x61"
      },
      "additionalContracts": [],
      "isFixedGasLimit": false
    },
    {
      "hash": "0xa5d230c4283dae93d7dae1066d1f4c79017c5704bbf1ffd2a7b5fac99e3c8f94",
      "transactionType": "CALL",
      "contractName": "BridgeInbox",
      "contractAddress": "0xa25649a0f7dd8285975e2ee99078bb8570713ae0",
      "function": "setMaxMessageAmount(bytes32,uint128)",
      "arguments": [
        "0x003c47f9788b071eb07d4801002c61a12dd3cc24d49b37b912483377b9a0d9cf",
        "10000000000000000000"
      ],
      "transaction": {
        "from": "0x2abd0d224775fb9140c04f12c3838af95847a97c",
        "to": "0xa25649a0f7dd8285975e2ee99078bb8570713ae0",
        "gas": "0x11246",
        "value": "0x0",
        "input": "0x891bad80003c47f9788b071eb07d4801002c61a12dd3cc24d49b37b912483377b9a0d9cf0000000000000000000000000000000000000000000000008ac7230489e80000",
        "nonce": "0x22",
        "chainId": "0x61"
      },
      "additionalContracts": [],
      "isFixedGasLimit": false
    },
    {
      "hash": "0xe87f3994b0537a587134252fe833a3221e003a50b40e82b7ccb7afd58f4a59f2",
      "transactionType": "CALL",
      "contractName": "BridgeInbox",
      "contractAddress": "0xa25649a0f7dd8285975e2ee99078bb8570713ae0",
      "function": "setInflowCap(bytes32,uint128)",
      "arguments": [
        "0x003c47f9788b071eb07d4801002c61a12dd3cc24d49b37b912483377b9a0d9cf",
        "1000000000000000000000"
      ],
      "transaction": {
        "from": "0x2abd0d224775fb9140c04f12c3838af95847a97c",
        "to": "0xa25649a0f7dd8285975e2ee99078bb8570713ae0",
        "gas": "0x11247",
        "value": "0x0",
        "input": "0xb299804a003c47f9788b071eb07d4801002c61a12dd3cc24d49b37b912483377b9a0d9cf00000000000000000000000000000000000000000000003635c9adc5dea00000",
        "nonce": "0x23",
        "chainId": "0x61"
      },
      "additionalContracts": [],
      "isFixedGasLimit": false
    },
    {
      "hash": "0x05a489c6e359ba06083f41bd0453ca092f0aed24d2c1108055447194be75fc16",
      "transactionType": "CALL",
      "contractName": "BridgeInbox",
      "contractAddress": "0xa25649a0f7dd8285975e2ee99078bb8570713ae0",
      "function": "setDailyInflowCap(bytes32,uint128)",
      "arguments": [
        "0x003c47f9788b071eb07d4801002c61a12dd3cc24d49b37b912483377b9a0d9cf",
        "1000000000000000000000"
      ],
      "transaction": {
        "from": "0x2abd0d224775fb9140c04f12c3838af95847a97c",
        "to": "0xa25649a0f7dd8285975e2ee99078bb8570713ae0",
        "gas": "0x102ec",
        "value": "0x0",
        "input": "0xad72c52c003c47f9788b071eb07d4801002c61a12dd3cc24d49b37b912483377b9a0d9cf00000000000000000000000000000000000000000000003635c9adc5dea00000",
        "nonce": "0x24",
        "chainId": "0x61"
      },
      "additionalContracts": [],
      "isFixedGasLimit": false
    },
    {
      "hash": "0x1b495dbf98a681b863cba8a047afccdb3c76d522fac98ca03080cf2fd652f060",
      "transactionType": "CALL",
      "contractName": "BridgeInbox",
      "contractAddress": "0xa25649a0f7dd8285975e2ee99078bb8570713ae0",
      "function": "setGlobalDailyCap(uint128)",
      "arguments": [
        "5000000000000000000000"
      ],
      "transaction": {
        "from": "0x2abd0d224775fb9140c04f12c3838af95847a97c",
        "to": "0xa25649a0f7dd8285975e2ee99078bb8570713ae0",
        "gas": "0x10f08",
        "value": "0x0",
        "input": "0x307addfe00000000000000000000000000000000000000000000010f0cf064dd59200000",
        "nonce": "0x25",
        "chainId": "0x61"
      },
      "additionalContracts": [],
      "isFixedGasLimit": false
    },
    {
      "hash": "0x81d5335ee14f176fad01771ffb1bdb9e14dfcf9dde6fd2892ce7352fb5593005",
      "transactionType": "CALL",
      "contractName": "BridgeInbox",
      "contractAddress": "0xa25649a0f7dd8285975e2ee99078bb8570713ae0",
      "function": "updateSignerSet(address[],uint256)",
      "arguments": [
        "[0x9A34F10F5b9AD7770C30A3B41d95C4Dcb0B88820, 0xbd7d34e42352BCe888394263A84CF21c85608beC, 0xEa4A68F39630C5145f1840D754B470a9fa5F2c19]",
        "2"
      ],
      "transaction": {
        "from": "0x2abd0d224775fb9140c04f12c3838af95847a97c",
        "to": "0xa25649a0f7dd8285975e2ee99078bb8570713ae0",
        "gas": "0x3e2ff",
        "value": "0x0",
        "input": "0x3c625b660000000000000000000000000000000000000000000000000000000000000040000000000000000000000000000000000000000000000000000000000000000200000000000000000000000000000000000000000000000000000000000000030000000000000000000000009a34f10f5b9ad7770c30a3b41d95c4dcb0b88820000000000000000000000000bd7d34e42352bce888394263a84cf21c85608bec000000000000000000000000ea4a68f39630c5145f1840d754b470a9fa5f2c19",
        "nonce": "0x26",
        "chainId": "0x61"
      },
      "additionalContracts": [],
      "isFixedGasLimit": false
    },
    {
      "hash": "0x973ca724e73a99f789accc0ccc14f7d72f2a92d3d8177651002205479b9ec973",
      "transactionType": "CALL",
      "contractName": null,
      "contractAddress": "0xe8efde51ca7b4b0dad84e5a7296baac87a09029b",
      "function": "setBridge(address)",
      "arguments": [
        "0xA25649a0F7DD8285975e2eE99078bb8570713aE0"
      ],
      "transaction": {
        "from": "0x2abd0d224775fb9140c04f12c3838af95847a97c",
        "to": "0xe8efde51ca7b4b0dad84e5a7296baac87a09029b",
        "gas": "0xff66",
        "value": "0x0",
        "input": "0x8dd14802000000000000000000000000a25649a0f7dd8285975e2ee99078bb8570713ae0",
        "nonce": "0x27",
        "chainId": "0x61"
      },
      "additionalContracts": [],
      "isFixedGasLimit": false
    }
  ],
  "receipts": [
    {
      "status": "0x1",
      "cumulativeGasUsed": "0x232683",
      "logs": [
        {
          "address": "0x7bb65ed3928fd2143dc16475d1292833ed01a679",
          "topics": [
            "0x8be0079c531659141344cd1fd0a4f28419497f9722a3daafe3b4186f6b6457e0",
            "0x0000000000000000000000000000000000000000000000000000000000000000",
            "0x0000000000000000000000002abd0d224775fb9140c04f12c3838af95847a97c"
          ],
          "data": "0x",
          "blockHash": "0x658151b003071c19e769001f0f5d886fb8925411663da4254392c9008401d5d6",
          "blockNumber": "0x64a7003",
          "blockTimestamp": "0x69f9262b",
          "transactionHash": "0x0578c38922bac2edbad3646df643621f769fbbcf6f475edc30d6a3e0f7238b7b",
          "transactionIndex": "0x2",
          "logIndex": "0x2",
          "removed": false
        }
      ],
      "logsBloom": "0x00000000000000000000000000000000000000040000004000800000000000000000000000000000000000000000000000000000000000000000000000000000000000000000000000000000000000000001040000000000000000000000000000000000820000000000080000000800000000000000000000000000000000400000000000000000000000000000000000000000000000000000000000000000000000000000000000000000000000000000000000000000000000000000000000400000000000000000000000000000000000000000000000000000000020000000000000000000000000000000000000000000000000000000000000000000",
      "type": "0x0",
      "transactionHash": "0x0578c38922bac2edbad3646df643621f769fbbcf6f475edc30d6a3e0f7238b7b",
      "transactionIndex": "0x2",
      "blockHash": "0x658151b003071c19e769001f0f5d886fb8925411663da4254392c9008401d5d6",
      "blockNumber": "0x64a7003",
      "gasUsed": "0x1b2ad8",
      "effectiveGasPrice": "0x5f5e100",
      "from": "0x2abd0d224775fb9140c04f12c3838af95847a97c",
      "to": null,
      "contractAddress": "0x7bb65ed3928fd2143dc16475d1292833ed01a679"
    },
    {
      "status": "0x1",
      "cumulativeGasUsed": "0x48a339",
      "logs": [
        {
          "address": "0xa25649a0f7dd8285975e2ee99078bb8570713ae0",
          "topics": [
            "0x8be0079c531659141344cd1fd0a4f28419497f9722a3daafe3b4186f6b6457e0",
            "0x0000000000000000000000000000000000000000000000000000000000000000",
            "0x0000000000000000000000002abd0d224775fb9140c04f12c3838af95847a97c"
          ],
          "data": "0x",
          "blockHash": "0x658151b003071c19e769001f0f5d886fb8925411663da4254392c9008401d5d6",
          "blockNumber": "0x64a7003",
          "blockTimestamp": "0x69f9262b",
          "transactionHash": "0xa8956650d10d75c18efae4bfeff1c7de37e0e6b6a2dcc26ffcaf3c1eb3163910",
          "transactionIndex": "0x3",
          "logIndex": "0x3",
          "removed": false
        }
      ],
      "logsBloom": "0x00000000000000000000000000000000000000040000000000800000000000000000000000000000000000000000000000000000000000000000000000000000000000000000000000000000000000000001000000000000000000000010000000000000020000000000080000000800000000000000000000000000000000400000000000000000000000000000000000000000000000000000000000000000000000000000000000000000000000000000000000000000000000000000000008400000000000000000000000000000000000000000000000000000000020000000000000000000000000000000000000002000000000000000000000000000",
      "type": "0x0",
      "transactionHash": "0xa8956650d10d75c18efae4bfeff1c7de37e0e6b6a2dcc26ffcaf3c1eb3163910",
      "transactionIndex": "0x3",
      "blockHash": "0x658151b003071c19e769001f0f5d886fb8925411663da4254392c9008401d5d6",
      "blockNumber": "0x64a7003",
      "gasUsed": "0x257cb6",
      "effectiveGasPrice": "0x5f5e100",
      "from": "0x2abd0d224775fb9140c04f12c3838af95847a97c",
      "to": null,
      "contractAddress": "0xa25649a0f7dd8285975e2ee99078bb8570713ae0"
    },
    {
      "status": "0x1",
      "cumulativeGasUsed": "0x495b1b",
      "logs": [
        {
          "address": "0x7bb65ed3928fd2143dc16475d1292833ed01a679",
          "topics": [
            "0xe318049ad851e4adc0e72a31d8092de055c31ff255db0375642a8d9cd4ee6ace",
            "0x0000000000000000000000000000000000000000000000000000000002000002"
          ],
          "data": "0x",
          "blockHash": "0x658151b003071c19e769001f0f5d886fb8925411663da4254392c9008401d5d6",
          "blockNumber": "0x64a7003",
          "blockTimestamp": "0x69f9262b",
          "transactionHash": "0x5e199e1ecaa8795e1eb9f85fb1b4f2945cd1023f19b5165fcdacba8806f0aba3",
          "transactionIndex": "0x4",
          "logIndex": "0x4",
          "removed": false
        }
      ],
      "logsBloom": "0x00000000000000000400000000000000000000000000004000000000000000000000000000000000000000000000000000000000000000000000000000000000000000000000020000000000000000000000040000000000000000000000000000000000800000000000000000000000000000000000000000000000000000000000000000100000000800000000000000000000000000000000000000000000000000000000000000000000000000000000000000000000000000000000000000000000000000000000000200000000000000000000000000000000000000000000000000000000000000000000000000000000000000000000000000200000",
      "type": "0x0",
      "transactionHash": "0x5e199e1ecaa8795e1eb9f85fb1b4f2945cd1023f19b5165fcdacba8806f0aba3",
      "transactionIndex": "0x4",
      "blockHash": "0x658151b003071c19e769001f0f5d886fb8925411663da4254392c9008401d5d6",
      "blockNumber": "0x64a7003",
      "gasUsed": "0xb7e2",
      "effectiveGasPrice": "0x5f5e100",
      "from": "0x2abd0d224775fb9140c04f12c3838af95847a97c",
      "to": "0x7bb65ed3928fd2143dc16475d1292833ed01a679",
      "contractAddress": null
    },
    {
      "status": "0x1",
      "cumulativeGasUsed": "0x4a12fd",
      "logs": [
        {
          "address": "0x7bb65ed3928fd2143dc16475d1292833ed01a679",
          "topics": [
            "0xe318049ad851e4adc0e72a31d8092de055c31ff255db0375642a8d9cd4ee6ace",
            "0x0000000000000000000000000000000000000000000000000000000002000003"
          ],
          "data": "0x",
          "blockHash": "0x658151b003071c19e769001f0f5d886fb8925411663da4254392c9008401d5d6",
          "blockNumber": "0x64a7003",
          "blockTimestamp": "0x69f9262b",
          "transactionHash": "0xafc861e155c79bc8488b6deda02fb8b12996fd1a05b490771cd3d8f3631799e5",
          "transactionIndex": "0x5",
          "logIndex": "0x5",
          "removed": false
        }
      ],
      "logsBloom": "0x00000000000000000400000000000000000000000000004000000000000000000000000000000000000000000000000000000000000000000000000000000000000000000000000000000000000000000000040000000000000000000000000000000000800000000000000000000000000000400000000000000000000000000000000000100000000000000000000000000000000000000000000000000000000000000000000000000000000000000000001000000000000000000000000000000000000000000000000000000000000000000000000400000000000000000000000000000000000000000000000000000000000000000000000000200000",
      "type": "0x0",
      "transactionHash": "0xafc861e155c79bc8488b6deda02fb8b12996fd1a05b490771cd3d8f3631799e5",
      "transactionIndex": "0x5",
      "blockHash": "0x658151b003071c19e769001f0f5d886fb8925411663da4254392c9008401d5d6",
      "blockNumber": "0x64a7003",
      "gasUsed": "0xb7e2",
      "effectiveGasPrice": "0x5f5e100",
      "from": "0x2abd0d224775fb9140c04f12c3838af95847a97c",
      "to": "0x7bb65ed3928fd2143dc16475d1292833ed01a679",
      "contractAddress": null
    },
    {
      "status": "0x1",
      "cumulativeGasUsed": "0x4acadf",
      "logs": [
        {
          "address": "0x7bb65ed3928fd2143dc16475d1292833ed01a679",
          "topics": [
            "0xe318049ad851e4adc0e72a31d8092de055c31ff255db0375642a8d9cd4ee6ace",
            "0x0000000000000000000000000000000000000000000000000000000002000004"
          ],
          "data": "0x",
          "blockHash": "0x658151b003071c19e769001f0f5d886fb8925411663da4254392c9008401d5d6",
          "blockNumber": "0x64a7003",
          "blockTimestamp": "0x69f9262b",
          "transactionHash": "0x58afb539ad43aa8dfd74e29d8d16aee0ca48d582ce8e0c397c6316e993b516fc",
          "transactionIndex": "0x6",
          "logIndex": "0x6",
          "removed": false
        }
      ],
      "logsBloom": "0x00000000000000000400000000000000000000000000004000000000000000000000000000000000000000000000000000000000000000000000000000000000000000000000000000000000000000000000040000000000000000000000000000000000800000000000000000000000000000000000000000000000000000000000000000100000000000000000000000000000000000000000000000000000000000000000001000000000000000000000000000000000000000000000000000000000000000000000000000000000000000080000000000000040000000000000000000000000000000000000000000000000000000000000000000200000",
      "type": "0x0",
      "transactionHash": "0x58afb539ad43aa8dfd74e29d8d16aee0ca48d582ce8e0c397c6316e993b516fc",
      "transactionIndex": "0x6",
      "blockHash": "0x658151b003071c19e769001f0f5d886fb8925411663da4254392c9008401d5d6",
      "blockNumber": "0x64a7003",
      "gasUsed": "0xb7e2",
      "effectiveGasPrice": "0x5f5e100",
      "from": "0x2abd0d224775fb9140c04f12c3838af95847a97c",
      "to": "0x7bb65ed3928fd2143dc16475d1292833ed01a679",
      "contractAddress": null
    },
    {
      "status": "0x1",
      "cumulativeGasUsed": "0x4b83c7",
      "logs": [
        {
          "address": "0x7bb65ed3928fd2143dc16475d1292833ed01a679",
          "topics": [
            "0xe7019739d91346eb9e4a6525783e16c9659c2d355c6e504e85c56d1576a42a3f",
            "0x003c47f9788b071eb07d4801002c61a12dd3cc24d49b37b912483377b9a0d9cf"
          ],
          "data": "0x",
          "blockHash": "0x658151b003071c19e769001f0f5d886fb8925411663da4254392c9008401d5d6",
          "blockNumber": "0x64a7003",
          "blockTimestamp": "0x69f9262b",
          "transactionHash": "0x50dd31305e4d3a882f4a5d64b06fb63833be2154ff86559d4290cb3bc3561012",
          "transactionIndex": "0x7",
          "logIndex": "0x7",
          "removed": false
        }
      ],
      "logsBloom": "0x00000000000000000000000000000000000000000000004000000000000000000000000000000000000000000000000000000000000000000000000000000000000000004000000000000000000000000000040000000000000000000000000000000000800000000000000001000000000002000000000000000000000000000000000000000000000000000000000000040000000000000000000000000000000000000000000000000000000000000000000000000000000000000000100000000000000000000000000000000000000000000000000000000000000000000000000000000000000000000000000000000010000000000000000000000000",
      "type": "0x0",
      "transactionHash": "0x50dd31305e4d3a882f4a5d64b06fb63833be2154ff86559d4290cb3bc3561012",
      "transactionIndex": "0x7",
      "blockHash": "0x658151b003071c19e769001f0f5d886fb8925411663da4254392c9008401d5d6",
      "blockNumber": "0x64a7003",
      "gasUsed": "0xb8e8",
      "effectiveGasPrice": "0x5f5e100",
      "from": "0x2abd0d224775fb9140c04f12c3838af95847a97c",
      "to": "0x7bb65ed3928fd2143dc16475d1292833ed01a679",
      "contractAddress": null
    },
    {
      "status": "0x1",
      "cumulativeGasUsed": "0x4c3f47",
      "logs": [
        {
          "address": "0x7bb65ed3928fd2143dc16475d1292833ed01a679",
          "topics": [
            "0xadca0b8792a4724d673614590b704b591e207730ea48fcd3eed067bd9bfa3be8",
            "0x003c47f9788b071eb07d4801002c61a12dd3cc24d49b37b912483377b9a0d9cf"
          ],
          "data": "0x0000000000000000000000000000000000000000000000008ac7230489e80000",
          "blockHash": "0x658151b003071c19e769001f0f5d886fb8925411663da4254392c9008401d5d6",
          "blockNumber": "0x64a7003",
          "blockTimestamp": "0x69f9262b",
          "transactionHash": "0x57c520b2c223ad5297ebf305f5da8b5acdd1797a92b9d7d14d4fd2b79b1c11c9",
          "transactionIndex": "0x8",
          "logIndex": "0x8",
          "removed": false
        }
      ],
      "logsBloom": "0x00000000000000000000000000000000000000000000004000000000000000000000000000000000000000000000000000800000000000000000000000000000000000000000000000000000000000000000040000000000000000000000000000000000800000000000000000000000000000000000000000800000000000000000000000000000000000000000000000040000000000000000000000000000000000000000000000000000000000000000000000000000000000000004100000000000000000000000000000000000000000000000000000000000000000000000000000000000000000000000000000000010000000000000000000000000",
      "type": "0x0",
      "transactionHash": "0x57c520b2c223ad5297ebf305f5da8b5acdd1797a92b9d7d14d4fd2b79b1c11c9",
      "transactionIndex": "0x8",
      "blockHash": "0x658151b003071c19e769001f0f5d886fb8925411663da4254392c9008401d5d6",
      "blockNumber": "0x64a7003",
      "gasUsed": "0xbb80",
      "effectiveGasPrice": "0x5f5e100",
      "from": "0x2abd0d224775fb9140c04f12c3838af95847a97c",
      "to": "0x7bb65ed3928fd2143dc16475d1292833ed01a679",
      "contractAddress": null
    },
    {
      "status": "0x1",
      "cumulativeGasUsed": "0x4cfabc",
      "logs": [
        {
          "address": "0x7bb65ed3928fd2143dc16475d1292833ed01a679",
          "topics": [
            "0x50bdeb701af64503086964d663578aca632ba21bb2fdd9e35b9f92c973014318",
            "0x003c47f9788b071eb07d4801002c61a12dd3cc24d49b37b912483377b9a0d9cf"
          ],
          "data": "0x00000000000000000000000000000000000000000000003635c9adc5dea00000",
          "blockHash": "0x658151b003071c19e769001f0f5d886fb8925411663da4254392c9008401d5d6",
          "blockNumber": "0x64a7003",
          "blockTimestamp": "0x69f9262b",
          "transactionHash": "0xdcc22122e76f563f3fcf544a1dadddd6f016ba2ef915aed39dbbda5e68311b70",
          "transactionIndex": "0x9",
          "logIndex": "0x9",
          "removed": false
        }
      ],
      "logsBloom": "0x00000000000000000000000000000000000800000000004000000000000000000000000000000000000000000000000000000000000000000000000000000000000000000000000000000000000000000000040000000000000000000000000000000000800000000000000000000000000000000000000000080000000000000000000000000000000000000000000000040000000000000000000000000000000000000000000000000000000000000000000000000000000000000000100000000000000000000000000000000000000000000000000000000000000000000000000000000800000000000000000000000010000000000000000000000000",
      "type": "0x0",
      "transactionHash": "0xdcc22122e76f563f3fcf544a1dadddd6f016ba2ef915aed39dbbda5e68311b70",
      "transactionIndex": "0x9",
      "blockHash": "0x658151b003071c19e769001f0f5d886fb8925411663da4254392c9008401d5d6",
      "blockNumber": "0x64a7003",
      "gasUsed": "0xbb75",
      "effectiveGasPrice": "0x5f5e100",
      "from": "0x2abd0d224775fb9140c04f12c3838af95847a97c",
      "to": "0x7bb65ed3928fd2143dc16475d1292833ed01a679",
      "contractAddress": null
    },
    {
      "status": "0x1",
      "cumulativeGasUsed": "0x4db67f",
      "logs": [
        {
          "address": "0x7bb65ed3928fd2143dc16475d1292833ed01a679",
          "topics": [
            "0xbf00e2077595566a521b8e3599a0682bc8700c6362401b1ce63b6f9c5bd5d1e7",
            "0x003c47f9788b071eb07d4801002c61a12dd3cc24d49b37b912483377b9a0d9cf"
          ],
          "data": "0x00000000000000000000000000000000000000000000003635c9adc5dea00000",
          "blockHash": "0x658151b003071c19e769001f0f5d886fb8925411663da4254392c9008401d5d6",
          "blockNumber": "0x64a7003",
          "blockTimestamp": "0x69f9262b",
          "transactionHash": "0x9dcd62add9bb1eee736e9a67298362c337a1d2623980e10910be7efa4cf10157",
          "transactionIndex": "0xa",
          "logIndex": "0xa",
          "removed": false
        }
      ],
      "logsBloom": "0x00000000000000000000000000000000000000000000004000000000000000000000000000000000000000000000000000000000000000000000000000000000000000000000000000000000000000000000040000000000000000000000000000000000800000000000000000000000000000000000000000000000000000000000000000000000000000000000000000040000000000000000000000000000000000000000000000000000000000000000000000000000000000000000101000000000000000000000000000000000000000000000000000000000000000000000000000000000000000000000000000000010000100000000000001000000",
      "type": "0x0",
      "transactionHash": "0x9dcd62add9bb1eee736e9a67298362c337a1d2623980e10910be7efa4cf10157",
      "transactionIndex": "0xa",
      "blockHash": "0x658151b003071c19e769001f0f5d886fb8925411663da4254392c9008401d5d6",
      "blockNumber": "0x64a7003",
      "gasUsed": "0xbbc3",
      "effectiveGasPrice": "0x5f5e100",
      "from": "0x2abd0d224775fb9140c04f12c3838af95847a97c",
      "to": "0x7bb65ed3928fd2143dc16475d1292833ed01a679",
      "contractAddress": null
    },
    {
      "status": "0x1",
      "cumulativeGasUsed": "0x4e6aca",
      "logs": [],
      "logsBloom": "0x00000000000000000000000000000000000000000000000000000000000000000000000000000000000000000000000000000000000000000000000000000000000000000000000000000000000000000000000000000000000000000000000000000000000000000000000000000000000000000000000000000000000000000000000000000000000000000000000000000000000000000000000000000000000000000000000000000000000000000000000000000000000000000000000000000000000000000000000000000000000000000000000000000000000000000000000000000000000000000000000000000000000000000000000000000000",
      "type": "0x0",
      "transactionHash": "0x03c91340e023ea30d5bf0096167749bd45e075e2fdf9c3a55293a6490ace2cb4",
      "transactionIndex": "0xb",
      "blockHash": "0x658151b003071c19e769001f0f5d886fb8925411663da4254392c9008401d5d6",
      "blockNumber": "0x64a7003",
      "gasUsed": "0xb44b",
      "effectiveGasPrice": "0x5f5e100",
      "from": "0x2abd0d224775fb9140c04f12c3838af95847a97c",
      "to": "0xa25649a0f7dd8285975e2ee99078bb8570713ae0",
      "contractAddress": null
    },
    {
      "status": "0x1",
      "cumulativeGasUsed": "0x4f22ad",
      "logs": [
        {
          "address": "0xa25649a0f7dd8285975e2ee99078bb8570713ae0",
          "topics": [
            "0x5bf2630de04acf68404978bfc90d2e25430c41148cc9d06f7547926cc41114e3",
            "0x0000000000000000000000000000000000000000000000000000000002000002"
          ],
          "data": "0x",
          "blockHash": "0x658151b003071c19e769001f0f5d886fb8925411663da4254392c9008401d5d6",
          "blockNumber": "0x64a7003",
          "blockTimestamp": "0x69f9262b",
          "transactionHash": "0x81d5335ee14f176fad01771ffb1bdb9e14dfcf9dde6fd2892ce7352fb5593005",
          "transactionIndex": "0xc",
          "logIndex": "0xb",
          "removed": false
        }
      ],
      "logsBloom": "0x00000000000000000000000000000000000000000000000000000000000000000000000000000000000000000000000000000000000000000000000000000000000000000000020000000000000200000000000000000000000000000010000000000000000000000000000000000000000000000000000000000000000000000000000000000000000800000000000000000000000000010000000000000000000000000000000000000000000000000000000000000000000000000000000008000000000000000000000200000000000000000000000000000000000000000000000000001000000000000000000000002000000000000000000000000000",
      "type": "0x0",
      "transactionHash": "0x81d5335ee14f176fad01771ffb1bdb9e14dfcf9dde6fd2892ce7352fb5593005",
      "transactionIndex": "0xc",
      "blockHash": "0x658151b003071c19e769001f0f5d886fb8925411663da4254392c9008401d5d6",
      "blockNumber": "0x64a7003",
      "gasUsed": "0xb7e3",
      "effectiveGasPrice": "0x5f5e100",
      "from": "0x2abd0d224775fb9140c04f12c3838af95847a97c",
      "to": "0xa25649a0f7dd8285975e2ee99078bb8570713ae0",
      "contractAddress": null
    },
    {
      "status": "0x1",
      "cumulativeGasUsed": "0x4fda90",
      "logs": [
        {
          "address": "0xa25649a0f7dd8285975e2ee99078bb8570713ae0",
          "topics": [
            "0x5bf2630de04acf68404978bfc90d2e25430c41148cc9d06f7547926cc41114e3",
            "0x0000000000000000000000000000000000000000000000000000000002000003"
          ],
          "data": "0x",
          "blockHash": "0x658151b003071c19e769001f0f5d886fb8925411663da4254392c9008401d5d6",
          "blockNumber": "0x64a7003",
          "blockTimestamp": "0x69f9262b",
          "transactionHash": "0x5fef16606c1ce29de2a188f5e23dd9904c62ce02e3778add8509c6f4a19677fb",
          "transactionIndex": "0xd",
          "logIndex": "0xc",
          "removed": false
        }
      ],
      "logsBloom": "0x00000000000000000000000000000000000000000000000000000000000000000000000000000000000000000000000000000000000000000000000000000000000000000000000000000000000200000000000000000000000000000010000000000000000000000000000000000000000000400000000000000000000000000000000000000000000000000000000000000000000000010000000000000000000000000000000000000000000000000000001000000000000000000000000008000000000000000000000000000000000000000000000400000000000000000000000000001000000000000000000000002000000000000000000000000000",
      "type": "0x0",
      "transactionHash": "0x5fef16606c1ce29de2a188f5e23dd9904c62ce02e3778add8509c6f4a19677fb",
      "transactionIndex": "0xd",
      "blockHash": "0x658151b003071c19e769001f0f5d886fb8925411663da4254392c9008401d5d6",
      "blockNumber": "0x64a7003",
      "gasUsed": "0xb7e3",
      "effectiveGasPrice": "0x5f5e100",
      "from": "0x2abd0d224775fb9140c04f12c3838af95847a97c",
      "to": "0xa25649a0f7dd8285975e2ee99078bb8570713ae0",
      "contractAddress": null
    },
    {
      "status": "0x1",
      "cumulativeGasUsed": "0x509273",
      "logs": [
        {
          "address": "0xa25649a0f7dd8285975e2ee99078bb8570713ae0",
          "topics": [
            "0x5bf2630de04acf68404978bfc90d2e25430c41148cc9d06f7547926cc41114e3",
            "0x0000000000000000000000000000000000000000000000000000000002000004"
          ],
          "data": "0x",
          "blockHash": "0x658151b003071c19e769001f0f5d886fb8925411663da4254392c9008401d5d6",
          "blockNumber": "0x64a7003",
          "blockTimestamp": "0x69f9262b",
          "transactionHash": "0xe87f3994b0537a587134252fe833a3221e003a50b40e82b7ccb7afd58f4a59f2",
          "transactionIndex": "0xe",
          "logIndex": "0xd",
          "removed": false
        }
      ],
      "logsBloom": "0x00000000000000000000000000000000000000000000000000000000000000000000000000000000000000000000000000000000000000000000000000000000000000000000000000000000000200000000000000000000000000000010000000000000000000000000000000000000000000000000000000000000000000000000000000000000000000000000000000000000000000010000000000000000000000000000001000000000000000000000000000000000000000000000000008000000000000000000000000000000000000080000000000000040000000000000000000001000000000000000000000002000000000000000000000000000",
      "type": "0x0",
      "transactionHash": "0xe87f3994b0537a587134252fe833a3221e003a50b40e82b7ccb7afd58f4a59f2",
      "transactionIndex": "0xe",
      "blockHash": "0x658151b003071c19e769001f0f5d886fb8925411663da4254392c9008401d5d6",
      "blockNumber": "0x64a7003",
      "gasUsed": "0xb7e3",
      "effectiveGasPrice": "0x5f5e100",
      "from": "0x2abd0d224775fb9140c04f12c3838af95847a97c",
      "to": "0xa25649a0f7dd8285975e2ee99078bb8570713ae0",
      "contractAddress": null
    },
    {
      "status": "0x1",
      "cumulativeGasUsed": "0x514b45",
      "logs": [
        {
          "address": "0xa25649a0f7dd8285975e2ee99078bb8570713ae0",
          "topics": [
            "0xe7019739d91346eb9e4a6525783e16c9659c2d355c6e504e85c56d1576a42a3f",
            "0x003c47f9788b071eb07d4801002c61a12dd3cc24d49b37b912483377b9a0d9cf"
          ],
          "data": "0x",
          "blockHash": "0x658151b003071c19e769001f0f5d886fb8925411663da4254392c9008401d5d6",
          "blockNumber": "0x64a7003",
          "blockTimestamp": "0x69f9262b",
          "transactionHash": "0x1b495dbf98a681b863cba8a047afccdb3c76d522fac98ca03080cf2fd652f060",
          "transactionIndex": "0xf",
          "logIndex": "0xe",
          "removed": false
        }
      ],
      "logsBloom": "0x00000000000000000000000000000000000000000000000000000000000000000000000000000000000000000000000000000000000000000000000000000000000000004000000000000000000000000000000000000000000000000010000000000000000000000000000001000000000002000000000000000000000000000000000000000000000000000000000000040000000000000000000000000000000000000000000000000000000000000000000000000000000000000000100008000000000000000000000000000000000000000000000000000000000000000000000000000000000000000000000000002010000000000000000000000000",
      "type": "0x0",
      "transactionHash": "0x1b495dbf98a681b863cba8a047afccdb3c76d522fac98ca03080cf2fd652f060",
      "transactionIndex": "0xf",
      "blockHash": "0x658151b003071c19e769001f0f5d886fb8925411663da4254392c9008401d5d6",
      "blockNumber": "0x64a7003",
      "gasUsed": "0xb8d2",
      "effectiveGasPrice": "0x5f5e100",
      "from": "0x2abd0d224775fb9140c04f12c3838af95847a97c",
      "to": "0xa25649a0f7dd8285975e2ee99078bb8570713ae0",
      "contractAddress": null
    },
    {
      "status": "0x1",
      "cumulativeGasUsed": "0x5209ba",
      "logs": [],
      "logsBloom": "0x00000000000000000000000000000000000000000000000000000000000000000000000000000000000000000000000000000000000000000000000000000000000000000000000000000000000000000000000000000000000000000000000000000000000000000000000000000000000000000000000000000000000000000000000000000000000000000000000000000000000000000000000000000000000000000000000000000000000000000000000000000000000000000000000000000000000000000000000000000000000000000000000000000000000000000000000000000000000000000000000000000000000000000000000000000000",
      "type": "0x0",
      "transactionHash": "0x973ca724e73a99f789accc0ccc14f7d72f2a92d3d8177651002205479b9ec973",
      "transactionIndex": "0x10",
      "blockHash": "0x658151b003071c19e769001f0f5d886fb8925411663da4254392c9008401d5d6",
      "blockNumber": "0x64a7003",
      "gasUsed": "0xbe75",
      "effectiveGasPrice": "0x5f5e100",
      "from": "0x2abd0d224775fb9140c04f12c3838af95847a97c",
      "to": "0xa25649a0f7dd8285975e2ee99078bb8570713ae0",
      "contractAddress": null
    },
    {
      "status": "0x1",
      "cumulativeGasUsed": "0x52c544",
      "logs": [
        {
          "address": "0xa25649a0f7dd8285975e2ee99078bb8570713ae0",
          "topics": [
            "0xadca0b8792a4724d673614590b704b591e207730ea48fcd3eed067bd9bfa3be8",
            "0x003c47f9788b071eb07d4801002c61a12dd3cc24d49b37b912483377b9a0d9cf"
          ],
          "data": "0x0000000000000000000000000000000000000000000000008ac7230489e80000",
          "blockHash": "0x658151b003071c19e769001f0f5d886fb8925411663da4254392c9008401d5d6",
          "blockNumber": "0x64a7003",
          "blockTimestamp": "0x69f9262b",
          "transactionHash": "0x26f3a2fbfd021bd91a4e4ab6295f280dc144492bd1bb3c91d8b569738d659908",
          "transactionIndex": "0x11",
          "logIndex": "0xf",
          "removed": false
        }
      ],
      "logsBloom": "0x00000000000000000000000000000000000000000000000000000000000000000000000000000000000000000000000000800000000000000000000000000000000000000000000000000000000000000000000000000000000000000010000000000000000000000000000000000000000000000000000000800000000000000000000000000000000000000000000000040000000000000000000000000000000000000000000000000000000000000000000000000000000000000004100008000000000000000000000000000000000000000000000000000000000000000000000000000000000000000000000000002010000000000000000000000000",
      "type": "0x0",
      "transactionHash": "0x26f3a2fbfd021bd91a4e4ab6295f280dc144492bd1bb3c91d8b569738d659908",
      "transactionIndex": "0x11",
      "blockHash": "0x658151b003071c19e769001f0f5d886fb8925411663da4254392c9008401d5d6",
      "blockNumber": "0x64a7003",
      "gasUsed": "0xbb8a",
      "effectiveGasPrice": "0x5f5e100",
      "from": "0x2abd0d224775fb9140c04f12c3838af95847a97c",
      "to": "0xa25649a0f7dd8285975e2ee99078bb8570713ae0",
      "contractAddress": null
    },
    {
      "status": "0x1",
      "cumulativeGasUsed": "0x5380cf",
      "logs": [
        {
          "address": "0xa25649a0f7dd8285975e2ee99078bb8570713ae0",
          "topics": [
            "0x331ce957b83ed02d6afee380cba159ab824a8280ca085d71dec9b50e38e13056",
            "0x003c47f9788b071eb07d4801002c61a12dd3cc24d49b37b912483377b9a0d9cf"
          ],
          "data": "0x00000000000000000000000000000000000000000000003635c9adc5dea00000",
          "blockHash": "0x658151b003071c19e769001f0f5d886fb8925411663da4254392c9008401d5d6",
          "blockNumber": "0x64a7003",
          "blockTimestamp": "0x69f9262b",
          "transactionHash": "0x55fbd29dc018cba0948cb903137506cc3297631456514eb9032f88852eae3c3c",
          "transactionIndex": "0x12",
          "logIndex": "0x10",
          "removed": false
        }
      ],
      "logsBloom": "0x00000000000000000000000000000000000000000000000000000000004000000000000000000000000800000000000000000000000000000000000000000000000000000000000000000000000000000000000000000000000000000010000000000000000000000000000000000000000000000000000000000000000000000000000000000000000000000000000000040000000000000000000000000000000000000800000000000000000000000000000000000000000000000000100008000000000000000000000000000000000000000000000000000000000000000000000000000000000000000000000000002010000000000000000000000000",
      "type": "0x0",
      "transactionHash": "0x55fbd29dc018cba0948cb903137506cc3297631456514eb9032f88852eae3c3c",
      "transactionIndex": "0x12",
      "blockHash": "0x658151b003071c19e769001f0f5d886fb8925411663da4254392c9008401d5d6",
      "blockNumber": "0x64a7003",
      "gasUsed": "0xbb8b",
      "effectiveGasPrice": "0x5f5e100",
      "from": "0x2abd0d224775fb9140c04f12c3838af95847a97c",
      "to": "0xa25649a0f7dd8285975e2ee99078bb8570713ae0",
      "contractAddress": null
    },
    {
      "status": "0x1",
      "cumulativeGasUsed": "0x543c44",
      "logs": [
        {
          "address": "0xa25649a0f7dd8285975e2ee99078bb8570713ae0",
          "topics": [
            "0x5dbe605896cb1ee1389b209a0364bdf95efff4a597c3a34b05b3f7be8c16ef51",
            "0x003c47f9788b071eb07d4801002c61a12dd3cc24d49b37b912483377b9a0d9cf"
          ],
          "data": "0x00000000000000000000000000000000000000000000003635c9adc5dea00000",
          "blockHash": "0x658151b003071c19e769001f0f5d886fb8925411663da4254392c9008401d5d6",
          "blockNumber": "0x64a7003",
          "blockTimestamp": "0x69f9262b",
          "transactionHash": "0xa5d230c4283dae93d7dae1066d1f4c79017c5704bbf1ffd2a7b5fac99e3c8f94",
          "transactionIndex": "0x13",
          "logIndex": "0x11",
          "removed": false
        }
      ],
      "logsBloom": "0x00000000000000040000000000000000000000000000000000000000000000000000000000000000000000000000000000000000000000000000000000000000000000000000000000000000000000000000000000000000000000000010000000000000000000000000000000000000000000000000000000000000000000000000000000000000000000000000000000040000000000000000000000000000000000000000000000000000000000000000000080000000000000000000100008000400000000000000000000000000000000000000000000000000000000000000000000000000000000000000000000002010000000000000000000000000",
      "type": "0x0",
      "transactionHash": "0xa5d230c4283dae93d7dae1066d1f4c79017c5704bbf1ffd2a7b5fac99e3c8f94",
      "transactionIndex": "0x13",
      "blockHash": "0x658151b003071c19e769001f0f5d886fb8925411663da4254392c9008401d5d6",
      "blockNumber": "0x64a7003",
      "gasUsed": "0xbb75",
      "effectiveGasPrice": "0x5f5e100",
      "from": "0x2abd0d224775fb9140c04f12c3838af95847a97c",
      "to": "0xa25649a0f7dd8285975e2ee99078bb8570713ae0",
      "contractAddress": null
    },
    {
      "status": "0x1",
      "cumulativeGasUsed": "0x54f597",
      "logs": [
        {
          "address": "0xa25649a0f7dd8285975e2ee99078bb8570713ae0",
          "topics": [
            "0x5dbe605896cb1ee1389b209a0364bdf95efff4a597c3a34b05b3f7be8c16ef51",
            "0x0000000000000000000000000000000000000000000000000000000000000000"
          ],
          "data": "0x00000000000000000000000000000000000000000000010f0cf064dd59200000",
          "blockHash": "0x658151b003071c19e769001f0f5d886fb8925411663da4254392c9008401d5d6",
          "blockNumber": "0x64a7003",
          "blockTimestamp": "0x69f9262b",
          "transactionHash": "0xeef575d1baefb74e47e12d5d57cb96e5e331cc3f1f2ee637df52015f5b6e2b13",
          "transactionIndex": "0x14",
          "logIndex": "0x12",
          "removed": false
        }
      ],
      "logsBloom": "0x00000000000000040000000000000000000000000000000000000000000000000000000000000000000000000000000000000000000000000000000000000000000000000000000000000000000000000000000000000000000000000010000000000000020000000000000000000800000000000000000000000000000000000000000000000000000000000000000000000000000000000000000000000000000000000000000000000000000000000000000080000000000000000000000008000400000000000000000000000000000000000000000000000000000020000000000000000000000000000000000000002000000000000000000000000000",
      "type": "0x0",
      "transactionHash": "0xeef575d1baefb74e47e12d5d57cb96e5e331cc3f1f2ee637df52015f5b6e2b13",
      "transactionIndex": "0x14",
      "blockHash": "0x658151b003071c19e769001f0f5d886fb8925411663da4254392c9008401d5d6",
      "blockNumber": "0x64a7003",
      "gasUsed": "0xb953",
      "effectiveGasPrice": "0x5f5e100",
      "from": "0x2abd0d224775fb9140c04f12c3838af95847a97c",
      "to": "0xa25649a0f7dd8285975e2ee99078bb8570713ae0",
      "contractAddress": null
    },
    {
      "status": "0x1",
      "cumulativeGasUsed": "0x57c5f4",
      "logs": [
        {
          "address": "0xa25649a0f7dd8285975e2ee99078bb8570713ae0",
          "topics": [
            "0x88a37b7f98ed76ab52b5cad554c460e484bf2fe62d8cbc9610d1ef83b62c3e4b",
            "0x0000000000000000000000000000000000000000000000000000000000000001"
          ],
          "data": "0x0000000000000000000000000000000000000000000000000000000000000002",
          "blockHash": "0x658151b003071c19e769001f0f5d886fb8925411663da4254392c9008401d5d6",
          "blockNumber": "0x64a7003",
          "blockTimestamp": "0x69f9262b",
          "transactionHash": "0xea65ceb691c16971eeae2d5a0564ad4b8c00ef0ee6f4cf77ee7d7aac56eda4ec",
          "transactionIndex": "0x15",
          "logIndex": "0x13",
          "removed": false
        }
      ],
      "logsBloom": "0x00000000000000000000000000000000000000000000000000000000000000000000000000000000000000000000000000000000000000000000000000040000000000000000000000000000000000000000000000040000000000000010000000000000000000000000000000800000000000000000000000000000000000000000000000000000000000000000000000000000000000000000000000000000000000000000000000000000000000000000000000000000000000100000000008000000000000000000000000000000000000000000000000000000000040000000000000000000000002000000000000002000000000000000000000000000",
      "type": "0x0",
      "transactionHash": "0xea65ceb691c16971eeae2d5a0564ad4b8c00ef0ee6f4cf77ee7d7aac56eda4ec",
      "transactionIndex": "0x15",
      "blockHash": "0x658151b003071c19e769001f0f5d886fb8925411663da4254392c9008401d5d6",
      "blockNumber": "0x64a7003",
      "gasUsed": "0x2d05d",
      "effectiveGasPrice": "0x5f5e100",
      "from": "0x2abd0d224775fb9140c04f12c3838af95847a97c",
      "to": "0xa25649a0f7dd8285975e2ee99078bb8570713ae0",
      "contractAddress": null
    },
    {
      "status": "0x1",
      "cumulativeGasUsed": "0x587edc",
      "logs": [
        {
          "address": "0xe8efde51ca7b4b0dad84e5a7296baac87a09029b",
          "topics": [
            "0xa49730bff544fd0b716395c592e39c6fd2d2481a19b9229b5b240483db95a495",
            "0x000000000000000000000000a25649a0f7dd8285975e2ee99078bb8570713ae0"
          ],
          "data": "0x",
          "blockHash": "0x658151b003071c19e769001f0f5d886fb8925411663da4254392c9008401d5d6",
          "blockNumber": "0x64a7003",
          "blockTimestamp": "0x69f9262b",
          "transactionHash": "0x05a489c6e359ba06083f41bd0453ca092f0aed24d2c1108055447194be75fc16",
          "transactionIndex": "0x16",
          "logIndex": "0x14",
          "removed": false
        }
      ],
      "logsBloom": "0x00000000000000000000000000000000000000000000000000000000000020000000000000000000000000000000000000100000000002000000000000000000000000000000000000000000000000000000000000080000000000000000000010000000000000000000000000000000000000000000000000000000000000000000000000000000000000000000000000000000000000000000000000004000000000010000000000000000000000000000000100000000020000000000000000000000000000000000000000000000000000000000000000000000000000000000000000000000000000000000000000000000000000000000000000000000",
      "type": "0x0",
      "transactionHash": "0x05a489c6e359ba06083f41bd0453ca092f0aed24d2c1108055447194be75fc16",
      "transactionIndex": "0x16",
      "blockHash": "0x658151b003071c19e769001f0f5d886fb8925411663da4254392c9008401d5d6",
      "blockNumber": "0x64a7003",
      "gasUsed": "0xb8e8",
      "effectiveGasPrice": "0x5f5e100",
      "from": "0x2abd0d224775fb9140c04f12c3838af95847a97c",
      "to": "0xe8efde51ca7b4b0dad84e5a7296baac87a09029b",
      "contractAddress": null
    }
  ],
  "libraries": [],
  "pending": [],
  "returns": {},
  "timestamp": 1777935917194,
  "chain": 97,
  "commit": null
}