{
  "transactions": [
    {
      "hash": "0x75c4db7e485bc4817d18685bd0777bcfc32b041c39b65ef0a5c2313cce944c14",
      "transactionType": "CREATE",
      "contractName": "BridgeOutbox",
      "contractAddress": "0xa195f05ddfe97514c7a7ede113204f8752828383",
      "function": null,
      "arguments": [
        "0x2ABd0D224775Fb9140c04f12c3838Af95847A97c",
        "33554434"
      ],
      "transaction": {
        "from": "0x2abd0d224775fb9140c04f12c3838af95847a97c",
        "gas": "0x21c731",
        "value": "0x0",
        "input": "0x60a060405234801562000010575f80fd5b5060405162001e4038038062001e408339810160408190526200003391620000f1565b816001600160a01b0381166200006257604051631e4fbdf760e01b81525f600482015260240160405180910390fd5b6200006d81620000a2565b5060017f9b779b17422d0df92223018b32b4d1fa46e071723d6817e2486d003becc55f005563ffffffff16608052506200013f565b5f80546001600160a01b038381166001600160a01b0319831681178455604051919092169283917f8be0079c531659141344cd1fd0a4f28419497f9722a3daafe3b4186f6b6457e09190a35050565b5f806040838503121562000103575f80fd5b82516001600160a01b03811681146200011a575f80fd5b602084015190925063ffffffff8116811462000134575f80fd5b809150509250929050565b608051611ce16200015f5f395f81816102ea01526107800152611ce15ff3fe608060405234801561000f575f80fd5b5060043610610153575f3560e01c80638d3638f4116100bf578063d44fa33e11610079578063d44fa33e14610396578063db23809d146103b8578063de4c41ca146103e5578063eee31fb21461040d578063f2fde38b14610420578063fcff047314610433575f80fd5b80638d3638f4146102e55780638da5cb5b146103215780638f7a25fe1461033b5780639e0bbd9f1461034e578063a0aa434c14610361578063b7033a0314610383575f80fd5b806361a552dc1161011057806361a552dc1461024957806363574ed01461025c578063715018a61461028f57806376cad83414610297578063775db9d3146102aa578063891bad80146102d2575f80fd5b80631458561d1461015757806329d1c26b1461019c5780632e6d05a8146101b15780633e8a727c146101e357806344ca0ebe1461022357806359e9ab1a14610236575b5f80fd5b61017f6101653660046117ad565b60076020525f90815260409020546001600160401b031681565b6040516001600160401b0390911681526020015b60405180910390f35b6101af6101aa3660046117cd565b610446565b005b6101d36101bf3660046117ad565b60016020525f908152604090205460ff1681565b6040519015158152602001610193565b61020b6101f13660046117cd565b60046020525f90815260409020546001600160801b031681565b6040516001600160801b039091168152602001610193565b6101af6102313660046117fa565b610490565b6101af610244366004611833565b6104fc565b5f546101d390600160a01b900460ff1681565b61020b61026a366004611873565b600960209081525f92835260408084209091529082529020546001600160801b031681565b6101af61056d565b6101af6102a5366004611893565b610580565b61020b6102b83660046117cd565b60056020525f90815260409020546001600160801b031681565b6101af6102e03660046117fa565b6105df565b61030c7f000000000000000000000000000000000000000000000000000000000000000081565b60405163ffffffff9091168152602001610193565b5f546040516001600160a01b039091168152602001610193565b6101af6103493660046117ad565b610643565b6101af61035c3660046117ad565b610696565b6101d361036f3660046117cd565b60086020525f908152604090205460ff1681565b6101af6103913660046117fa565b6106e3565b6101d36103a43660046117cd565b60036020525f908152604090205460ff1681565b6101d36103c63660046118ac565b600260209081525f928352604080842090915290825290205460ff1681565b61020b6103f33660046117cd565b60066020525f90815260409020546001600160801b031681565b6101af61041b3660046118d4565b610747565b6101af61042e3660046118eb565b610ce4565b6101af6104413660046117cd565b610d1e565b61044e610d65565b5f81815260036020526040808220805460ff191660011790555182917fe7019739d91346eb9e4a6525783e16c9659c2d355c6e504e85c56d1576a42a3f91a250565b610498610d65565b5f8281526005602090815260409182902080546001600160801b0319166001600160801b038516908117909155915191825283917fbf00e2077595566a521b8e3599a0682bc8700c6362401b1ce63b6f9c5bd5d1e791015b60405180910390a25050565b610504610d65565b63ffffffff8381165f81815260026020908152604080832094871680845294825291829020805460ff191686151590811790915591519182527ff33911f66d1f2feb3597feeb9deebd5187733ffcc2b855300462a01c8d391bb4910160405180910390a3505050565b610575610d65565b61057e5f610d91565b565b610588610d65565b5f8054821515600160a01b0260ff60a01b199091161790556040517f256bf8e8b40cbfb88946b4d95d17bf45cb52d93ba9d2f767df67c6c15f0253f7906105d490831515815260200190565b60405180910390a150565b6105e7610d65565b5f8281526006602090815260409182902080546001600160801b0319166001600160801b038516908117909155915191825283917fadca0b8792a4724d673614590b704b591e207730ea48fcd3eed067bd9bfa3be891016104f0565b61064b610d65565b63ffffffff81165f818152600160208190526040808320805460ff1916909217909155517fe318049ad851e4adc0e72a31d8092de055c31ff255db0375642a8d9cd4ee6ace9190a250565b61069e610d65565b63ffffffff81165f81815260016020526040808220805460ff19169055517fc60cf0bdf6c913c2d080d151c29909503abb49cdd09b459a7a10a16a466d02da9190a250565b6106eb610d65565b5f8281526004602090815260409182902080546001600160801b0319166001600160801b038516908117909155915191825283917f50bdeb701af64503086964d663578aca632ba21bb2fdd9e35b9f92c97301431891016104f0565b61074f610de0565b5f54600160a01b900460ff161561077957604051638bee704f60e01b815260040160405180910390fd5b63ffffffff7f0000000000000000000000000000000000000000000000000000000000000000166107b060608301604084016117ad565b63ffffffff16146107d457604051631b91204960e01b815260040160405180910390fd5b6107e460608201604083016117ad565b63ffffffff166107fa60808301606084016117ad565b63ffffffff160361081e5760405163aa68646360e01b815260040160405180910390fd5b60015f61083160808401606085016117ad565b63ffffffff16815260208101919091526040015f205460ff166108855761085e60808201606083016117ad565b60405163150bc7fb60e31b815263ffffffff90911660048201526024015b60405180910390fd5b60025f61089860608401604085016117ad565b63ffffffff16815260208101919091526040015f908120906108c060808401606085016117ad565b63ffffffff16815260208101919091526040015f205460ff16156108f75760405163cc293e6760e01b815260040160405180910390fd5b60c08101355f9081526003602052604090205460ff1661092a5760405163981a2a2b60e01b815260040160405180910390fd5b61093c61014082016101208301611911565b6001600160801b03165f03610964576040516365e52d5160e11b815260040160405180910390fd5b4261097761026083016102408401611940565b6001600160401b0316101561099f57604051631da7447960e21b815260040160405180910390fd5b5f6109b76109b2368490038401846119af565b610e0e565b5f8181526008602052604090205490915060ff16156109e95760405163081da57f60e11b815260040160405180910390fd5b5f818152600860205260408120805460ff19166001179055600781610a1460808601606087016117ad565b63ffffffff16815260208101919091526040015f2054610a3e906001600160401b03166001611b3b565b90506001600160401b038116610a5c61024085016102208601611940565b6001600160401b031614610a835760405163e112ed9160e01b815260040160405180910390fd5b8060075f610a9760808701606088016117ad565b63ffffffff16815260208082019290925260409081015f908120805467ffffffffffffffff19166001600160401b03959095169490941790935560c0860135835260069091529020546001600160801b03168015801590610b1a57506001600160801b038116610b0f61014086016101208701611911565b6001600160801b0316115b15610b3857604051633e67939b60e11b815260040160405180910390fd5b60c08401355f908152600460205260409020546001600160801b03168015610c20575f610b686201518042611b5b565b90505f610b7d61014088016101208901611911565b60c08801355f908152600960209081526040808320868452909152902054610bae91906001600160801b0316611b7a565b9050826001600160801b0316816001600160801b03161115610be3576040516319a6616560e31b815260040160405180910390fd5b60c08701355f9081526009602090815260408083209483529390529190912080546001600160801b0319166001600160801b039092169190911790555b5f610c38610c33368890038801886119af565b610e81565b905060c0860135610c4f60808801606089016117ad565b63ffffffff16867f4606f3bc65fa208233667f645c8b4a701a40b64c42192b85d741b8ed4c3bb862610c896101408b016101208c01611911565b610c9b6102408c016102208d01611940565b86604051610cab93929190611bbc565b60405180910390a45050505050610ce160017f9b779b17422d0df92223018b32b4d1fa46e071723d6817e2486d003becc55f0055565b50565b610cec610d65565b6001600160a01b038116610d1557604051631e4fbdf760e01b81525f600482015260240161087c565b610ce181610d91565b610d26610d65565b5f81815260036020526040808220805460ff191690555182917f0f0d13a46c2eec76f3c5a974f20aea6ef7128eae40258bb2adfaf76de73116e391a250565b5f546001600160a01b0316331461057e5760405163118cdaa760e01b815233600482015260240161087c565b5f80546001600160a01b038381166001600160a01b0319831681178455604051919092169283917f8be0079c531659141344cd1fd0a4f28419497f9722a3daafe3b4186f6b6457e09190a35050565b610de86113f2565b60027f9b779b17422d0df92223018b32b4d1fa46e071723d6817e2486d003becc55f0055565b5f80610e1983610e81565b90506040518060400160405280601f81526020017f57484954455f505249564154455f4252494447455f4d4553534147455f56310081525081604051602001610e63929190611c0e565b60405160208183030381529060405280519060200120915050919050565b6060610e8c82611434565b604080516101c380825261020082019092525f916020820181803683370190505083519091505f9060f01b6001600160f81b0319168282610ecc81611c3c565b935081518110610ede57610ede611c54565b60200101906001600160f81b03191690815f1a905350835160f81b8282610f0481611c3c565b935081518110610f1657610f16611c54565b60200101906001600160f81b03191690815f1a905350602084015160f81b8282610f3f81611c3c565b935081518110610f5157610f51611c54565b60200101906001600160f81b03191690815f1a905350604084015160e01b6001600160f81b0319168282610f8481611c3c565b935081518110610f9657610f96611c54565b60200101906001600160f81b03191690815f1a905350604084015160e81b6001600160f81b0319168282610fc981611c3c565b935081518110610fdb57610fdb611c54565b60200101906001600160f81b03191690815f1a905350604084015160f01b6001600160f81b031916828261100e81611c3c565b93508151811061102057611020611c54565b60200101906001600160f81b03191690815f1a905350604084015160f81b828261104981611c3c565b93508151811061105b5761105b611c54565b60200101906001600160f81b03191690815f1a905350606084015160e01b6001600160f81b031916828261108e81611c3c565b9350815181106110a0576110a0611c54565b60200101906001600160f81b03191690815f1a905350606084015160e81b6001600160f81b03191682826110d381611c3c565b9350815181106110e5576110e5611c54565b60200101906001600160f81b03191690815f1a905350606084015160f01b6001600160f81b031916828261111881611c3c565b93508151811061112a5761112a611c54565b60200101906001600160f81b03191690815f1a905350606084015160f81b828261115381611c3c565b93508151811061116557611165611c54565b60200101906001600160f81b03191690815f1a90535061118a828286608001516116a9565b611195600882611c68565b90506111a682828660a001516116a9565b6111b1600882611c68565b60c08501516020848301015290506111ca602082611c68565b60e08501516020848301015290506111e3602082611c68565b6101008501516020848301015290506111fd602082611c68565b905061120f8282866101200151611722565b61121a601082611c68565b610140850151602084830101529050611234602082611c68565b61016085015160208483010152905061124e602082611c68565b610180850151602084830101529050611268602082611c68565b905061127a8282866101a001516116a9565b611285600882611c68565b6101c085015160208483010152905061129f602082611c68565b90506112b18282866101e001516116a9565b6112bc600882611c68565b90506112ce82828661020001516116a9565b6112d9600882611c68565b90506112eb82828661022001516116a9565b6112f6600882611c68565b905061130882828661024001516116a9565b611313600882611c68565b90506113258282866102600151611722565b611330601082611c68565b61028085015160208483010152905061134a602082611c68565b6102a0850151602084830101529050611364602082611c68565b6102c085015160208483010152905061137e602082611c68565b6102e0850151602084830101529050611398602082611c68565b90506101c381146113eb5760405162461bcd60e51b815260206004820152601860248201527f456e636f64696e67206c656e677468206d69736d617463680000000000000000604482015260640161087c565b5092915050565b7f9b779b17422d0df92223018b32b4d1fa46e071723d6817e2486d003becc55f005460020361057e57604051633ee5aeb560e01b815260040160405180910390fd5b805161ffff1660011461146a57805160405163d566816360e01b815261ffff90911660048201526001602482015260440161087c565b602081015160ff1660011480159061148a5750602081015160ff16600214155b156114b35760208101516040516305bf7a5960e51b815260ff909116600482015260240161087c565b806040015163ffffffff165f036114fc5760405163160a1aff60e01b815260206004820152600c60248201526b39b7bab931b2a237b6b0b4b760a11b604482015260640161087c565b806060015163ffffffff165f0361154a5760405163160a1aff60e01b81526020600482015260116024820152703232b9ba34b730ba34b7b72237b6b0b4b760791b604482015260640161087c565b806060015163ffffffff16816040015163ffffffff160361157e5760405163aa68646360e01b815260040160405180910390fd5b8061012001516001600160801b03165f036115ac57604051631f2a200560e01b815260040160405180910390fd5b8061024001516001600160401b03165f036115da5760405163f728a30560e01b815260040160405180910390fd5b60c08101516115fc57604051632483b04760e11b815260040160405180910390fd5b602081015160ff1660011480156116165750610160810151155b15611634576040516308546ec960e11b815260040160405180910390fd5b602081015160ff16600114801561164e5750610140810151155b1561166c576040516307f5903160e41b815260040160405180910390fd5b806101e001516001600160401b03168161020001516001600160401b03161015610ce157604051631ef2c12360e11b815260040160405180910390fd5b5f5b600881101561171c576116bf816008611c81565b6116ca906038611c98565b6001600160401b038316901c60f81b846116e48386611c68565b815181106116f4576116f4611c54565b60200101906001600160f81b03191690815f1a9053508061171481611c3c565b9150506116ab565b50505050565b5f5b601081101561171c57611738816008611c81565b611743906078611c98565b6001600160801b038316901c60f81b8461175d8386611c68565b8151811061176d5761176d611c54565b60200101906001600160f81b03191690815f1a9053508061178d81611c3c565b915050611724565b803563ffffffff811681146117a8575f80fd5b919050565b5f602082840312156117bd575f80fd5b6117c682611795565b9392505050565b5f602082840312156117dd575f80fd5b5035919050565b80356001600160801b03811681146117a8575f80fd5b5f806040838503121561180b575f80fd5b8235915061181b602084016117e4565b90509250929050565b803580151581146117a8575f80fd5b5f805f60608486031215611845575f80fd5b61184e84611795565b925061185c60208501611795565b915061186a60408501611824565b90509250925092565b5f8060408385031215611884575f80fd5b50508035926020909101359150565b5f602082840312156118a3575f80fd5b6117c682611824565b5f80604083850312156118bd575f80fd5b6118c683611795565b915061181b60208401611795565b5f61030082840312156118e5575f80fd5b50919050565b5f602082840312156118fb575f80fd5b81356001600160a01b03811681146117c6575f80fd5b5f60208284031215611921575f80fd5b6117c6826117e4565b80356001600160401b03811681146117a8575f80fd5b5f60208284031215611950575f80fd5b6117c68261192a565b60405161030081016001600160401b038111828210171561198857634e487b7160e01b5f52604160045260245ffd5b60405290565b803561ffff811681146117a8575f80fd5b803560ff811681146117a8575f80fd5b5f61030082840312156119c0575f80fd5b6119c8611959565b6119d18361198e565b81526119df6020840161199f565b60208201526119f060408401611795565b6040820152611a0160608401611795565b6060820152611a126080840161192a565b6080820152611a2360a0840161192a565b60a082015260c083013560c082015260e083013560e0820152610100808401358183015250610120611a568185016117e4565b908201526101408381013590820152610160808401359082015261018080840135908201526101a0611a8981850161192a565b908201526101c083810135908201526101e0611aa681850161192a565b90820152610200611ab884820161192a565b90820152610220611aca84820161192a565b90820152610240611adc84820161192a565b90820152610260611aee8482016117e4565b9082015261028083810135908201526102a080840135908201526102c080840135908201526102e0928301359281019290925250919050565b634e487b7160e01b5f52601160045260245ffd5b6001600160401b038181168382160190808211156113eb576113eb611b27565b5f82611b7557634e487b7160e01b5f52601260045260245ffd5b500490565b6001600160801b038181168382160190808211156113eb576113eb611b27565b5f5b83811015611bb4578181015183820152602001611b9c565b50505f910152565b6001600160801b03841681526001600160401b0383166020820152606060408201525f8251806060840152611bf8816080850160208701611b9a565b601f01601f191691909101608001949350505050565b5f8351611c1f818460208801611b9a565b835190830190611c33818360208801611b9a565b01949350505050565b5f60018201611c4d57611c4d611b27565b5060010190565b634e487b7160e01b5f52603260045260245ffd5b80820180821115611c7b57611c7b611b27565b92915050565b8082028115828204841417611c7b57611c7b611b27565b81810381811115611c7b57611c7b611b2756fea26469706673582212202c2d22793f93168eb7de8c481a02178069fa410b219f29dce7872a570153658864736f6c634300081400330000000000000000000000002abd0d224775fb9140c04f12c3838af95847a97c0000000000000000000000000000000000000000000000000000000002000002",
        "nonce": "0x9d",
        "chainId": "0x14a34"
      },
      "additionalContracts": [],
      "isFixedGasLimit": false
    },
    {
      "hash": "0xb3fe33ed3189a603732e4a1d5773cbee1e4b4515c30617819ecd68f83290e2f7",
      "transactionType": "CREATE",
      "contractName": "BridgeInbox",
      "contractAddress": "0x4d4adb460c5c882becbe95d0562769eca812d1fc",
      "function": null,
      "arguments": [
        "0x2ABd0D224775Fb9140c04f12c3838Af95847A97c",
        "33554434"
      ],
      "transaction": {
        "from": "0x2abd0d224775fb9140c04f12c3838af95847a97c",
        "gas": "0x30bbb9",
        "value": "0x0",
        "input": "0x60a060405234801562000010575f80fd5b5060405162002bde38038062002bde8339810160408190526200003391620000f1565b816001600160a01b0381166200006257604051631e4fbdf760e01b81525f600482015260240160405180910390fd5b6200006d81620000a2565b5060017f9b779b17422d0df92223018b32b4d1fa46e071723d6817e2486d003becc55f005563ffffffff16608052506200013f565b5f80546001600160a01b038381166001600160a01b0319831681178455604051919092169283917f8be0079c531659141344cd1fd0a4f28419497f9722a3daafe3b4186f6b6457e09190a35050565b5f806040838503121562000103575f80fd5b82516001600160a01b03811681146200011a575f80fd5b602084015190925063ffffffff8116811462000134575f80fd5b809150509250929050565b608051612a7f6200015f5f395f81816104360152610c140152612a7f5ff3fe608060405234801561000f575f80fd5b5060043610610234575f3560e01c80638da5cb5b11610135578063cfb24bf8116100b4578063de4c41ca11610079578063de4c41ca14610611578063df03917014610639578063f2fde38b14610661578063fcff047314610674578063fed0a26f14610687575f80fd5b8063cfb24bf81461056b578063d297029c1461058d578063d44fa33e146105af578063d59c96b7146105d1578063db23809d146105e4575f80fd5b8063ad72c52c116100fa578063ad72c52c146104f3578063b299804a14610506578063b751251414610519578063bfe291df1461052c578063ce8e8c5814610543575f80fd5b80638da5cb5b1461046d5780638f7a25fe1461047d5780639bb3a5dd146104905780639e0bbd9f146104b8578063a9657757146104cb575f80fd5b806359e9ab1a116101c157806376cad8341161018657806376cad834146103ba57806378c86daf146103cd578063891bad80146103e0578063897d6713146103f35780638d3638f414610431575f80fd5b806359e9ab1a1461034e57806361a552dc146103615780636ee21cac14610374578063715018a61461039f578063734ea8bc146103a7575f80fd5b806329d1c26b1161020757806329d1c26b146102d15780632e6d05a8146102e4578063307addfe146103065780633c625b6614610319578063470feb871461032c575f80fd5b806301f5e1fb1461023857806308aa67971461026f5780630f678e361461029157806325a13b49146102a6575b5f80fd5b61025a61024636600461239f565b600a6020525f908152604090205460ff1681565b60405190151581526020015b60405180910390f35b61025a61027d36600461239f565b600b6020525f908152604090205460ff1681565b6102a461029f3660046123d1565b6106ba565b005b6001546102b9906001600160801b031681565b6040516001600160801b039091168152602001610266565b6102a46102df36600461239f565b6106e4565b61025a6102f23660046123fd565b60046020525f908152604090205460ff1681565b6102a461031436600461242c565b61072e565b6102a461032736600461248c565b61078c565b61025a61033a36600461239f565b5f908152600a602052604090205460ff1690565b6102a461035c3660046124e2565b61084c565b5f5461025a90600160a01b900460ff1681565b600c54610387906001600160a01b031681565b6040516001600160a01b039091168152602001610266565b6102a46108bd565b6102a46103b536600461239f565b6108d0565b6102a46103c8366004612522565b61091a565b6102a46103db36600461253b565b610979565b6102a46103ee366004612565565b6109c3565b61041c61040136600461239f565b600260208190525f9182526040909120600181015491015482565b60408051928352602083019190915201610266565b6104587f000000000000000000000000000000000000000000000000000000000000000081565b60405163ffffffff9091168152602001610266565b5f546001600160a01b0316610387565b6102a461048b3660046123fd565b610a2f565b6102b961049e36600461239f565b60106020525f90815260409020546001600160801b031681565b6102a46104c63660046123fd565b610a7f565b6103876104d936600461239f565b600d6020525f90815260409020546001600160a01b031681565b6102a4610501366004612565565b610acc565b6102a4610514366004612565565b610b30565b6102a461052736600461239f565b610b94565b61053560035481565b604051908152602001610266565b6102b961055136600461239f565b60076020525f90815260409020546001600160801b031681565b61025a61057936600461239f565b5f908152600b602052604090205460ff1690565b61025a61059b36600461239f565b600e6020525f908152604090205460ff1681565b61025a6105bd36600461239f565b60066020525f908152604090205460ff1681565b6102a46105df366004612586565b610bdb565b61025a6105f23660046125e5565b600560209081525f928352604080842090915290825290205460ff1681565b6102b961061f36600461239f565b60096020525f90815260409020546001600160801b031681565b6102b961064736600461239f565b60086020525f90815260409020546001600160801b031681565b6102a461066f3660046123d1565b611317565b6102a461068236600461239f565b611354565b6102b961069536600461260d565b600f60209081525f92835260408084209091529082529020546001600160801b031681565b6106c261139b565b600c80546001600160a01b0319166001600160a01b0392909216919091179055565b6106ec61139b565b5f81815260066020526040808220805460ff191660011790555182917fe7019739d91346eb9e4a6525783e16c9659c2d355c6e504e85c56d1576a42a3f91a250565b61073661139b565b600180546001600160801b0319166001600160801b0383169081179091556040519081525f907f5dbe605896cb1ee1389b209a0364bdf95efff4a597c3a34b05b3f7be8c16ef519060200160405180910390a250565b61079461139b565b6107d18383808060200260200160405190810160405280939291908181526020018383602002808284375f920191909152508592506113c7915050565b5f60035460016107e19190612641565b60038190555f81815260026020526040902090915061080181868661232a565b50600181018390556002810182905560405183815282907f88a37b7f98ed76ab52b5cad554c460e484bf2fe62d8cbc9610d1ef83b62c3e4b9060200160405180910390a25050505050565b61085461139b565b63ffffffff8381165f81815260056020908152604080832094871680845294825291829020805460ff191686151590811790915591519182527fc2cc693957e0dedee1b9c1fb5cc5e3dd8686fbe8cc87514deafba93836d88434910160405180910390a3505050565b6108c561139b565b6108ce5f611526565b565b6108d861139b565b5f818152600b6020526040808220805460ff191660011790555182917f3a7e2f377f2cf35efb71990c4ffd73e2f4d6ded782b697446d65a60b106aa0c391a250565b61092261139b565b5f8054821515600160a01b0260ff60a01b199091161790556040517f256bf8e8b40cbfb88946b4d95d17bf45cb52d93ba9d2f767df67c6c15f0253f79061096e90831515815260200190565b60405180910390a150565b61098161139b565b5f918252600d6020908152604080842080546001600160a01b0319166001600160a01b039490941693909317909255600e90529020805460ff19166001179055565b6109cb61139b565b5f8281526009602090815260409182902080546001600160801b0319166001600160801b038516908117909155915191825283917fadca0b8792a4724d673614590b704b591e207730ea48fcd3eed067bd9bfa3be891015b60405180910390a25050565b610a3761139b565b63ffffffff81165f81815260046020526040808220805460ff19166001179055517f5bf2630de04acf68404978bfc90d2e25430c41148cc9d06f7547926cc41114e39190a250565b610a8761139b565b63ffffffff81165f81815260046020526040808220805460ff19169055517f52be441fc39e7e2726b04c1106a4ac631582b01be870630dba8c23cd8fbf8fa19190a250565b610ad461139b565b5f8281526008602090815260409182902080546001600160801b0319166001600160801b038516908117909155915191825283917f5dbe605896cb1ee1389b209a0364bdf95efff4a597c3a34b05b3f7be8c16ef519101610a23565b610b3861139b565b5f8281526007602090815260409182902080546001600160801b0319166001600160801b038516908117909155915191825283917f331ce957b83ed02d6afee380cba159ab824a8280ca085d71dec9b50e38e130569101610a23565b610b9c61139b565b5f818152600b6020526040808220805460ff191690555182917f9d1221a39d80151ff5784e76d45efbbcaa9f2c1dda1b57ffbaee926b5583954591a250565b610be3611575565b5f54600160a01b900460ff1615610c0d57604051638bee704f60e01b815260040160405180910390fd5b63ffffffff7f000000000000000000000000000000000000000000000000000000000000000016610c4460808601606087016123fd565b63ffffffff1614610c6857604051632cebb6b160e21b815260040160405180910390fd5b610c7860808501606086016123fd565b63ffffffff16610c8e60608601604087016123fd565b63ffffffff1603610cb25760405163aa68646360e01b815260040160405180910390fd5b60045f610cc560608701604088016123fd565b63ffffffff16815260208101919091526040015f205460ff16610d1957610cf260608501604086016123fd565b60405163150bc7fb60e31b815263ffffffff90911660048201526024015b60405180910390fd5b60055f610d2c60608701604088016123fd565b63ffffffff16815260208101919091526040015f90812090610d5460808701606088016123fd565b63ffffffff16815260208101919091526040015f205460ff1615610d8b5760405163cc293e6760e01b815260040160405180910390fd5b60c08401355f9081526006602052604090205460ff16610dbe5760405163981a2a2b60e01b815260040160405180910390fd5b610dd06101408501610120860161242c565b6001600160801b03165f03610df8576040516365e52d5160e11b815260040160405180910390fd5b42610e0b6102608601610240870161266a565b6001600160401b03161015610e3357604051631ab7da6b60e01b815260040160405180910390fd5b5f610e4b610e4636879003870187612711565b6115a3565b5f818152600a602052604090205490915060ff1615610e7d57604051631a74436f60e11b815260040160405180910390fd5b5f818152600b602052604090205460ff1615610eac57604051633ca341e560e01b815260040160405180910390fd5b6003548214610ece57604051630bab494760e41b815260040160405180910390fd5b5f828152600260205260409020610f6782610ee98688612889565b60408051855460806020820283018101909352606082018181529192879284929091849190840182828015610f4557602002820191905f5260205f20905b81546001600160a01b03168152600190910190602001808311610f27575b5050505050815260200160018201548152602001600282015481525050611616565b5060c08601355f908152600960205260409020546001600160801b03168015801590610fb557506001600160801b038116610faa61014089016101208a0161242c565b6001600160801b0316115b15610fd357604051633e67939b60e11b815260040160405180910390fd5b5f610fe16201518042612957565b60c08901355f908152600860205260409020549091506001600160801b031680156110bb575f6110196101408b016101208c0161242c565b60c08b01355f908152600f6020908152604080832087845290915290205461104a91906001600160801b0316612976565b9050816001600160801b0316816001600160801b0316111561107f5760405163055f9e4d60e41b815260040160405180910390fd5b60c08a01355f908152600f60209081526040808320868452909152902080546001600160801b0319166001600160801b03929092169190911790555b6001546001600160801b03161561115f575f6110df6101408b016101208c0161242c565b5f8481526010602052604090205461110091906001600160801b0316612976565b6001549091506001600160801b03908116908216111561113357604051634812fb7160e11b815260040160405180910390fd5b5f83815260106020526040902080546001600160801b0319166001600160801b03929092169190911790555b60c08901355f908152600e602052604090205460ff16611192576040516335cd0e1f60e01b815260040160405180910390fd5b60c08901355f908152600d6020526040902054600c546001600160a01b03918216911663f661e631826111cd6101408e016101208f0161242c565b6040516001600160e01b031960e085901b1681526001600160a01b0390921660048301526001600160801b031660248201526101608d013560448201526064015f604051808303815f87803b158015611224575f80fd5b505af1158015611236573d5f803e3d5ffd5b505050506001600a5f8881526020019081526020015f205f6101000a81548160ff0219169083151502179055508960c001358a6101600135877f662336832bc4c001ee756bff920a193cd7905cd97fae42597c27d94e42b67fde8d6101200160208101906112a4919061242c565b8e6102200160208101906112b8919061266a565b604080516001600160801b0390931683526001600160401b0390911660208301520160405180910390a450505050505061131160017f9b779b17422d0df92223018b32b4d1fa46e071723d6817e2486d003becc55f0055565b50505050565b61131f61139b565b6001600160a01b03811661134857604051631e4fbdf760e01b81525f6004820152602401610d10565b61135181611526565b50565b61135c61139b565b5f81815260066020526040808220805460ff191690555182917f0f0d13a46c2eec76f3c5a974f20aea6ef7128eae40258bb2adfaf76de73116e391a250565b5f546001600160a01b031633146108ce5760405163118cdaa760e01b8152336004820152602401610d10565b81515f036113e8576040516365607ec160e11b815260040160405180910390fd5b805f036114085760405163aabd5a0960e01b815260040160405180910390fd5b815181111561142a5760405163aabd5a0960e01b815260040160405180910390fd5b5f5b8251811015611521575f6001600160a01b031683828151811061145157611451612996565b60200260200101516001600160a01b0316036114805760405163e5c48ac560e01b815260040160405180910390fd5b5f61148c826001612641565b90505b835181101561150e578381815181106114aa576114aa612996565b60200260200101516001600160a01b03168483815181106114cd576114cd612996565b60200260200101516001600160a01b0316036114fc57604051638044bb3360e01b815260040160405180910390fd5b80611506816129aa565b91505061148f565b5080611519816129aa565b91505061142c565b505050565b5f80546001600160a01b038381166001600160a01b0319831681178455604051919092169283917f8be0079c531659141344cd1fd0a4f28419497f9722a3daafe3b4186f6b6457e09190a35050565b61157d6117c2565b60027f9b779b17422d0df92223018b32b4d1fa46e071723d6817e2486d003becc55f0055565b5f806115ae83611804565b90506040518060400160405280601f81526020017f57484954455f505249564154455f4252494447455f4d4553534147455f563100815250816040516020016115f89291906129ef565b60405160208183030381529060405280519060200120915050919050565b8051515f90810361163a576040516365607ec160e11b815260040160405180910390fd5b81602001515f0361165e5760405163aabd5a0960e01b815260040160405180910390fd5b815151602083015111156116855760405163aabd5a0960e01b815260040160405180910390fd5b8160200151835110156116ab576040516359fa4a9360e01b815260040160405180910390fd5b505f80805b84518110156117a1575f6116e68683815181106116cf576116cf612996565b602002602001015188611d7590919063ffffffff16565b90506001600160a01b03811661170f57604051638baa579f60e01b815260040160405180910390fd5b826001600160a01b0316816001600160a01b031611611741576040516301eba55160e01b815260040160405180910390fd5b61174e81865f0151611d9f565b61176b57604051632057875960e21b815260040160405180910390fd5b91508183611778816129aa565b9450508460200151841061178e575050506117bb565b5080611799816129aa565b9150506116b0565b506040516359fa4a9360e01b815260040160405180910390fd5b9392505050565b7f9b779b17422d0df92223018b32b4d1fa46e071723d6817e2486d003becc55f00546002036108ce57604051633ee5aeb560e01b815260040160405180910390fd5b606061180f82611e02565b604080516101c380825261020082019092525f916020820181803683370190505083519091505f9060f01b6001600160f81b031916828261184f816129aa565b93508151811061186157611861612996565b60200101906001600160f81b03191690815f1a905350835160f81b8282611887816129aa565b93508151811061189957611899612996565b60200101906001600160f81b03191690815f1a905350602084015160f81b82826118c2816129aa565b9350815181106118d4576118d4612996565b60200101906001600160f81b03191690815f1a905350604084015160e01b6001600160f81b0319168282611907816129aa565b93508151811061191957611919612996565b60200101906001600160f81b03191690815f1a905350604084015160e81b6001600160f81b031916828261194c816129aa565b93508151811061195e5761195e612996565b60200101906001600160f81b03191690815f1a905350604084015160f01b6001600160f81b0319168282611991816129aa565b9350815181106119a3576119a3612996565b60200101906001600160f81b03191690815f1a905350604084015160f81b82826119cc816129aa565b9350815181106119de576119de612996565b60200101906001600160f81b03191690815f1a905350606084015160e01b6001600160f81b0319168282611a11816129aa565b935081518110611a2357611a23612996565b60200101906001600160f81b03191690815f1a905350606084015160e81b6001600160f81b0319168282611a56816129aa565b935081518110611a6857611a68612996565b60200101906001600160f81b03191690815f1a905350606084015160f01b6001600160f81b0319168282611a9b816129aa565b935081518110611aad57611aad612996565b60200101906001600160f81b03191690815f1a905350606084015160f81b8282611ad6816129aa565b935081518110611ae857611ae8612996565b60200101906001600160f81b03191690815f1a905350611b0d82828660800151612077565b611b18600882612641565b9050611b2982828660a00151612077565b611b34600882612641565b60c0850151602084830101529050611b4d602082612641565b60e0850151602084830101529050611b66602082612641565b610100850151602084830101529050611b80602082612641565b9050611b9282828661012001516120ea565b611b9d601082612641565b610140850151602084830101529050611bb7602082612641565b610160850151602084830101529050611bd1602082612641565b610180850151602084830101529050611beb602082612641565b9050611bfd8282866101a00151612077565b611c08600882612641565b6101c0850151602084830101529050611c22602082612641565b9050611c348282866101e00151612077565b611c3f600882612641565b9050611c518282866102000151612077565b611c5c600882612641565b9050611c6e8282866102200151612077565b611c79600882612641565b9050611c8b8282866102400151612077565b611c96600882612641565b9050611ca882828661026001516120ea565b611cb3601082612641565b610280850151602084830101529050611ccd602082612641565b6102a0850151602084830101529050611ce7602082612641565b6102c0850151602084830101529050611d01602082612641565b6102e0850151602084830101529050611d1b602082612641565b90506101c38114611d6e5760405162461bcd60e51b815260206004820152601860248201527f456e636f64696e67206c656e677468206d69736d6174636800000000000000006044820152606401610d10565b5092915050565b5f805f80611d83868661215d565b925092509250611d9382826121a6565b50909150505b92915050565b5f805b8251811015611df957836001600160a01b0316838281518110611dc757611dc7612996565b60200260200101516001600160a01b031603611de7576001915050611d99565b80611df1816129aa565b915050611da2565b505f9392505050565b805161ffff16600114611e3857805160405163d566816360e01b815261ffff909116600482015260016024820152604401610d10565b602081015160ff16600114801590611e585750602081015160ff16600214155b15611e815760208101516040516305bf7a5960e51b815260ff9091166004820152602401610d10565b806040015163ffffffff165f03611eca5760405163160a1aff60e01b815260206004820152600c60248201526b39b7bab931b2a237b6b0b4b760a11b6044820152606401610d10565b806060015163ffffffff165f03611f185760405163160a1aff60e01b81526020600482015260116024820152703232b9ba34b730ba34b7b72237b6b0b4b760791b6044820152606401610d10565b806060015163ffffffff16816040015163ffffffff1603611f4c5760405163aa68646360e01b815260040160405180910390fd5b8061012001516001600160801b03165f03611f7a57604051631f2a200560e01b815260040160405180910390fd5b8061024001516001600160401b03165f03611fa85760405163f728a30560e01b815260040160405180910390fd5b60c0810151611fca57604051632483b04760e11b815260040160405180910390fd5b602081015160ff166001148015611fe45750610160810151155b15612002576040516308546ec960e11b815260040160405180910390fd5b602081015160ff16600114801561201c5750610140810151155b1561203a576040516307f5903160e41b815260040160405180910390fd5b806101e001516001600160401b03168161020001516001600160401b0316101561135157604051631ef2c12360e11b815260040160405180910390fd5b5f5b60088110156113115761208d816008612a0b565b612098906038612a22565b6001600160401b038316901c60f81b846120b28386612641565b815181106120c2576120c2612996565b60200101906001600160f81b03191690815f1a905350806120e2816129aa565b915050612079565b5f5b601081101561131157612100816008612a0b565b61210b906078612a22565b6001600160801b038316901c60f81b846121258386612641565b8151811061213557612135612996565b60200101906001600160f81b03191690815f1a90535080612155816129aa565b9150506120ec565b5f805f8351604103612194576020840151604085015160608601515f1a61218688828585612262565b95509550955050505061219f565b505081515f91506002905b9250925092565b5f8260038111156121b9576121b9612a35565b036121c2575050565b60018260038111156121d6576121d6612a35565b036121f45760405163f645eedf60e01b815260040160405180910390fd5b600282600381111561220857612208612a35565b036122295760405163fce698f760e01b815260048101829052602401610d10565b600382600381111561223d5761223d612a35565b0361225e576040516335e2f38360e21b815260048101829052602401610d10565b5050565b5f80807f7fffffffffffffffffffffffffffffff5d576e7357a4501ddfe92f46681b20a084111561229b57505f91506003905082612320565b604080515f808252602082018084528a905260ff891692820192909252606081018790526080810186905260019060a0016020604051602081039080840390855afa1580156122ec573d5f803e3d5ffd5b5050604051601f1901519150506001600160a01b03811661231757505f925060019150829050612320565b92505f91508190505b9450945094915050565b828054828255905f5260205f2090810192821561237b579160200282015b8281111561237b5781546001600160a01b0319166001600160a01b03843516178255602090920191600190910190612348565b5061238792915061238b565b5090565b5b80821115612387575f815560010161238c565b5f602082840312156123af575f80fd5b5035919050565b80356001600160a01b03811681146123cc575f80fd5b919050565b5f602082840312156123e1575f80fd5b6117bb826123b6565b803563ffffffff811681146123cc575f80fd5b5f6020828403121561240d575f80fd5b6117bb826123ea565b80356001600160801b03811681146123cc575f80fd5b5f6020828403121561243c575f80fd5b6117bb82612416565b5f8083601f840112612455575f80fd5b5081356001600160401b0381111561246b575f80fd5b6020830191508360208260051b8501011115612485575f80fd5b9250929050565b5f805f6040848603121561249e575f80fd5b83356001600160401b038111156124b3575f80fd5b6124bf86828701612445565b909790965060209590950135949350505050565b803580151581146123cc575f80fd5b5f805f606084860312156124f4575f80fd5b6124fd846123ea565b925061250b602085016123ea565b9150612519604085016124d3565b90509250925092565b5f60208284031215612532575f80fd5b6117bb826124d3565b5f806040838503121561254c575f80fd5b8235915061255c602084016123b6565b90509250929050565b5f8060408385031215612576575f80fd5b8235915061255c60208401612416565b5f805f8084860361034081121561259b575f80fd5b610300808212156125aa575f80fd5b86955085013590506001600160401b038111156125c5575f80fd5b6125d187828801612445565b959890975094956103200135949350505050565b5f80604083850312156125f6575f80fd5b6125ff836123ea565b915061255c602084016123ea565b5f806040838503121561261e575f80fd5b50508035926020909101359150565b634e487b7160e01b5f52601160045260245ffd5b80820180821115611d9957611d9961262d565b80356001600160401b03811681146123cc575f80fd5b5f6020828403121561267a575f80fd5b6117bb82612654565b634e487b7160e01b5f52604160045260245ffd5b60405161030081016001600160401b03811182821017156126ba576126ba612683565b60405290565b604051601f8201601f191681016001600160401b03811182821017156126e8576126e8612683565b604052919050565b803561ffff811681146123cc575f80fd5b803560ff811681146123cc575f80fd5b5f6103008284031215612722575f80fd5b61272a612697565b612733836126f0565b815261274160208401612701565b6020820152612752604084016123ea565b6040820152612763606084016123ea565b606082015261277460808401612654565b608082015261278560a08401612654565b60a082015260c083013560c082015260e083013560e08201526101008084013581830152506101206127b8818501612416565b908201526101408381013590820152610160808401359082015261018080840135908201526101a06127eb818501612654565b908201526101c083810135908201526101e0612808818501612654565b9082015261020061281a848201612654565b9082015261022061282c848201612654565b9082015261024061283e848201612654565b90820152610260612850848201612416565b9082015261028083810135908201526102a080840135908201526102c080840135908201526102e0928301359281019290925250919050565b5f6001600160401b03808411156128a2576128a2612683565b8360051b60206128b38183016126c0565b8681529185019181810190368411156128ca575f80fd5b865b8481101561294b578035868111156128e3575f8081fd5b8801601f36818301126128f5575f8081fd5b81358881111561290757612907612683565b612918818301601f191688016126c0565b9150808252368782850101111561292e575f8081fd5b80878401888401375f9082018701528452509183019183016128cc565b50979650505050505050565b5f8261297157634e487b7160e01b5f52601260045260245ffd5b500490565b6001600160801b03818116838216019080821115611d6e57611d6e61262d565b634e487b7160e01b5f52603260045260245ffd5b5f600182016129bb576129bb61262d565b5060010190565b5f81515f5b818110156129e157602081850181015186830152016129c7565b505f93019283525090919050565b5f612a036129fd83866129c2565b846129c2565b949350505050565b8082028115828204841417611d9957611d9961262d565b81810381811115611d9957611d9961262d565b634e487b7160e01b5f52602160045260245ffdfea2646970667358221220d6081c10bc715bc81e06aad7be29bdcca9adac039032203253e0d8852f097bdf64736f6c634300081400330000000000000000000000002abd0d224775fb9140c04f12c3838af95847a97c0000000000000000000000000000000000000000000000000000000002000002",
        "nonce": "0x9e",
        "chainId": "0x14a34"
      },
      "additionalContracts": [],
      "isFixedGasLimit": false
    },
    {
      "hash": "0x7af5083de415ddaea64c445791039e8022f70c5556d7cb71b9691629c9f5d6e7",
      "transactionType": "CALL",
      "contractName": "BridgeOutbox",
      "contractAddress": "0xa195f05ddfe97514c7a7ede113204f8752828383",
      "function": "enableRoute(uint32)",
      "arguments": [
        "33554435"
      ],
      "transaction": {
        "from": "0x2abd0d224775fb9140c04f12c3838af95847a97c",
        "to": "0xa195f05ddfe97514c7a7ede113204f8752828383",
        "gas": "0xfe0c",
        "value": "0x0",
        "input": "0x8f7a25fe0000000000000000000000000000000000000000000000000000000002000003",
        "nonce": "0x9f",
        "chainId": "0x14a34"
      },
      "additionalContracts": [],
      "isFixedGasLimit": false
    },
    {
      "hash": "0x851c48bb50ac5a819098be01cf4894d5ab763212ea61dfff71ec1fea57e99bfc",
      "transactionType": "CALL",
      "contractName": "BridgeOutbox",
      "contractAddress": "0xa195f05ddfe97514c7a7ede113204f8752828383",
      "function": "enableRoute(uint32)",
      "arguments": [
        "33554436"
      ],
      "transaction": {
        "from": "0x2abd0d224775fb9140c04f12c3838af95847a97c",
        "to": "0xa195f05ddfe97514c7a7ede113204f8752828383",
        "gas": "0xfe0c",
        "value": "0x0",
        "input": "0x8f7a25fe0000000000000000000000000000000000000000000000000000000002000004",
        "nonce": "0xa0",
        "chainId": "0x14a34"
      },
      "additionalContracts": [],
      "isFixedGasLimit": false
    },
    {
      "hash": "0xaedcb3c09b52a3d27ac51664e5b592b3155d7afd66009d54f5d474f5f11782da",
      "transactionType": "CALL",
      "contractName": "BridgeOutbox",
      "contractAddress": "0xa195f05ddfe97514c7a7ede113204f8752828383",
      "function": "enableRoute(uint32)",
      "arguments": [
        "33554438"
      ],
      "transaction": {
        "from": "0x2abd0d224775fb9140c04f12c3838af95847a97c",
        "to": "0xa195f05ddfe97514c7a7ede113204f8752828383",
        "gas": "0xfe0c",
        "value": "0x0",
        "input": "0x8f7a25fe0000000000000000000000000000000000000000000000000000000002000006",
        "nonce": "0xa1",
        "chainId": "0x14a34"
      },
      "additionalContracts": [],
      "isFixedGasLimit": false
    },
    {
      "hash": "0x4e5f24ce00820d3be7a0c1d7fb941f4d86a6aedf8da50ce80f2b21e09f9efcf5",
      "transactionType": "CALL",
      "contractName": "BridgeOutbox",
      "contractAddress": "0xa195f05ddfe97514c7a7ede113204f8752828383",
      "function": "supportAsset(bytes32)",
      "arguments": [
        "0x0058d8ea79c42a023685014b8281e7508bd5ca5f570f336f5852a291d54a703e"
      ],
      "transaction": {
        "from": "0x2abd0d224775fb9140c04f12c3838af95847a97c",
        "to": "0xa195f05ddfe97514c7a7ede113204f8752828383",
        "gas": "0xff57",
        "value": "0x0",
        "input": "0x29d1c26b0058d8ea79c42a023685014b8281e7508bd5ca5f570f336f5852a291d54a703e",
        "nonce": "0xa2",
        "chainId": "0x14a34"
      },
      "additionalContracts": [],
      "isFixedGasLimit": false
    },
    {
      "hash": "0xb6b9f1a1bfb5ab7534b5b041007a9a98380280d7bff9d17543751b89da5cf7bb",
      "transactionType": "CALL",
      "contractName": "BridgeOutbox",
      "contractAddress": "0xa195f05ddfe97514c7a7ede113204f8752828383",
      "function": "setMaxMessageAmount(bytes32,uint128)",
      "arguments": [
        "0x0058d8ea79c42a023685014b8281e7508bd5ca5f570f336f5852a291d54a703e",
        "10000000000000000000"
      ],
      "transaction": {
        "from": "0x2abd0d224775fb9140c04f12c3838af95847a97c",
        "to": "0xa195f05ddfe97514c7a7ede113204f8752828383",
        "gas": "0x10365",
        "value": "0x0",
        "input": "0x891bad800058d8ea79c42a023685014b8281e7508bd5ca5f570f336f5852a291d54a703e0000000000000000000000000000000000000000000000008ac7230489e80000",
        "nonce": "0xa3",
        "chainId": "0x14a34"
      },
      "additionalContracts": [],
      "isFixedGasLimit": false
    },
    {
      "hash": "0x7597b7ea82825e6c8f18aef981bcc42a2603cc49c5409adf60089334126eeb53",
      "transactionType": "CALL",
      "contractName": "BridgeOutbox",
      "contractAddress": "0xa195f05ddfe97514c7a7ede113204f8752828383",
      "function": "setOutflowCap(bytes32,uint128)",
      "arguments": [
        "0x0058d8ea79c42a023685014b8281e7508bd5ca5f570f336f5852a291d54a703e",
        "1000000000000000000000"
      ],
      "transaction": {
        "from": "0x2abd0d224775fb9140c04f12c3838af95847a97c",
        "to": "0xa195f05ddfe97514c7a7ede113204f8752828383",
        "gas": "0x112ba",
        "value": "0x0",
        "input": "0xb7033a030058d8ea79c42a023685014b8281e7508bd5ca5f570f336f5852a291d54a703e00000000000000000000000000000000000000000000003635c9adc5dea00000",
        "nonce": "0xa4",
        "chainId": "0x14a34"
      },
      "additionalContracts": [],
      "isFixedGasLimit": false
    },
    {
      "hash": "0xe9025fef2297b98777efcea7c13982d15f5313f3c2826abe0c28cc6100784b44",
      "transactionType": "CALL",
      "contractName": "BridgeOutbox",
      "contractAddress": "0xa195f05ddfe97514c7a7ede113204f8752828383",
      "function": "setDailyOutflowCap(bytes32,uint128)",
      "arguments": [
        "0x0058d8ea79c42a023685014b8281e7508bd5ca5f570f336f5852a291d54a703e",
        "1000000000000000000000"
      ],
      "transaction": {
        "from": "0x2abd0d224775fb9140c04f12c3838af95847a97c",
        "to": "0xa195f05ddfe97514c7a7ede113204f8752828383",
        "gas": "0x1128b",
        "value": "0x0",
        "input": "0x44ca0ebe0058d8ea79c42a023685014b8281e7508bd5ca5f570f336f5852a291d54a703e00000000000000000000000000000000000000000000003635c9adc5dea00000",
        "nonce": "0xa5",
        "chainId": "0x14a34"
      },
      "additionalContracts": [],
      "isFixedGasLimit": false
    },
    {
      "hash": "0x9f4b05b5057adc780b0d197138446aa361a393c946c1ff74c12dfe6e046b5e33",
      "transactionType": "CALL",
      "contractName": "BridgeInbox",
      "contractAddress": "0x4d4adb460c5c882becbe95d0562769eca812d1fc",
      "function": "setWhiteProtocol(address)",
      "arguments": [
        "0x396e539bCDeAF48ab9526A13c6E688CBA69C059a"
      ],
      "transaction": {
        "from": "0x2abd0d224775fb9140c04f12c3838af95847a97c",
        "to": "0x4d4adb460c5c882becbe95d0562769eca812d1fc",
        "gas": "0x107ad",
        "value": "0x0",
        "input": "0x0f678e36000000000000000000000000396e539bcdeaf48ab9526a13c6e688cba69c059a",
        "nonce": "0xa6",
        "chainId": "0x14a34"
      },
      "additionalContracts": [],
      "isFixedGasLimit": false
    },
    {
      "hash": "0xe903b84001f2bec9cf3561514ffdbad529bbf4578819d6a61473e8744557aa33",
      "transactionType": "CALL",
      "contractName": "BridgeInbox",
      "contractAddress": "0x4d4adb460c5c882becbe95d0562769eca812d1fc",
      "function": "enableRoute(uint32)",
      "arguments": [
        "33554435"
      ],
      "transaction": {
        "from": "0x2abd0d224775fb9140c04f12c3838af95847a97c",
        "to": "0x4d4adb460c5c882becbe95d0562769eca812d1fc",
        "gas": "0x10cee",
        "value": "0x0",
        "input": "0x8f7a25fe0000000000000000000000000000000000000000000000000000000002000003",
        "nonce": "0xa7",
        "chainId": "0x14a34"
      },
      "additionalContracts": [],
      "isFixedGasLimit": false
    },
    {
      "hash": "0x1d61599c9b40dfa95512107d1c907488d3a24572cd37474d3e353a4e47d04ce1",
      "transactionType": "CALL",
      "contractName": "BridgeInbox",
      "contractAddress": "0x4d4adb460c5c882becbe95d0562769eca812d1fc",
      "function": "enableRoute(uint32)",
      "arguments": [
        "33554436"
      ],
      "transaction": {
        "from": "0x2abd0d224775fb9140c04f12c3838af95847a97c",
        "to": "0x4d4adb460c5c882becbe95d0562769eca812d1fc",
        "gas": "0x10cee",
        "value": "0x0",
        "input": "0x8f7a25fe0000000000000000000000000000000000000000000000000000000002000004",
        "nonce": "0xa8",
        "chainId": "0x14a34"
      },
      "additionalContracts": [],
      "isFixedGasLimit": false
    },
    {
      "hash": "0xde29b6799c442b0565e11c14ad1a96506ff8526c3fa6c1c7567d0b3a98165772",
      "transactionType": "CALL",
      "contractName": "BridgeInbox",
      "contractAddress": "0x4d4adb460c5c882becbe95d0562769eca812d1fc",
      "function": "enableRoute(uint32)",
      "arguments": [
        "33554438"
      ],
      "transaction": {
        "from": "0x2abd0d224775fb9140c04f12c3838af95847a97c",
        "to": "0x4d4adb460c5c882becbe95d0562769eca812d1fc",
        "gas": "0x10cee",
        "value": "0x0",
        "input": "0x8f7a25fe0000000000000000000000000000000000000000000000000000000002000006",
        "nonce": "0xa9",
        "chainId": "0x14a34"
      },
      "additionalContracts": [],
      "isFixedGasLimit": false
    },
    {
      "hash": "0xb7fa5c3115acd2a3f0d8588706bd2d907701a0d7f9fc3a61b91a62ed0274acdf",
      "transactionType": "CALL",
      "contractName": "BridgeInbox",
      "contractAddress": "0x4d4adb460c5c882becbe95d0562769eca812d1fc",
      "function": "supportAsset(bytes32)",
      "arguments": [
        "0x0058d8ea79c42a023685014b8281e7508bd5ca5f570f336f5852a291d54a703e"
      ],
      "transaction": {
        "from": "0x2abd0d224775fb9140c04f12c3838af95847a97c",
        "to": "0x4d4adb460c5c882becbe95d0562769eca812d1fc",
        "gas": "0xff57",
        "value": "0x0",
        "input": "0x29d1c26b0058d8ea79c42a023685014b8281e7508bd5ca5f570f336f5852a291d54a703e",
        "nonce": "0xaa",
        "chainId": "0x14a34"
      },
      "additionalContracts": [],
      "isFixedGasLimit": false
    },
    {
      "hash": "0xf31d0ba8e8a125c01da6ea7420297fc3df02e7f1c3537cf95f8020d88c2edd98",
      "transactionType": "CALL",
      "contractName": "BridgeInbox",
      "contractAddress": "0x4d4adb460c5c882becbe95d0562769eca812d1fc",
      "function": "setLocalAsset(bytes32,address)",
      "arguments": [
        "0x0058d8ea79c42a023685014b8281e7508bd5ca5f570f336f5852a291d54a703e",
        "0x0000000000000000000000000000000000000000"
      ],
      "transaction": {
        "from": "0x2abd0d224775fb9140c04f12c3838af95847a97c",
        "to": "0x4d4adb460c5c882becbe95d0562769eca812d1fc",
        "gas": "0x1169c",
        "value": "0x0",
        "input": "0x78c86daf0058d8ea79c42a023685014b8281e7508bd5ca5f570f336f5852a291d54a703e0000000000000000000000000000000000000000000000000000000000000000",
        "nonce": "0xab",
        "chainId": "0x14a34"
      },
      "additionalContracts": [],
      "isFixedGasLimit": false
    },
    {
      "hash": "0x763df52e150883d44561854eedde9e772556e8d65c82604f96b4615686feeaa2",
      "transactionType": "CALL",
      "contractName": "BridgeInbox",
      "contractAddress": "0x4d4adb460c5c882becbe95d0562769eca812d1fc",
      "function": "setMaxMessageAmount(bytes32,uint128)",
      "arguments": [
        "0x0058d8ea79c42a023685014b8281e7508bd5ca5f570f336f5852a291d54a703e",
        "10000000000000000000"
      ],
      "transaction": {
        "from": "0x2abd0d224775fb9140c04f12c3838af95847a97c",
        "to": "0x4d4adb460c5c882becbe95d0562769eca812d1fc",
        "gas": "0x10319",
        "value": "0x0",
        "input": "0x891bad800058d8ea79c42a023685014b8281e7508bd5ca5f570f336f5852a291d54a703e0000000000000000000000000000000000000000000000008ac7230489e80000",
        "nonce": "0xac",
        "chainId": "0x14a34"
      },
      "additionalContracts": [],
      "isFixedGasLimit": false
    },
    {
      "hash": "0x01ddc20907742392cd067c1ce5f3190b1cf6ce254143c24ac5973b1ce9e1dcca",
      "transactionType": "CALL",
      "contractName": "BridgeInbox",
      "contractAddress": "0x4d4adb460c5c882becbe95d0562769eca812d1fc",
      "function": "setInflowCap(bytes32,uint128)",
      "arguments": [
        "0x0058d8ea79c42a023685014b8281e7508bd5ca5f570f336f5852a291d54a703e",
        "1000000000000000000000"
      ],
      "transaction": {
        "from": "0x2abd0d224775fb9140c04f12c3838af95847a97c",
        "to": "0x4d4adb460c5c882becbe95d0562769eca812d1fc",
        "gas": "0x1031b",
        "value": "0x0",
        "input": "0xb299804a0058d8ea79c42a023685014b8281e7508bd5ca5f570f336f5852a291d54a703e00000000000000000000000000000000000000000000003635c9adc5dea00000",
        "nonce": "0xad",
        "chainId": "0x14a34"
      },
      "additionalContracts": [],
      "isFixedGasLimit": false
    },
    {
      "hash": "0x20464cfef6e7fd1f1a91acd77f890b48f8fd18a9241233081f23ba84f0a58eb6",
      "transactionType": "CALL",
      "contractName": "BridgeInbox",
      "contractAddress": "0x4d4adb460c5c882becbe95d0562769eca812d1fc",
      "function": "setDailyInflowCap(bytes32,uint128)",
      "arguments": [
        "0x0058d8ea79c42a023685014b8281e7508bd5ca5f570f336f5852a291d54a703e",
        "1000000000000000000000"
      ],
      "transaction": {
        "from": "0x2abd0d224775fb9140c04f12c3838af95847a97c",
        "to": "0x4d4adb460c5c882becbe95d0562769eca812d1fc",
        "gas": "0x11239",
        "value": "0x0",
        "input": "0xad72c52c0058d8ea79c42a023685014b8281e7508bd5ca5f570f336f5852a291d54a703e00000000000000000000000000000000000000000000003635c9adc5dea00000",
        "nonce": "0xae",
        "chainId": "0x14a34"
      },
      "additionalContracts": [],
      "isFixedGasLimit": false
    },
    {
      "hash": "0x2f5dc8f14296f34cbb053e6973065de038f2a1e1e81dea58acdb99cdc94523b0",
      "transactionType": "CALL",
      "contractName": "BridgeInbox",
      "contractAddress": "0x4d4adb460c5c882becbe95d0562769eca812d1fc",
      "function": "setGlobalDailyCap(uint128)",
      "arguments": [
        "5000000000000000000000"
      ],
      "transaction": {
        "from": "0x2abd0d224775fb9140c04f12c3838af95847a97c",
        "to": "0x4d4adb460c5c882becbe95d0562769eca812d1fc",
        "gas": "0x10f08",
        "value": "0x0",
        "input": "0x307addfe00000000000000000000000000000000000000000000010f0cf064dd59200000",
        "nonce": "0xaf",
        "chainId": "0x14a34"
      },
      "additionalContracts": [],
      "isFixedGasLimit": false
    },
    {
      "hash": "0x1662fc31ecb3e293f6580f557cd96ec3275018a2789e436bcd127d9528850e55",
      "transactionType": "CALL",
      "contractName": "BridgeInbox",
      "contractAddress": "0x4d4adb460c5c882becbe95d0562769eca812d1fc",
      "function": "updateSignerSet(address[],uint256)",
      "arguments": [
        "[0x9A34F10F5b9AD7770C30A3B41d95C4Dcb0B88820, 0xbd7d34e42352BCe888394263A84CF21c85608beC, 0xEa4A68F39630C5145f1840D754B470a9fa5F2c19]",
        "2"
      ],
      "transaction": {
        "from": "0x2abd0d224775fb9140c04f12c3838af95847a97c",
        "to": "0x4d4adb460c5c882becbe95d0562769eca812d1fc",
        "gas": "0x3e2ff",
        "value": "0x0",
        "input": "0x3c625b660000000000000000000000000000000000000000000000000000000000000040000000000000000000000000000000000000000000000000000000000000000200000000000000000000000000000000000000000000000000000000000000030000000000000000000000009a34f10f5b9ad7770c30a3b41d95c4dcb0b88820000000000000000000000000bd7d34e42352bce888394263a84cf21c85608bec000000000000000000000000ea4a68f39630c5145f1840d754b470a9fa5f2c19",
        "nonce": "0xb0",
        "chainId": "0x14a34"
      },
      "additionalContracts": [],
      "isFixedGasLimit": false
    },
    {
      "hash": "0xe82610b3bca585cdda092c92ac995ca82059ae84944893be795b429b0454416b",
      "transactionType": "CALL",
      "contractName": null,
      "contractAddress": "0x396e539bcdeaf48ab9526a13c6e688cba69c059a",
      "function": "setBridge(address)",
      "arguments": [
        "0x4D4aDB460C5C882bEcbe95d0562769ECa812D1FC"
      ],
      "transaction": {
        "from": "0x2abd0d224775fb9140c04f12c3838af95847a97c",
        "to": "0x396e539bcdeaf48ab9526a13c6e688cba69c059a",
        "gas": "0xff66",
        "value": "0x0",
        "input": "0x8dd148020000000000000000000000004d4adb460c5c882becbe95d0562769eca812d1fc",
        "nonce": "0xb1",
        "chainId": "0x14a34"
      },
      "additionalContracts": [],
      "isFixedGasLimit": false
    }
  ],
  "receipts": [
    {
      "status": "0x1",
      "cumulativeGasUsed": "0x2b8b1dc",
      "logs": [
        {
          "address": "0xa195f05ddfe97514c7a7ede113204f8752828383",
          "topics": [
            "0x8be0079c531659141344cd1fd0a4f28419497f9722a3daafe3b4186f6b6457e0",
            "0x0000000000000000000000000000000000000000000000000000000000000000",
            "0x0000000000000000000000002abd0d224775fb9140c04f12c3838af95847a97c"
          ],
          "data": "0x",
          "blockHash": "0x50c54d14f410343c16f8caa48832e42e59e4c198964e1c9c6fecf652d4226269",
          "blockNumber": "0x272bbac",
          "blockTimestamp": "0x69f8d638",
          "transactionHash": "0x75c4db7e485bc4817d18685bd0777bcfc32b041c39b65ef0a5c2313cce944c14",
          "transactionIndex": "0x1dc",
          "logIndex": "0x3d2",
          "removed": false
        }
      ],
      "logsBloom": "0x00000000000000000000000000000000000000040000000000800000000000000000000000000000000000000000000000000000000000000000000000000000000000000000000000000000000000000001000000000000000008000000000000000000020000000000080000000800000000000000000000000000000000400000000000000000000000000000000000000000000000000000000000000000000000000000000000000000000000000000000000000000000000000000000000400000000000000000000000000000000000000000000000000000000020000000000800000000000000000000000000000000000000000010000000000000",
      "type": "0x2",
      "transactionHash": "0x75c4db7e485bc4817d18685bd0777bcfc32b041c39b65ef0a5c2313cce944c14",
      "transactionIndex": "0x1dc",
      "blockHash": "0x50c54d14f410343c16f8caa48832e42e59e4c198964e1c9c6fecf652d4226269",
      "blockNumber": "0x272bbac",
      "gasUsed": "0x19fbb0",
      "effectiveGasPrice": "0xb81660",
      "blobGasUsed": "0x92724",
      "from": "0x2abd0d224775fb9140c04f12c3838af95847a97c",
      "to": null,
      "contractAddress": "0xa195f05ddfe97514c7a7ede113204f8752828383",
      "daFootprintGasScalar": "0x94",
      "l1BaseFeeScalar": "0x44d",
      "l1BlobBaseFee": "0x9ee56",
      "l1BlobBaseFeeScalar": "0xa118b",
      "l1Fee": "0x892eb2f7",
      "l1GasPrice": "0x77cafb",
      "l1GasUsed": "0xfd5c"
    },
    {
      "status": "0x1",
      "cumulativeGasUsed": "0x41167b2",
      "logs": [
        {
          "address": "0x4d4adb460c5c882becbe95d0562769eca812d1fc",
          "topics": [
            "0x8be0079c531659141344cd1fd0a4f28419497f9722a3daafe3b4186f6b6457e0",
            "0x0000000000000000000000000000000000000000000000000000000000000000",
            "0x0000000000000000000000002abd0d224775fb9140c04f12c3838af95847a97c"
          ],
          "data": "0x",
          "blockHash": "0x50c54d14f410343c16f8caa48832e42e59e4c198964e1c9c6fecf652d4226269",
          "blockNumber": "0x272bbac",
          "blockTimestamp": "0x69f8d638",
          "transactionHash": "0x2f5dc8f14296f34cbb053e6973065de038f2a1e1e81dea58acdb99cdc94523b0",
          "transactionIndex": "0x2c8",
          "logIndex": "0x5ab",
          "removed": false
        }
      ],
      "logsBloom": "0x00000000000000000000000000000000000000040000000000800000000000000000000000000000000000000000000000000000000000000000000000000000000000000000000000000000000000800001000000002000000000000000000000000000020000000000080000000800000000000000000000000000000000400000000000000000000000000000000000000000000000000000000000000000000000000000000000000000000000000000000000000000000000000000000000400000000000000000000000000000000000000000002000000000000020000000000000000000000000000000000000000000000000000000000000000000",
      "type": "0x2",
      "transactionHash": "0x2f5dc8f14296f34cbb053e6973065de038f2a1e1e81dea58acdb99cdc94523b0",
      "transactionIndex": "0x2c8",
      "blockHash": "0x50c54d14f410343c16f8caa48832e42e59e4c198964e1c9c6fecf652d4226269",
      "blockNumber": "0x272bbac",
      "gasUsed": "0x257cb6",
      "effectiveGasPrice": "0xb81660",
      "blobGasUsed": "0xd6e1c",
      "from": "0x2abd0d224775fb9140c04f12c3838af95847a97c",
      "to": null,
      "contractAddress": "0x4d4adb460c5c882becbe95d0562769eca812d1fc",
      "daFootprintGasScalar": "0x94",
      "l1BaseFeeScalar": "0x44d",
      "l1BlobBaseFee": "0x9ee56",
      "l1BlobBaseFeeScalar": "0xa118b",
      "l1Fee": "0xc9457a20",
      "l1GasPrice": "0x77cafb",
      "l1GasUsed": "0x173b9"
    },
    {
      "status": "0x1",
      "cumulativeGasUsed": "0x4121fa0",
      "logs": [
        {
          "address": "0xa195f05ddfe97514c7a7ede113204f8752828383",
          "topics": [
            "0xe318049ad851e4adc0e72a31d8092de055c31ff255db0375642a8d9cd4ee6ace",
            "0x0000000000000000000000000000000000000000000000000000000002000003"
          ],
          "data": "0x",
          "blockHash": "0x50c54d14f410343c16f8caa48832e42e59e4c198964e1c9c6fecf652d4226269",
          "blockNumber": "0x272bbac",
          "blockTimestamp": "0x69f8d638",
          "transactionHash": "0xf31d0ba8e8a125c01da6ea7420297fc3df02e7f1c3537cf95f8020d88c2edd98",
          "transactionIndex": "0x2c9",
          "logIndex": "0x5ac",
          "removed": false
        }
      ],
      "logsBloom": "0x00000000000000000400000000000000000000000000000000000000000000000000000000000000000000000000000000000000000000000000000000000000000000000000000000000000000000000000000000000000000008000000000000000000000000000000000000000000000000400000000000000000000000000000000000100000000000000000000000000000000000000000000000000000000000000000000000000000000000000000001000000000000000000000000000000000000000000000000000000000000000000000000400000000000000000000000800000000000000000000000000000000000000000010000000200000",
      "type": "0x2",
      "transactionHash": "0xf31d0ba8e8a125c01da6ea7420297fc3df02e7f1c3537cf95f8020d88c2edd98",
      "transactionIndex": "0x2c9",
      "blockHash": "0x50c54d14f410343c16f8caa48832e42e59e4c198964e1c9c6fecf652d4226269",
      "blockNumber": "0x272bbac",
      "gasUsed": "0xb7ee",
      "effectiveGasPrice": "0xb81660",
      "blobGasUsed": "0x39d0",
      "from": "0x2abd0d224775fb9140c04f12c3838af95847a97c",
      "to": "0xa195f05ddfe97514c7a7ede113204f8752828383",
      "contractAddress": null,
      "daFootprintGasScalar": "0x94",
      "l1BaseFeeScalar": "0x44d",
      "l1BlobBaseFee": "0x9ee56",
      "l1BlobBaseFeeScalar": "0xa118b",
      "l1Fee": "0x362533e",
      "l1GasPrice": "0x77cafb",
      "l1GasUsed": "0x640"
    },
    {
      "status": "0x1",
      "cumulativeGasUsed": "0x412d78e",
      "logs": [
        {
          "address": "0xa195f05ddfe97514c7a7ede113204f8752828383",
          "topics": [
            "0xe318049ad851e4adc0e72a31d8092de055c31ff255db0375642a8d9cd4ee6ace",
            "0x0000000000000000000000000000000000000000000000000000000002000004"
          ],
          "data": "0x",
          "blockHash": "0x50c54d14f410343c16f8caa48832e42e59e4c198964e1c9c6fecf652d4226269",
          "blockNumber": "0x272bbac",
          "blockTimestamp": "0x69f8d638",
          "transactionHash": "0x9f4b05b5057adc780b0d197138446aa361a393c946c1ff74c12dfe6e046b5e33",
          "transactionIndex": "0x2ca",
          "logIndex": "0x5ad",
          "removed": false
        }
      ],
      "logsBloom": "0x00000000000000000400000000000000000000000000000000000000000000000000000000000000000000000000000000000000000000000000000000000000000000000000000000000000000000000000000000000000000008000000000000000000000000000000000000000000000000000000000000000000000000000000000000100000000000000000000000000000000000000000000000000000000000000000001000000000000000000000000000000000000000000000000000000000000000000000000000000000000000080000000000000040000000000000000800000000000000000000000000000000000000000010000000200000",
      "type": "0x2",
      "transactionHash": "0x9f4b05b5057adc780b0d197138446aa361a393c946c1ff74c12dfe6e046b5e33",
      "transactionIndex": "0x2ca",
      "blockHash": "0x50c54d14f410343c16f8caa48832e42e59e4c198964e1c9c6fecf652d4226269",
      "blockNumber": "0x272bbac",
      "gasUsed": "0xb7ee",
      "effectiveGasPrice": "0xb81660",
      "blobGasUsed": "0x39d0",
      "from": "0x2abd0d224775fb9140c04f12c3838af95847a97c",
      "to": "0xa195f05ddfe97514c7a7ede113204f8752828383",
      "contractAddress": null,
      "daFootprintGasScalar": "0x94",
      "l1BaseFeeScalar": "0x44d",
      "l1BlobBaseFee": "0x9ee56",
      "l1BlobBaseFeeScalar": "0xa118b",
      "l1Fee": "0x362533e",
      "l1GasPrice": "0x77cafb",
      "l1GasUsed": "0x640"
    },
    {
      "status": "0x1",
      "cumulativeGasUsed": "0x4138f7c",
      "logs": [
        {
          "address": "0xa195f05ddfe97514c7a7ede113204f8752828383",
          "topics": [
            "0xe318049ad851e4adc0e72a31d8092de055c31ff255db0375642a8d9cd4ee6ace",
            "0x0000000000000000000000000000000000000000000000000000000002000006"
          ],
          "data": "0x",
          "blockHash": "0x50c54d14f410343c16f8caa48832e42e59e4c198964e1c9c6fecf652d4226269",
          "blockNumber": "0x272bbac",
          "blockTimestamp": "0x69f8d638",
          "transactionHash": "0xe9025fef2297b98777efcea7c13982d15f5313f3c2826abe0c28cc6100784b44",
          "transactionIndex": "0x2cb",
          "logIndex": "0x5ae",
          "removed": false
        }
      ],
      "logsBloom": "0x00000000000000000400000000000000000000000000000000000000000000000000000000000000000000000000000000000000000000000000000000000000000000000000000000000000000000000000000000000000000008000000000000000000000000000000000000000000000000400000000000000000000000000000000000100000000000000000000000000000000000000000000000000000000000000000000000000000000000000000800000000000000000000000000000000000000000010000000000000000000000000000000000000000000000000000000800000000000000000000000000000000000000000010000000200000",
      "type": "0x2",
      "transactionHash": "0xe9025fef2297b98777efcea7c13982d15f5313f3c2826abe0c28cc6100784b44",
      "transactionIndex": "0x2cb",
      "blockHash": "0x50c54d14f410343c16f8caa48832e42e59e4c198964e1c9c6fecf652d4226269",
      "blockNumber": "0x272bbac",
      "gasUsed": "0xb7ee",
      "effectiveGasPrice": "0xb81660",
      "blobGasUsed": "0x39d0",
      "from": "0x2abd0d224775fb9140c04f12c3838af95847a97c",
      "to": "0xa195f05ddfe97514c7a7ede113204f8752828383",
      "contractAddress": null,
      "daFootprintGasScalar": "0x94",
      "l1BaseFeeScalar": "0x44d",
      "l1BlobBaseFee": "0x9ee56",
      "l1BlobBaseFeeScalar": "0xa118b",
      "l1Fee": "0x362533e",
      "l1GasPrice": "0x77cafb",
      "l1GasUsed": "0x640"
    },
    {
      "status": "0x1",
      "cumulativeGasUsed": "0x414485a",
      "logs": [
        {
          "address": "0xa195f05ddfe97514c7a7ede113204f8752828383",
          "topics": [
            "0xe7019739d91346eb9e4a6525783e16c9659c2d355c6e504e85c56d1576a42a3f",
            "0x0058d8ea79c42a023685014b8281e7508bd5ca5f570f336f5852a291d54a703e"
          ],
          "data": "0x",
          "blockHash": "0x50c54d14f410343c16f8caa48832e42e59e4c198964e1c9c6fecf652d4226269",
          "blockNumber": "0x272bbac",
          "blockTimestamp": "0x69f8d638",
          "transactionHash": "0xb6b9f1a1bfb5ab7534b5b041007a9a98380280d7bff9d17543751b89da5cf7bb",
          "transactionIndex": "0x2cc",
          "logIndex": "0x5af",
          "removed": false
        }
      ],
      "logsBloom": "0x00000000000000000000000000000000000000000000000000000000000000000000000000000000000000000000000400000000000000000000000000000000000000004000000000000000000000001000000000000000000008000000000000000000000000000000000001000000000002000000000000000000000000000000000000000000000000000000000000000000000000000000000000000000000000000000000000000000000000000000000000000000000000000000000000000800000000000000000000000000000000000000000000000000000000000000000800000000000000000000000000000000000000000010000000000000",
      "type": "0x2",
      "transactionHash": "0xb6b9f1a1bfb5ab7534b5b041007a9a98380280d7bff9d17543751b89da5cf7bb",
      "transactionIndex": "0x2cc",
      "blockHash": "0x50c54d14f410343c16f8caa48832e42e59e4c198964e1c9c6fecf652d4226269",
      "blockNumber": "0x272bbac",
      "gasUsed": "0xb8de",
      "effectiveGasPrice": "0xb81660",
      "blobGasUsed": "0x39d0",
      "from": "0x2abd0d224775fb9140c04f12c3838af95847a97c",
      "to": "0xa195f05ddfe97514c7a7ede113204f8752828383",
      "contractAddress": null,
      "daFootprintGasScalar": "0x94",
      "l1BaseFeeScalar": "0x44d",
      "l1BlobBaseFee": "0x9ee56",
      "l1BlobBaseFeeScalar": "0xa118b",
      "l1Fee": "0x362533e",
      "l1GasPrice": "0x77cafb",
      "l1GasUsed": "0x640"
    },
    {
      "status": "0x1",
      "cumulativeGasUsed": "0x4150427",
      "logs": [
        {
          "address": "0xa195f05ddfe97514c7a7ede113204f8752828383",
          "topics": [
            "0xadca0b8792a4724d673614590b704b591e207730ea48fcd3eed067bd9bfa3be8",
            "0x0058d8ea79c42a023685014b8281e7508bd5ca5f570f336f5852a291d54a703e"
          ],
          "data": "0x0000000000000000000000000000000000000000000000008ac7230489e80000",
          "blockHash": "0x50c54d14f410343c16f8caa48832e42e59e4c198964e1c9c6fecf652d4226269",
          "blockNumber": "0x272bbac",
          "blockTimestamp": "0x69f8d638",
          "transactionHash": "0x7597b7ea82825e6c8f18aef981bcc42a2603cc49c5409adf60089334126eeb53",
          "transactionIndex": "0x2cd",
          "logIndex": "0x5b0",
          "removed": false
        }
      ],
      "logsBloom": "0x00000000000000000000000000000000000000000000000000000000000000000000000000000000000000000000000400800000000000000000000000000000000000000000000000000000000000001000000000000000000008000000000000000000000000000000000000000000000000000000000000800000000000000000000000000000000000000000000000000000000000000000000000000000000000000000000000000000000000000000000000000000000000000004000000000800000000000000000000000000000000000000000000000000000000000000000800000000000000000000000000000000000000000010000000000000",
      "type": "0x2",
      "transactionHash": "0x7597b7ea82825e6c8f18aef981bcc42a2603cc49c5409adf60089334126eeb53",
      "transactionIndex": "0x2cd",
      "blockHash": "0x50c54d14f410343c16f8caa48832e42e59e4c198964e1c9c6fecf652d4226269",
      "blockNumber": "0x272bbac",
      "gasUsed": "0xbbcd",
      "effectiveGasPrice": "0xb81660",
      "blobGasUsed": "0x39d0",
      "from": "0x2abd0d224775fb9140c04f12c3838af95847a97c",
      "to": "0xa195f05ddfe97514c7a7ede113204f8752828383",
      "contractAddress": null,
      "daFootprintGasScalar": "0x94",
      "l1BaseFeeScalar": "0x44d",
      "l1BlobBaseFee": "0x9ee56",
      "l1BlobBaseFeeScalar": "0xa118b",
      "l1Fee": "0x362533e",
      "l1GasPrice": "0x77cafb",
      "l1GasUsed": "0x640"
    },
    {
      "status": "0x1",
      "cumulativeGasUsed": "0x415c000",
      "logs": [
        {
          "address": "0xa195f05ddfe97514c7a7ede113204f8752828383",
          "topics": [
            "0x50bdeb701af64503086964d663578aca632ba21bb2fdd9e35b9f92c973014318",
            "0x0058d8ea79c42a023685014b8281e7508bd5ca5f570f336f5852a291d54a703e"
          ],
          "data": "0x00000000000000000000000000000000000000000000003635c9adc5dea00000",
          "blockHash": "0x50c54d14f410343c16f8caa48832e42e59e4c198964e1c9c6fecf652d4226269",
          "blockNumber": "0x272bbac",
          "blockTimestamp": "0x69f8d638",
          "transactionHash": "0xaedcb3c09b52a3d27ac51664e5b592b3155d7afd66009d54f5d474f5f11782da",
          "transactionIndex": "0x2ce",
          "logIndex": "0x5b1",
          "removed": false
        }
      ],
      "logsBloom": "0x00000000000000000000000000000000000800000000000000000000000000000000000000000000000000000000000400000000000000000000000000000000000000000000000000000000000000001000000000000000000008000000000000000000000000000000000000000000000000000000000000080000000000000000000000000000000000000000000000000000000000000000000000000000000000000000000000000000000000000000000000000000000000000000000000000800000000000000000000000000000000000000000000000000000000000000000800000800000000000000000000000000000000000010000000000000",
      "type": "0x2",
      "transactionHash": "0xaedcb3c09b52a3d27ac51664e5b592b3155d7afd66009d54f5d474f5f11782da",
      "transactionIndex": "0x2ce",
      "blockHash": "0x50c54d14f410343c16f8caa48832e42e59e4c198964e1c9c6fecf652d4226269",
      "blockNumber": "0x272bbac",
      "gasUsed": "0xbbd9",
      "effectiveGasPrice": "0xb81660",
      "blobGasUsed": "0x39d0",
      "from": "0x2abd0d224775fb9140c04f12c3838af95847a97c",
      "to": "0xa195f05ddfe97514c7a7ede113204f8752828383",
      "contractAddress": null,
      "daFootprintGasScalar": "0x94",
      "l1BaseFeeScalar": "0x44d",
      "l1BlobBaseFee": "0x9ee56",
      "l1BlobBaseFeeScalar": "0xa118b",
      "l1Fee": "0x362533e",
      "l1GasPrice": "0x77cafb",
      "l1GasUsed": "0x640"
    },
    {
      "status": "0x1",
      "cumulativeGasUsed": "0x4167bb9",
      "logs": [
        {
          "address": "0xa195f05ddfe97514c7a7ede113204f8752828383",
          "topics": [
            "0xbf00e2077595566a521b8e3599a0682bc8700c6362401b1ce63b6f9c5bd5d1e7",
            "0x0058d8ea79c42a023685014b8281e7508bd5ca5f570f336f5852a291d54a703e"
          ],
          "data": "0x00000000000000000000000000000000000000000000003635c9adc5dea00000",
          "blockHash": "0x50c54d14f410343c16f8caa48832e42e59e4c198964e1c9c6fecf652d4226269",
          "blockNumber": "0x272bbac",
          "blockTimestamp": "0x69f8d638",
          "transactionHash": "0x7af5083de415ddaea64c445791039e8022f70c5556d7cb71b9691629c9f5d6e7",
          "transactionIndex": "0x2cf",
          "logIndex": "0x5b2",
          "removed": false
        }
      ],
      "logsBloom": "0x00000000000000000000000000000000000000000000000000000000000000000000000000000000000000000000000400000000000000000000000000000000000000000000000000000000000000001000000000000000000008000000000000000000000000000000000000000000000000000000000000000000000000000000000000000000000000000000000000000000000000000000000000000000000000000000000000000000000000000000000000000000000000000000001000000800000000000000000000000000000000000000000000000000000000000000000800000000000000000000000000000000000100000010000001000000",
      "type": "0x2",
      "transactionHash": "0x7af5083de415ddaea64c445791039e8022f70c5556d7cb71b9691629c9f5d6e7",
      "transactionIndex": "0x2cf",
      "blockHash": "0x50c54d14f410343c16f8caa48832e42e59e4c198964e1c9c6fecf652d4226269",
      "blockNumber": "0x272bbac",
      "gasUsed": "0xbbb9",
      "effectiveGasPrice": "0xb81660",
      "blobGasUsed": "0x39d0",
      "from": "0x2abd0d224775fb9140c04f12c3838af95847a97c",
      "to": "0xa195f05ddfe97514c7a7ede113204f8752828383",
      "contractAddress": null,
      "daFootprintGasScalar": "0x94",
      "l1BaseFeeScalar": "0x44d",
      "l1BlobBaseFee": "0x9ee56",
      "l1BlobBaseFeeScalar": "0xa118b",
      "l1Fee": "0x362533e",
      "l1GasPrice": "0x77cafb",
      "l1GasUsed": "0x640"
    },
    {
      "status": "0x1",
      "cumulativeGasUsed": "0x4173004",
      "logs": [],
      "logsBloom": "0x00000000000000000000000000000000000000000000000000000000000000000000000000000000000000000000000000000000000000000000000000000000000000000000000000000000000000000000000000000000000000000000000000000000000000000000000000000000000000000000000000000000000000000000000000000000000000000000000000000000000000000000000000000000000000000000000000000000000000000000000000000000000000000000000000000000000000000000000000000000000000000000000000000000000000000000000000000000000000000000000000000000000000000000000000000000",
      "type": "0x2",
      "transactionHash": "0x4e5f24ce00820d3be7a0c1d7fb941f4d86a6aedf8da50ce80f2b21e09f9efcf5",
      "transactionIndex": "0x2d0",
      "blockHash": "0x50c54d14f410343c16f8caa48832e42e59e4c198964e1c9c6fecf652d4226269",
      "blockNumber": "0x272bbac",
      "gasUsed": "0xb44b",
      "effectiveGasPrice": "0xb81660",
      "blobGasUsed": "0x39d0",
      "from": "0x2abd0d224775fb9140c04f12c3838af95847a97c",
      "to": "0x4d4adb460c5c882becbe95d0562769eca812d1fc",
      "contractAddress": null,
      "daFootprintGasScalar": "0x94",
      "l1BaseFeeScalar": "0x44d",
      "l1BlobBaseFee": "0x9ee56",
      "l1BlobBaseFeeScalar": "0xa118b",
      "l1Fee": "0x362533e",
      "l1GasPrice": "0x77cafb",
      "l1GasUsed": "0x640"
    },
    {
      "status": "0x1",
      "cumulativeGasUsed": "0x417e7e7",
      "logs": [
        {
          "address": "0x4d4adb460c5c882becbe95d0562769eca812d1fc",
          "topics": [
            "0x5bf2630de04acf68404978bfc90d2e25430c41148cc9d06f7547926cc41114e3",
            "0x0000000000000000000000000000000000000000000000000000000002000003"
          ],
          "data": "0x",
          "blockHash": "0x50c54d14f410343c16f8caa48832e42e59e4c198964e1c9c6fecf652d4226269",
          "blockNumber": "0x272bbac",
          "blockTimestamp": "0x69f8d638",
          "transactionHash": "0x763df52e150883d44561854eedde9e772556e8d65c82604f96b4615686feeaa2",
          "transactionIndex": "0x2d1",
          "logIndex": "0x5b3",
          "removed": false
        }
      ],
      "logsBloom": "0x00000000000000000000000000000000000000000000000000000000000000000000000000000000000000000000000000000000000000000000000000000000000000000000000000000000000200800000000000002000000000000000000000000000000000000000000000000000000000400000000000000000000000000000000000000000000000000000000000000000000000010000000000000000000000000000000000000000000000000000001000000000000000000000000000000000000000000000000000000000000000000000002400000000000000000000000000001000000000000000000000000000000000000000000000000000",
      "type": "0x2",
      "transactionHash": "0x763df52e150883d44561854eedde9e772556e8d65c82604f96b4615686feeaa2",
      "transactionIndex": "0x2d1",
      "blockHash": "0x50c54d14f410343c16f8caa48832e42e59e4c198964e1c9c6fecf652d4226269",
      "blockNumber": "0x272bbac",
      "gasUsed": "0xb7e3",
      "effectiveGasPrice": "0xb81660",
      "blobGasUsed": "0x39d0",
      "from": "0x2abd0d224775fb9140c04f12c3838af95847a97c",
      "to": "0x4d4adb460c5c882becbe95d0562769eca812d1fc",
      "contractAddress": null,
      "daFootprintGasScalar": "0x94",
      "l1BaseFeeScalar": "0x44d",
      "l1BlobBaseFee": "0x9ee56",
      "l1BlobBaseFeeScalar": "0xa118b",
      "l1Fee": "0x362533e",
      "l1GasPrice": "0x77cafb",
      "l1GasUsed": "0x640"
    },
    {
      "status": "0x1",
      "cumulativeGasUsed": "0x4189fca",
      "logs": [
        {
          "address": "0x4d4adb460c5c882becbe95d0562769eca812d1fc",
          "topics": [
            "0x5bf2630de04acf68404978bfc90d2e25430c41148cc9d06f7547926cc41114e3",
            "0x0000000000000000000000000000000000000000000000000000000002000004"
          ],
          "data": "0x",
          "blockHash": "0x50c54d14f410343c16f8caa48832e42e59e4c198964e1c9c6fecf652d4226269",
          "blockNumber": "0x272bbac",
          "blockTimestamp": "0x69f8d638",
          "transactionHash": "0xb3fe33ed3189a603732e4a1d5773cbee1e4b4515c30617819ecd68f83290e2f7",
          "transactionIndex": "0x2d2",
          "logIndex": "0x5b4",
          "removed": false
        }
      ],
      "logsBloom": "0x00000000000000000000000000000000000000000000000000000000000000000000000000000000000000000000000000000000000000000000000000000000000000000000000000000000000200800000000000002000000000000000000000000000000000000000000000000000000000000000000000000000000000000000000000000000000000000000000000000000000000010000000000000000000000000000001000000000000000000000000000000000000000000000000000000000000000000000000000000000000000080000002000000040000000000000000000001000000000000000000000000000000000000000000000000000",
      "type": "0x2",
      "transactionHash": "0xb3fe33ed3189a603732e4a1d5773cbee1e4b4515c30617819ecd68f83290e2f7",
      "transactionIndex": "0x2d2",
      "blockHash": "0x50c54d14f410343c16f8caa48832e42e59e4c198964e1c9c6fecf652d4226269",
      "blockNumber": "0x272bbac",
      "gasUsed": "0xb7e3",
      "effectiveGasPrice": "0xb81660",
      "blobGasUsed": "0x39d0",
      "from": "0x2abd0d224775fb9140c04f12c3838af95847a97c",
      "to": "0x4d4adb460c5c882becbe95d0562769eca812d1fc",
      "contractAddress": null,
      "daFootprintGasScalar": "0x94",
      "l1BaseFeeScalar": "0x44d",
      "l1BlobBaseFee": "0x9ee56",
      "l1BlobBaseFeeScalar": "0xa118b",
      "l1Fee": "0x362533e",
      "l1GasPrice": "0x77cafb",
      "l1GasUsed": "0x640"
    },
    {
      "status": "0x1",
      "cumulativeGasUsed": "0x41957ad",
      "logs": [
        {
          "address": "0x4d4adb460c5c882becbe95d0562769eca812d1fc",
          "topics": [
            "0x5bf2630de04acf68404978bfc90d2e25430c41148cc9d06f7547926cc41114e3",
            "0x0000000000000000000000000000000000000000000000000000000002000006"
          ],
          "data": "0x",
          "blockHash": "0x50c54d14f410343c16f8caa48832e42e59e4c198964e1c9c6fecf652d4226269",
          "blockNumber": "0x272bbac",
          "blockTimestamp": "0x69f8d638",
          "transactionHash": "0xde29b6799c442b0565e11c14ad1a96506ff8526c3fa6c1c7567d0b3a98165772",
          "transactionIndex": "0x2d3",
          "logIndex": "0x5b5",
          "removed": false
        }
      ],
      "logsBloom": "0x00000000000000000000000000000000000000000000000000000000000000000000000000000000000000000000000000000000000000000000000000000000000000000000000000000000000200800000000000002000000000000000000000000000000000000000000000000000000000400000000000000000000000000000000000000000000000000000000000000000000000010000000000000000000000000000000000000000000000000000800000000000000000000000000000000000000000010000000000000000000000000000002000000000000000000000000000001000000000000000000000000000000000000000000000000000",
      "type": "0x2",
      "transactionHash": "0xde29b6799c442b0565e11c14ad1a96506ff8526c3fa6c1c7567d0b3a98165772",
      "transactionIndex": "0x2d3",
      "blockHash": "0x50c54d14f410343c16f8caa48832e42e59e4c198964e1c9c6fecf652d4226269",
      "blockNumber": "0x272bbac",
      "gasUsed": "0xb7e3",
      "effectiveGasPrice": "0xb81660",
      "blobGasUsed": "0x39d0",
      "from": "0x2abd0d224775fb9140c04f12c3838af95847a97c",
      "to": "0x4d4adb460c5c882becbe95d0562769eca812d1fc",
      "contractAddress": null,
      "daFootprintGasScalar": "0x94",
      "l1BaseFeeScalar": "0x44d",
      "l1BlobBaseFee": "0x9ee56",
      "l1BlobBaseFeeScalar": "0xa118b",
      "l1Fee": "0x362533e",
      "l1GasPrice": "0x77cafb",
      "l1GasUsed": "0x640"
    },
    {
      "status": "0x1",
      "cumulativeGasUsed": "0x41a108b",
      "logs": [
        {
          "address": "0x4d4adb460c5c882becbe95d0562769eca812d1fc",
          "topics": [
            "0xe7019739d91346eb9e4a6525783e16c9659c2d355c6e504e85c56d1576a42a3f",
            "0x0058d8ea79c42a023685014b8281e7508bd5ca5f570f336f5852a291d54a703e"
          ],
          "data": "0x",
          "blockHash": "0x50c54d14f410343c16f8caa48832e42e59e4c198964e1c9c6fecf652d4226269",
          "blockNumber": "0x272bbac",
          "blockTimestamp": "0x69f8d638",
          "transactionHash": "0xb7fa5c3115acd2a3f0d8588706bd2d907701a0d7f9fc3a61b91a62ed0274acdf",
          "transactionIndex": "0x2d4",
          "logIndex": "0x5b6",
          "removed": false
        }
      ],
      "logsBloom": "0x00000000000000000000000000000000000000000000000000000000000000000000000000000000000000000000000400000000000000000000000000000000000000004000000000000000000000801000000000002000000000000000000000000000000000000000000001000000000002000000000000000000000000000000000000000000000000000000000000000000000000000000000000000000000000000000000000000000000000000000000000000000000000000000000000000800000000000000000000000000000000000000002000000000000000000000000000000000000000000000000000000000000000000000000000000000",
      "type": "0x2",
      "transactionHash": "0xb7fa5c3115acd2a3f0d8588706bd2d907701a0d7f9fc3a61b91a62ed0274acdf",
      "transactionIndex": "0x2d4",
      "blockHash": "0x50c54d14f410343c16f8caa48832e42e59e4c198964e1c9c6fecf652d4226269",
      "blockNumber": "0x272bbac",
      "gasUsed": "0xb8de",
      "effectiveGasPrice": "0xb81660",
      "blobGasUsed": "0x39d0",
      "from": "0x2abd0d224775fb9140c04f12c3838af95847a97c",
      "to": "0x4d4adb460c5c882becbe95d0562769eca812d1fc",
      "contractAddress": null,
      "daFootprintGasScalar": "0x94",
      "l1BaseFeeScalar": "0x44d",
      "l1BlobBaseFee": "0x9ee56",
      "l1BlobBaseFeeScalar": "0xa118b",
      "l1Fee": "0x362533e",
      "l1GasPrice": "0x77cafb",
      "l1GasUsed": "0x640"
    },
    {
      "status": "0x1",
      "cumulativeGasUsed": "0x41acf0c",
      "logs": [],
      "logsBloom": "0x00000000000000000000000000000000000000000000000000000000000000000000000000000000000000000000000000000000000000000000000000000000000000000000000000000000000000000000000000000000000000000000000000000000000000000000000000000000000000000000000000000000000000000000000000000000000000000000000000000000000000000000000000000000000000000000000000000000000000000000000000000000000000000000000000000000000000000000000000000000000000000000000000000000000000000000000000000000000000000000000000000000000000000000000000000000",
      "type": "0x2",
      "transactionHash": "0xe82610b3bca585cdda092c92ac995ca82059ae84944893be795b429b0454416b",
      "transactionIndex": "0x2d5",
      "blockHash": "0x50c54d14f410343c16f8caa48832e42e59e4c198964e1c9c6fecf652d4226269",
      "blockNumber": "0x272bbac",
      "gasUsed": "0xbe81",
      "effectiveGasPrice": "0xb81660",
      "blobGasUsed": "0x39d0",
      "from": "0x2abd0d224775fb9140c04f12c3838af95847a97c",
      "to": "0x4d4adb460c5c882becbe95d0562769eca812d1fc",
      "contractAddress": null,
      "daFootprintGasScalar": "0x94",
      "l1BaseFeeScalar": "0x44d",
      "l1BlobBaseFee": "0x9ee56",
      "l1BlobBaseFeeScalar": "0xa118b",
      "l1Fee": "0x362533e",
      "l1GasPrice": "0x77cafb",
      "l1GasUsed": "0x640"
    },
    {
      "status": "0x1",
      "cumulativeGasUsed": "0x41b8aa2",
      "logs": [
        {
          "address": "0x4d4adb460c5c882becbe95d0562769eca812d1fc",
          "topics": [
            "0xadca0b8792a4724d673614590b704b591e207730ea48fcd3eed067bd9bfa3be8",
            "0x0058d8ea79c42a023685014b8281e7508bd5ca5f570f336f5852a291d54a703e"
          ],
          "data": "0x0000000000000000000000000000000000000000000000008ac7230489e80000",
          "blockHash": "0x50c54d14f410343c16f8caa48832e42e59e4c198964e1c9c6fecf652d4226269",
          "blockNumber": "0x272bbac",
          "blockTimestamp": "0x69f8d638",
          "transactionHash": "0xe903b84001f2bec9cf3561514ffdbad529bbf4578819d6a61473e8744557aa33",
          "transactionIndex": "0x2d6",
          "logIndex": "0x5b7",
          "removed": false
        }
      ],
      "logsBloom": "0x00000000000000000000000000000000000000000000000000000000000000000000000000000000000000000000000400800000000000000000000000000000000000000000000000000000000000801000000000002000000000000000000000000000000000000000000000000000000000000000000000800000000000000000000000000000000000000000000000000000000000000000000000000000000000000000000000000000000000000000000000000000000000000004000000000800000000000000000000000000000000000000002000000000000000000000000000000000000000000000000000000000000000000000000000000000",
      "type": "0x2",
      "transactionHash": "0xe903b84001f2bec9cf3561514ffdbad529bbf4578819d6a61473e8744557aa33",
      "transactionIndex": "0x2d6",
      "blockHash": "0x50c54d14f410343c16f8caa48832e42e59e4c198964e1c9c6fecf652d4226269",
      "blockNumber": "0x272bbac",
      "gasUsed": "0xbb96",
      "effectiveGasPrice": "0xb81660",
      "blobGasUsed": "0x39d0",
      "from": "0x2abd0d224775fb9140c04f12c3838af95847a97c",
      "to": "0x4d4adb460c5c882becbe95d0562769eca812d1fc",
      "contractAddress": null,
      "daFootprintGasScalar": "0x94",
      "l1BaseFeeScalar": "0x44d",
      "l1BlobBaseFee": "0x9ee56",
      "l1BlobBaseFeeScalar": "0xa118b",
      "l1Fee": "0x362533e",
      "l1GasPrice": "0x77cafb",
      "l1GasUsed": "0x640"
    },
    {
      "status": "0x1",
      "cumulativeGasUsed": "0x41c4639",
      "logs": [
        {
          "address": "0x4d4adb460c5c882becbe95d0562769eca812d1fc",
          "topics": [
            "0x331ce957b83ed02d6afee380cba159ab824a8280ca085d71dec9b50e38e13056",
            "0x0058d8ea79c42a023685014b8281e7508bd5ca5f570f336f5852a291d54a703e"
          ],
          "data": "0x00000000000000000000000000000000000000000000003635c9adc5dea00000",
          "blockHash": "0x50c54d14f410343c16f8caa48832e42e59e4c198964e1c9c6fecf652d4226269",
          "blockNumber": "0x272bbac",
          "blockTimestamp": "0x69f8d638",
          "transactionHash": "0x20464cfef6e7fd1f1a91acd77f890b48f8fd18a9241233081f23ba84f0a58eb6",
          "transactionIndex": "0x2d7",
          "logIndex": "0x5b8",
          "removed": false
        }
      ],
      "logsBloom": "0x00000000000000000000000000000000000000000000000000000000004000000000000000000000000800000000000400000000000000000000000000000000000000000000000000000000000000801000000000002000000000000000000000000000000000000000000000000000000000000000000000000000000000000000000000000000000000000000000000000000000000000000000000000000000000000800000000000000000000000000000000000000000000000000000000000800000000000000000000000000000000000000002000000000000000000000000000000000000000000000000000000000000000000000000000000000",
      "type": "0x2",
      "transactionHash": "0x20464cfef6e7fd1f1a91acd77f890b48f8fd18a9241233081f23ba84f0a58eb6",
      "transactionIndex": "0x2d7",
      "blockHash": "0x50c54d14f410343c16f8caa48832e42e59e4c198964e1c9c6fecf652d4226269",
      "blockNumber": "0x272bbac",
      "gasUsed": "0xbb97",
      "effectiveGasPrice": "0xb81660",
      "blobGasUsed": "0x39d0",
      "from": "0x2abd0d224775fb9140c04f12c3838af95847a97c",
      "to": "0x4d4adb460c5c882becbe95d0562769eca812d1fc",
      "contractAddress": null,
      "daFootprintGasScalar": "0x94",
      "l1BaseFeeScalar": "0x44d",
      "l1BlobBaseFee": "0x9ee56",
      "l1BlobBaseFeeScalar": "0xa118b",
      "l1Fee": "0x362533e",
      "l1GasPrice": "0x77cafb",
      "l1GasUsed": "0x640"
    },
    {
      "status": "0x1",
      "cumulativeGasUsed": "0x41d01ba",
      "logs": [
        {
          "address": "0x4d4adb460c5c882becbe95d0562769eca812d1fc",
          "topics": [
            "0x5dbe605896cb1ee1389b209a0364bdf95efff4a597c3a34b05b3f7be8c16ef51",
            "0x0058d8ea79c42a023685014b8281e7508bd5ca5f570f336f5852a291d54a703e"
          ],
          "data": "0x00000000000000000000000000000000000000000000003635c9adc5dea00000",
          "blockHash": "0x50c54d14f410343c16f8caa48832e42e59e4c198964e1c9c6fecf652d4226269",
          "blockNumber": "0x272bbac",
          "blockTimestamp": "0x69f8d638",
          "transactionHash": "0x851c48bb50ac5a819098be01cf4894d5ab763212ea61dfff71ec1fea57e99bfc",
          "transactionIndex": "0x2d8",
          "logIndex": "0x5b9",
          "removed": false
        }
      ],
      "logsBloom": "0x00000000000000040000000000000000000000000000000000000000000000000000000000000000000000000000000400000000000000000000000000000000000000000000000000000000000000801000000000002000000000000000000000000000000000000000000000000000000000000000000000000000000000000000000000000000000000000000000000000000000000000000000000000000000000000000000000000000000000000000000080000000000000000000000000000c00000000000000000000000000000000000000002000000000000000000000000000000000000000000000000000000000000000000000000000000000",
      "type": "0x2",
      "transactionHash": "0x851c48bb50ac5a819098be01cf4894d5ab763212ea61dfff71ec1fea57e99bfc",
      "transactionIndex": "0x2d8",
      "blockHash": "0x50c54d14f410343c16f8caa48832e42e59e4c198964e1c9c6fecf652d4226269",
      "blockNumber": "0x272bbac",
      "gasUsed": "0xbb81",
      "effectiveGasPrice": "0xb81660",
      "blobGasUsed": "0x39d0",
      "from": "0x2abd0d224775fb9140c04f12c3838af95847a97c",
      "to": "0x4d4adb460c5c882becbe95d0562769eca812d1fc",
      "contractAddress": null,
      "daFootprintGasScalar": "0x94",
      "l1BaseFeeScalar": "0x44d",
      "l1BlobBaseFee": "0x9ee56",
      "l1BlobBaseFeeScalar": "0xa118b",
      "l1Fee": "0x362533e",
      "l1GasPrice": "0x77cafb",
      "l1GasUsed": "0x640"
    },
    {
      "status": "0x1",
      "cumulativeGasUsed": "0x41dbb0d",
      "logs": [
        {
          "address": "0x4d4adb460c5c882becbe95d0562769eca812d1fc",
          "topics": [
            "0x5dbe605896cb1ee1389b209a0364bdf95efff4a597c3a34b05b3f7be8c16ef51",
            "0x0000000000000000000000000000000000000000000000000000000000000000"
          ],
          "data": "0x00000000000000000000000000000000000000000000010f0cf064dd59200000",
          "blockHash": "0x50c54d14f410343c16f8caa48832e42e59e4c198964e1c9c6fecf652d4226269",
          "blockNumber": "0x272bbac",
          "blockTimestamp": "0x69f8d638",
          "transactionHash": "0x01ddc20907742392cd067c1ce5f3190b1cf6ce254143c24ac5973b1ce9e1dcca",
          "transactionIndex": "0x2d9",
          "logIndex": "0x5ba",
          "removed": false
        }
      ],
      "logsBloom": "0x00000000000000040000000000000000000000000000000000000000000000000000000000000000000000000000000000000000000000000000000000000000000000000000000000000000000000800000000000002000000000000000000000000000020000000000000000000800000000000000000000000000000000000000000000000000000000000000000000000000000000000000000000000000000000000000000000000000000000000000000080000000000000000000000000000400000000000000000000000000000000000000002000000000000020000000000000000000000000000000000000000000000000000000000000000000",
      "type": "0x2",
      "transactionHash": "0x01ddc20907742392cd067c1ce5f3190b1cf6ce254143c24ac5973b1ce9e1dcca",
      "transactionIndex": "0x2d9",
      "blockHash": "0x50c54d14f410343c16f8caa48832e42e59e4c198964e1c9c6fecf652d4226269",
      "blockNumber": "0x272bbac",
      "gasUsed": "0xb953",
      "effectiveGasPrice": "0xb81660",
      "blobGasUsed": "0x39d0",
      "from": "0x2abd0d224775fb9140c04f12c3838af95847a97c",
      "to": "0x4d4adb460c5c882becbe95d0562769eca812d1fc",
      "contractAddress": null,
      "daFootprintGasScalar": "0x94",
      "l1BaseFeeScalar": "0x44d",
      "l1BlobBaseFee": "0x9ee56",
      "l1BlobBaseFeeScalar": "0xa118b",
      "l1Fee": "0x362533e",
      "l1GasPrice": "0x77cafb",
      "l1GasUsed": "0x640"
    },
    {
      "status": "0x1",
      "cumulativeGasUsed": "0x4208b6a",
      "logs": [
        {
          "address": "0x4d4adb460c5c882becbe95d0562769eca812d1fc",
          "topics": [
            "0x88a37b7f98ed76ab52b5cad554c460e484bf2fe62d8cbc9610d1ef83b62c3e4b",
            "0x0000000000000000000000000000000000000000000000000000000000000001"
          ],
          "data": "0x0000000000000000000000000000000000000000000000000000000000000002",
          "blockHash": "0x50c54d14f410343c16f8caa48832e42e59e4c198964e1c9c6fecf652d4226269",
          "blockNumber": "0x272bbac",
          "blockTimestamp": "0x69f8d638",
          "transactionHash": "0x1d61599c9b40dfa95512107d1c907488d3a24572cd37474d3e353a4e47d04ce1",
          "transactionIndex": "0x2da",
          "logIndex": "0x5bb",
          "removed": false
        }
      ],
      "logsBloom": "0x00000000000000000000000000000000000000000000000000000000000000000000000000000000000000000000000000000000000000000000000000040000000000000000000000000000000000800000000000042000000000000000000000000000000000000000000000800000000000000000000000000000000000000000000000000000000000000000000000000000000000000000000000000000000000000000000000000000000000000000000000000000000000100000000000000000000000000000000000000000000000000000002000000000000040000000000000000000000002000000000000000000000000000000000000000000",
      "type": "0x2",
      "transactionHash": "0x1d61599c9b40dfa95512107d1c907488d3a24572cd37474d3e353a4e47d04ce1",
      "transactionIndex": "0x2da",
      "blockHash": "0x50c54d14f410343c16f8caa48832e42e59e4c198964e1c9c6fecf652d4226269",
      "blockNumber": "0x272bbac",
      "gasUsed": "0x2d05d",
      "effectiveGasPrice": "0xb81660",
      "blobGasUsed": "0x4ea0",
      "from": "0x2abd0d224775fb9140c04f12c3838af95847a97c",
      "to": "0x4d4adb460c5c882becbe95d0562769eca812d1fc",
      "contractAddress": null,
      "daFootprintGasScalar": "0x94",
      "l1BaseFeeScalar": "0x44d",
      "l1BlobBaseFee": "0x9ee56",
      "l1BlobBaseFeeScalar": "0xa118b",
      "l1Fee": "0x49de338",
      "l1GasPrice": "0x77cafb",
      "l1GasUsed": "0x886"
    },
    {
      "status": "0x1",
      "cumulativeGasUsed": "0x4214452",
      "logs": [
        {
          "address": "0x396e539bcdeaf48ab9526a13c6e688cba69c059a",
          "topics": [
            "0xa49730bff544fd0b716395c592e39c6fd2d2481a19b9229b5b240483db95a495",
            "0x0000000000000000000000004d4adb460c5c882becbe95d0562769eca812d1fc"
          ],
          "data": "0x",
          "blockHash": "0x50c54d14f410343c16f8caa48832e42e59e4c198964e1c9c6fecf652d4226269",
          "blockNumber": "0x272bbac",
          "blockTimestamp": "0x69f8d638",
          "transactionHash": "0x1662fc31ecb3e293f6580f557cd96ec3275018a2789e436bcd127d9528850e55",
          "transactionIndex": "0x2db",
          "logIndex": "0x5bc",
          "removed": false
        }
      ],
      "logsBloom": "0x00000000000000000000200000000000000000000000000000000000000024000000000000001000000000000000000000000000000000000000000000000000000000000000000000000000000000000000000000000000000000000000000000000000000000000000000000000000000000000000000000000000000000000000000000000000000000000000000000000000000000000000000000004000000000000000000000000000000000000000000180000000000000000000000000000000000000002000008000000000000000000000000000000000000000000000000000000000000000000000000000000000000000000000000000000000",
      "type": "0x2",
      "transactionHash": "0x1662fc31ecb3e293f6580f557cd96ec3275018a2789e436bcd127d9528850e55",
      "transactionIndex": "0x2db",
      "blockHash": "0x50c54d14f410343c16f8caa48832e42e59e4c198964e1c9c6fecf652d4226269",
      "blockNumber": "0x272bbac",
      "gasUsed": "0xb8e8",
      "effectiveGasPrice": "0xb81660",
      "blobGasUsed": "0x39d0",
      "from": "0x2abd0d224775fb9140c04f12c3838af95847a97c",
      "to": "0x396e539bcdeaf48ab9526a13c6e688cba69c059a",
      "contractAddress": null,
      "daFootprintGasScalar": "0x94",
      "l1BaseFeeScalar": "0x44d",
      "l1BlobBaseFee": "0x9ee56",
      "l1BlobBaseFeeScalar": "0xa118b",
      "l1Fee": "0x362533e",
      "l1GasPrice": "0x77cafb",
      "l1GasUsed": "0x640"
    }
  ],
  "libraries": [],
  "pending": [],
  "returns": {},
  "timestamp": 1777915449006,
  "chain": 84532,
  "commit": null
}